:020000040000FA
:0600000087EF2DF0120055
:020006001200E6
:080008009EA402D0C3EF23F017
:100010009EAA02D00DEF26F09EA804D09DA802D083
:060020004FEF26F0120074
:0A00260004005D5B0000F30500001C
:1000300002000000595B0000ED0500000400000014
:10004000ED5A0000F505000001000000465B0000CD
:08005000CC05000013000000C4
:0800580085EC14F0240EE66EA5
:10006000E66A34EC2BF0E552E552F3CFDEFFF4CF35
:10007000DDFFD1EC13F01DE0F70EDBCFE6FFF80E4D
:10008000DBCFE6FF34EC2BF0E552E552D9EC14F06F
:1000900099EC13F0F3CFEEFF11C0EDFF99EC13F0E4
:1000A000EE50ED1006E1B2EC13F0E6EC13F0DE6A70
:1000B000DD6AD1EC13F03EE0000EE66EE66AB2ECCB
:1000C00013F0F20EDBCFE6FFF30EDBCFE6FFF40E0C
:1000D000DBCFE6FFF50EDBCFE6FFF60EDBCFE6FF6C
:1000E000F70EDBCF10F0F80EDBCF11F0126A136AB7
:1000F00010C0E6FF11C0E6FF12C0E6FF13C0E6FF26
:10010000F90EDBCFE6FFFA0E6FEC13F018D8146E81
:10011000120EE15C02E2E16AE552E16E1450B2ECCB
:1001200013F0DDD8E552E552010EF36E020EF3CF67
:10013000DBFF02D0020EDB68DB503FEF15F085ECF1
:1001400014F0EDEC12F0170E1DEC13F0F50EDBCFF2
:1001500012F0F60EDBCF13F0F70EDBCF14F0F80E33
:10016000DBCF15F01206000E135A145A155AEDEC97
:1001700012F0170E06EC15F01250EE24106E13500C
:10018000EE20116EEDEC12F01D0EA4EC12F0D95021
:10019000F90F23EC13F02AE0020EDB6A040EF36E73
:1001A000020EDBCFF4FFF350F45C1AE23EEC13F0E6
:1001B000E66EEDEC12F0EBEC13F057EC15F0020EDE
:1001C000DB500F01E924E96E000EEA20EA6EE552E9
:1001D000E750EF6E3EEC13F003E0020EDB2ADED7B1
:1001E000EDEC12F0EBEC13F0030E03D0EDEC12F09B
:1001F000190E06EC15F0EF6A040EF36EF20EDBCF6B
:10020000F4FFF350F45C05E3030EF36EF20EF3CF4C
:10021000DBFFEDEC12F0160E06EC15F0F20EDBCF64
:10022000EFFFEDEC12F0020E8CEC14F00C0E8CECE7
:1002300014F0020E5EEC13F0F20EDB50C7EC13F07C
:10024000EDEC12F00C0EA4EC12F0EDEC12F00C0E32
:100250005EEC13F0040EE66EE66AE66AEDEC12F070
:100260001F0EA8EC14F002E2E16AE552E16E1250B2
:10027000010EE66EE66AE66AEDEC12F0230EA8ECDB
:1002800014F002E2E16AE552E16E1250F30EDBCFA8
:10029000E6FFF40E6FEC13F0B2EC13F0AEEC21F0CD
:1002A000126E070EE15C02E2E16AE552E16E125065
:1002B000D9EC14F0EDEC12F0F3CFEEFF11C0EDFF2E
:1002C000D950F00F23EC13F008E0F00EDBCFE9FF7C
:1002D000F10EDBCFEAFFBCEC14F03FEF15F0D9CF05
:1002E000E6FFDACFE6FFE1CFD9FFE2CFDAFFE65251
:1002F000E652F250E66EF29E0501CF2B0501CC517D
:10030000CD110DE1FC0EDBCFCCF5FD0EDBCFCDF535
:100310000501CF0503E1C1EC0AF000D020D00501B2
:10032000D3511DE1CCC5E9FFCDC5EAFF160EEB5058
:10033000106EFC0EDBCFE9FFFD0EDBCFEAFF160EE1
:10034000E926000EEA22EF50D880105407E3FC0E95
:10035000DBCFCCF5FD0EDBCFCDF500D000D0050115
:10036000D82BFC0EDBCFE9FFFD0EDBCFEAFF160E2C
:10037000E926000EEA22EFCF10F00501D251D88015
:1003800010540CE2FC0EDBCFE9FFFD0EDBCFEAFFE1
:10039000160EE926000EEA22EFCFD2F5FC0EDBCFD7
:1003A000E9FFFD0EDBCFEAFF160EE926000EEA227A
:1003B000EF50090DF3CFE9FFF4CFEAFF800EE926F5
:1003C000050EEA22EE52EECFDEFFEDCFDDFFFC0E92
:1003D000DBCFE9FFFD0EDBCFEAFF020EE926000EC0
:1003E000EA22020EE926000EEA22DECFEEFFDDCF82
:1003F000EDFFDECFE9FFDDCFEAFF040EE926000EB8
:10040000EA22EECF10F0EFCF11F0FC0EDBCFE9FFC8
:10041000FD0EDBCFEAFF020EE926000EEA22040EF3
:10042000E926000EEA2210C0EEFF11C0EDFFFC0E1F
:10043000DBCFE9FFFD0EDBCFEAFF020EE926000E5F
:10044000EA22E9CF10F0EACF11F0DECFE9FFDDCFED
:10045000EAFF040EE926000EEA22EE50EFCFEAFF93
:10046000E96E020EE926000EEA2210C0EEFF11C06E
:10047000EDFFFC0EDBCFE9FFFD0EDBCFEAFF020E46
:10048000E926000EEA22E9CF10F0EACF11F0DECF24
:10049000E9FFDDCFEAFF040EE926000EEA2210C0D4
:1004A000EEFF11C0EDFFFC0EDBCFE9FFFD0EDBCF51
:1004B000EAFF160EE926000EEA22EF50090DF3CFEF
:1004C00010F0F4CF11F0800E1026050E1122FC0E54
:1004D000DBCFE9FFFD0EDBCFEAFF020EE926000EBF
:1004E000EA22080EE926000EEA2210C0EEFF11C033
:1004F000EDFFFC0EDBCFE9FFFD0EDBCFEAFF160EB2
:10050000E926000EEA22EF50090DF3CFE9FFF4CF00
:10051000EAFF800EE926050EEA22EF2AE552E7BE41
:10052000F28E0501D35118E0CCC5E9FFCDC5EAFF35
:10053000160EEB50106EFC0EDBCFE9FFFD0EDBCF8D
:10054000EAFF160EE926000EEA22EF50105C03E2E5
:10055000E9EC22F000D000D0E552E552E552E5CFBB
:10056000DAFFE7CFD9FF1200D9CFE6FFDACFE6FFF7
:10057000E1CFD9FFE2CFDAFFE652E652F250E66E63
:10058000F29ED950FC0FE96EFF0EDA20EA6EEE50B3
:10059000ED1005E1CCC510F0CDC511F006D0FC0E74
:1005A000DBCF10F0FD0EDBCF11F010C0DEFF11C06D
:1005B000DDFFDECFE9FFDDCFEAFF020EE926000E08
:1005C000EA22E9CF10F0EACF11F010C0E6FF11C027
:1005D000E6FFCEEC29F0E552E552000901E100D03A
:1005E000DECFE9FFDDCFEAFF0C0EE926000EEA229E
:1005F000080EE926000EEA22EE50ED1015E0DECFDF
:10060000E9FFDDCFEAFF0C0EE926000EEA22E9CF72
:1006100010F0EACF11F010C0E6FF11C0E6FFCEECFB
:1006200029F0E552E55200D00501D82BDECF10F0BD
:10063000DDCF11F00501CC51101802E1CD51111898
:100640001DE1DECFE9FFDDCFEAFF020EE926000E55
:10065000EA22E9CF10F0EACF11F010C0E6FF11C096
:10066000E6FFC30EE66E050EE66E6DEC29F0E55270
:10067000E552E552E5520501CE2B04D00501CF0726
:100680004FEC0BF0E552E7BEF28EDECF10F0DDCF7F
:1006900011F00501CC51101802E1CD51111808E0FC
:1006A000DECFE6FFDDCFE6FF3CEC0BF0E552E55296
:1006B0000501D3510EE0DECF10F0DDCF11F00501C2
:1006C000CC51101802E1CD51111803E1E9EC22F0F0
:1006D00000D0E552E552E552E5CFDAFFE7CFD9FF8A
:1006E0001200B9EC12F0060EE12402E3E168E652D2
:1006F000E16E030EDB6ABCD8040ED0C5DBFF050E2D
:10070000D1C5DBFFFA0EDBCF12F0FB0EDBCF13F00F
:10071000D2EC12F01250EE24106E1350EE2010C0E6
:10072000DEFFDD6E040EDBCF10F0050EDBCF11F027
:10073000D2EC12F055EC13F007E2C3EC14F00FE228
:1007400046EC13F00CE206D0C3EC14F003E346ECE5
:1007500013F005E2010EF36E030EF3CFDBFFD2ECD4
:1007600012F0DECFEEFFDDCFEDFF030EDB5015E024
:10077000E66ADECF12F0DDCF13F0040EDB50125C20
:10078000106E050EDB501358116E10C0E6FFE66EBA
:100790005EEC12F0E552E552E5526DD8E76E020EBE
:1007A000E7CFDBFFDB5002E1E9EC22F0030EDB5088
:1007B000106E060EE15C02E2E16AE552E16E105055
:1007C000C2EF12F0A5EC14F0DF6AD950FC0FE96E0D
:1007D000FF0EDA20EA6E000ED880EE54000EED54C3
:1007E0000AE246D8E66AFC0EDBCFE6FFFD0E63ECBC
:1007F00013F041D8DF6EDF5002E1E9EC22F0E55260
:10080000C2EF12F0A5EC14F0DB0EE66E050EE66EFC
:10081000E66A000EE66EE66A690EE66EE66ACA0EE3
:10082000E66E5A0EE66E6E0EE66E150EE66E000E63
:10083000E66E12DC106E0C0EE15C02E2E16AE5523B
:10084000E16E1050DF6EDF040BE1F29E0501D96905
:10085000DA69010ED36FD06BD16B77EC22F000090F
:10086000E552C2EF12F0F29E0501D36BE8EF22F0E1
:100870000501DE2B1200D9CFE6FFDACFE6FFE1CF8C
:10088000D9FFE2CFDAFF0B0EE12402E3E168E65282
:10089000E16EDE6ADD6A020EDB6AF250E66EF29EFF
:1008A0000501DE070501DE5101E0A5D20501CF51AA
:1008B000000801E39FD20501BA5102E1010E01D007
:1008C000000E000901E054D2BFC5E9FFC0C5EAFF30
:1008D000060EE926000EEA22EECFDEFFEDCFDDFFA9
:1008E000DECFE9FFDDCFEAFF0C0EE926000EEA229B
:1008F000080EE926000EEA22030EEECFDBFF040EFF
:10090000EDCFDBFFDECFE9FFDDCFEAFF0C0EE926FE
:10091000000EEA22040EE926000EEA22EECF10F0C5
:10092000EFCF11F0DECFE9FFDDCFEAFF0C0EE926B5
:10093000000EEA22020EE926000EEA22EE50EFCF68
:10094000EAFFE96E040EE926000EEA2210C0EEFF6F
:1009500011C0EDFFDECFE9FFDDCFEAFF0C0EE92687
:10096000000EEA22020EE926000EEA22EECF10F077
:10097000EFCF11F0DECFE9FFDDCFEAFF0C0EE92665
:10098000000EEA22040EE926000EEA22EE50EFCF16
:10099000EAFFE96E020EE926000EEA2210C0EEFF21
:1009A00011C0EDFF030EDBCFE9FF040EDBCFEAFF42
:1009B000EE52EECF10F0EFCF11F0DECFE9FFDDCF3A
:1009C000EAFF0C0EE926000EEA22E9CF12F0EACF88
:1009D00013F01250101802E1135011181BE1DECF72
:1009E000E9FFDDCFEAFF0C0EE926000EEA22040E35
:1009F000E926000EEA22EECF10F0EFCF11F0030E41
:100A0000DBCFE9FF040EDBCFEAFFEE5210C0EEFFB2
:100A100011C0EDFFDECFE9FFDDCFEAFF0C0EE926C6
:100A2000000EEA22080EE926000EEA22EE6AED6ABE
:100A3000030EDBCFE9FF040EDBCFEAFFEF06DECFCC
:100A4000E9FFDDCFEAFF020EE926000EEA22080EDA
:100A5000E926000EEA22050EEECFDBFF060EEDCFF3
:100A6000DBFFDECFE9FFDDCFEAFF020EE926000E55
:100A7000EA22040EE926000EEA22EECF10F0EFCFB4
:100A800011F0DECFE9FFDDCFEAFF020EE926000E0E
:100A9000EA22020EE926000EEA22EE50EFCFEAFF2C
:100AA000E96E040EE926000EEA2210C0EEFF11C026
:100AB000EDFFDECFE9FFDDCFEAFF020EE926000EF3
:100AC000EA22020EE926000EEA22EECF10F0EFCF66
:100AD00011F0DECFE9FFDDCFEAFF020EE926000EBE
:100AE000EA22040EE926000EEA22EE50EFCFEAFFDA
:100AF000E96E020EE926000EEA2210C0EEFF11C0D8
:100B0000EDFF050EDBCFE9FF060EDBCFEAFFEE526D
:100B1000EECF10F0EFCF11F0DECFE9FFDDCFEAFF2F
:100B2000020EE926000EEA22E9CF12F0EACF13F016
:100B30001250101802E1135011181BE1DECFE9FF2B
:100B4000DDCFEAFF020EE926000EEA22040EE926B6
:100B5000000EEA22EECF10F0EFCF11F0050EDBCF42
:100B6000E9FF060EDBCFEAFFEE5210C0EEFF11C028
:100B7000EDFFDECFE9FFDDCFEAFF020EE926000E32
:100B8000EA22080EE926000EEA22EE6AED6A050E58
:100B9000DBCFE9FF060EDBCFEAFFEF06DECFE9FF92
:100BA000DDCFEAFF160EE926000EEA22EFCF10F0A5
:100BB0000501D251D88010540AE2DECFE9FFDDCF23
:100BC000EAFF160EE926000EEA22EFCFD2F5DECFBD
:100BD000E9FFDDCFEAFF160EE926000EEA22EF500C
:100BE000090DF3CFE9FFF4CFEAFF800EE926050EE9
:100BF000EA22EE52070EEECFDBFF080EEDCFDBFF51
:100C0000DECFE9FFDDCFEAFF020EE926000EEA2281
:100C1000020EE926000EEA22070EDBCFEEFF080ED9
:100C2000DBCFEDFF070EDBCFE9FF080EDBCFEAFFDE
:100C3000040EE926000EEA22EECF10F0EFCF11F0FD
:100C4000DECFE9FFDDCFEAFF020EE926000EEA2241
:100C5000040EE926000EEA2210C0EEFF11C0EDFFDF
:100C6000DECFE9FFDDCFEAFF020EE926000EEA2221
:100C7000E9CF10F0EACF11F0070EDBCFE9FF080E45
:100C8000DBCFEAFF040EE926000EEA22EE50EFCF9A
:100C9000EAFFE96E020EE926000EEA2210C0EEFF1E
:100CA00011C0EDFFDECFE9FFDDCFEAFF020EE9263E
:100CB000000EEA22E9CF10F0EACF11F0070EDBCFE9
:100CC000E9FF080EDBCFEAFF040EE926000EEA2258
:100CD00010C0EEFF11C0EDFFDECFE9FFDDCFEAFF70
:100CE000160EE926000EEA22EF50090DF3CF10F0A0
:100CF000F4CF11F0800E1026050E1122DECFE9FF91
:100D0000DDCFEAFF020EE926000EEA22080EE926F0
:100D1000000EEA2210C0EEFF11C0EDFFDECFE9FFAA
:100D2000DDCFEAFF160EE926000EEA22EF50090D8C
:100D3000F3CFE9FFF4CFEAFF800EE926050EEA22A1
:100D4000EF2ADECFE9FFDDCFEAFF160EE926000E1F
:100D5000EA22EFCF10F0CCC5E9FFCDC5EAFF160EB1
:100D6000EB50105C04E30501010ED66F00D0A3D553
:100D7000D9CFE9FFDACFEAFFEE50ED1002E04FECF9
:100D80000BF0090ED4C5DBFF0A0ED5C5DBFFD95029
:100D9000090FE96E000EDA20EA6E000ED880EE54DC
:100DA000000EED541CE2A7D8000904E00501010E75
:100DB000D66F00D0090EDB060A0E01E2DB06D95021
:100DC000090FE96E000EDA20EA6E000ED880EE54AC
:100DD000000EED54E8E30501D46BD56B00D005019E
:100DE000D65108E0010EF36E020EF3CFDBFFE9EC03
:100DF00022F000D000D0E552E7BEF28E020EDB50AA
:100E000000D0106E0B0EE15C02E2E16AE552E16E89
:100E10001050E552E5CFDAFFE7CFD9FF1200D9CF66
:100E2000E6FFDACFE6FFE1CFD9FFE2CFDAFFE65205
:100E3000E652F250E66EF29ED0C5DEFFD1C5DDFF70
:100E4000E552E7BEF28EDECF10F0DDCF11F010C01C
:100E5000F3FF11C0F4FF00D0E552E552E552E5CFB3
:100E6000DAFFE7CFD9FF120085EC14F0020EDB6A3F
:100E7000D0C5DEFFD1C5DDFF93EC14F0E552C2EF23
:100E800012F00501CF511200A5EC14F0E652D95032
:100E9000FC0F23EC13F005E1CCC510F0CDC511F02B
:100EA00006D0FC0EDBCF10F0FD0EDBCF11F010C032
:100EB000DEFF11C0DDFF48EC14F0EBEC13F0E9CFDE
:100EC000F3FFEACFF4FFE552E552C2EF12F0A5ECD2
:100ED00014F0CEDCFC0EDBCF08F0FD0EDBCF09F00A
:100EE00008500501D4270950D523C5DCDF6EDF503B
:100EF000E552C2EF12F0B9EC12F00F0EE12402E35A
:100F0000E168E652E16E040EDB6A0501DE5101E0A4
:100F1000E0D0010E116AD025106ED1511122050EBC
:100F200010C0DBFF060E11C0DBFF050EDBCFD0F5D6
:100F3000060EDBCFD1F5D950050FE96E000EDA2091
:100F4000EA6EEE50ED1012E1070EB6C5DBFF080E9B
:100F5000B7C5DBFFB8C5B6F5B9C5B7F5070EDBCF2A
:100F6000B8F5080EDBCFB9F5D72B99DBD8EC13F029
:100F70000501D951105CDA51115801E29CD0B7EC4F
:100F800013F0EF50000902E1010E01D0000E00093C
:100F900003E0D969DA698FD0B7EC13F09BEC14F059
:100FA000A1EC12F0DFEC13F0D8EC13F087EC13F0A7
:100FB00007E2020EDBCFD9F5030EDBCFDAF57BD0EB
:100FC000A1EC12F0080EEDEC13F0EECFDBFF0A0EF1
:100FD000F4EC13F05CEC15F056EC14F009E113504E
:100FE000111806E181EC15F05CEC15F0F4EC12F050
:100FF00046EC15F05CEC15F0C3EC13F043EC15F087
:10100000EE50ED1029E043EC15F00B0EEECFDBFFB8
:101010000C0EEDCFDBFFCFEC13F03FEC14F0DEEC69
:1010200014F00CEC13F0CFEC13F039EC13F00BE1EF
:101030001350111808E1A7EC12F01EEC15F0DEECCD
:1010400014F0F4EC12F0A7EC12F019EC13F0DEEC53
:1010500014F0DBCFEAFFEF06AAEC12F07BEC13F002
:1010600002E288EC14F02BEC15F00D0EEECFDBFF56
:101070000E0E73EC15F00D0EDBCFEEFF0E0EDBCF78
:10108000EDFF0D0EDBCFE9FF0E0E51EC15F05DEC20
:1010900014F035EC15F05DEC14F0F6EC14F0AAEC5D
:1010A00012F0EFCF10F0E3EC14F0105C01E267D720
:1010B000ACEC13F064D7E3EC14F0C8EC12F0EF5092
:1010C000010802E2ACEC13F0D65106E0ACEC13F0F0
:1010D00003D0D42B000ED523040EDB50106E0F0E60
:1010E000E15C02E2E16AE552E16E1050C2EF12F0FB
:1010F00085EC14F00501DE5103E0010ED66F35D00A
:10110000D66BD2C5DFFFDF50C8EC12F0EF5002E122
:10111000010E01D0000E000902E0DF06F4D7DF5017
:1011200005EC13F0010E10C0DBFF020E11C0DBFF57
:1011300077EC14F049EC15F00CEC13F0C7EC14F05C
:10114000BCEC13F039EC13F005E11350111802E177
:1011500077EC14F02AEC13F0060E06EC15F0EECF47
:10116000CCF5EDCFCDF5DFCFD2F53FEF15F0B9ECF3
:1011700012F04EEC15F0D9EC12F0CBEC14F092EC2E
:1011800013F0010EE66EFA0EDBCFE6FFFB0E63EC0A
:1011900013F0C2EF12F0A5EC14F0E6529CEC13F041
:1011A0004EEC15F0A4EC12F0D2EC12F0EE52EECFB1
:1011B000DEFFEDCFDDFF5AEC14F0A5EC13F048ECA8
:1011C00014F01EEC15F05AEC14F0040E25EC15F09A
:1011D00035EC15F025EC15F0A4EC12F05AEC14F0F7
:1011E0004DEC14F0FC0EDBCFEEFFFD0EDBCFEDFF80
:1011F000D2EC12F0EF2A010EE66EF80EDBCFE6FF1E
:10120000F90E63EC13F0E552E552C2EF12F0B9ECBF
:1012100012F00B0EE12402E3E168E652E16ED2EC3B
:1012200012F09BEC14F043EC15F0030EEECFDBFF55
:10123000040EEDCFDBFFA7EC12F03FEC14F0E7EC6F
:1012400014F00CEC13F0A7EC12F039EC13F00BE1F6
:101250001350111808E1A7EC12F01EEC15F0E7ECA2
:1012600014F0F4EC12F0A7EC12F019EC13F0E7EC28
:1012700014F0C3EC13F00501DE5110E10AEC15F097
:1012800005E11350111802E17DEC14F06AEC14F042
:1012900002E288EC14F0FEEC13F002D02AEC14F019
:1012A00050EC14F009E2010EF36E020EF3CFDBFFF7
:1012B0000501010ED66F02D0020EDB6A020EDB5072
:1012C000106E0B0EE15C02E2E16AE552E16E105035
:1012D000C2EF12F0B9EC12F0080EE12402E3E1686B
:1012E000E652E16E9CEC13F0D2EC12F0F1EC14F04B
:1012F000D2EC12F0060E1DEC13F0D2EC12F04DEC15
:1013000014F0DFEC13F0D2EC12F01EEC15F0D2EC7E
:1013100012F030EC15F0D2EC12F0020EADEC12F03F
:10132000D2EC12F077EC15F0ECEC14F00CEC13F0BE
:10133000FC0EDB5010180CE1FD0EDB50111808E11B
:10134000D2EC12F01EEC15F0ECEC14F0F4EC12F010
:10135000D2EC12F0080EEB6A090EEB6AECEC14F01A
:10136000C3EC13F014EC15F005E11350111802E171
:1013700081EC14F072EC14F0EFCF10F00501D251B3
:10138000D880105402E288EC14F014EC14F050EC05
:1013900014F002E2010ED66F080EE15C02E2E16A8F
:1013A000E552E16EC2EF12F0D9CFE6FFDACFE6FFE9
:1013B000E1CFD9FFE2CFDAFFF250E66EF29EFC0EEB
:1013C000DBCFE9FFFD0EDBCFEAFFD7C5EFFFFC0E59
:1013D000DBCFE9FFFD0EDBCFEAFFEE52D0C5EEFF1B
:1013E000D1C5EDFFE552E7BEF28EE552E5CFDAFF5B
:1013F000E7CFD9FF1200B9EC12F0D2EC12F0D7C54A
:10140000EFFFD2EC12F0EE52D0C5EEFFD1C5EDFFEA
:10141000C2EF12F0D9CFE6FFDACFE6FFE1CFD9FF76
:10142000E2CFDAFFE652E652E652E652E652F250D8
:10143000E66EF29E010ED0C5DBFF020ED1C5DBFFCA
:10144000010EDBCF12F0020EDBCF13F0FC0EDBCF70
:10145000E9FFFD0EDBCFEAFFEE52EE50125C106E9C
:10146000EE501358116E030E10C0DBFF040E11C0B6
:10147000DBFFFC0EDBCFE9FFFD0EDBCFEAFFEF5019
:101480000501D75D23E0010EDBCF10F0020EDBCFAC
:1014900011F0FC0EDBCFE9FFFD0EDBCFEAFFEECF54
:1014A00012F0EECF13F0EFCF14F000011350105CE8
:1014B000145011580BE3010EDF6EFA0EDBCFE9FF7B
:1014C000FB0EDBCFEAFFEE6AED6A3AD0030EDBCF0C
:1014D00010F0040EDBCF11F0FA0EDBCFE9FFFB0EAC
:1014E000DBCFEAFFEECF12F0EFCF13F01250105C1B
:1014F000135011581BE2030EDBCF10F0040EDBCFAC
:1015000011F0FA0EDBCFE9FFFB0EDBCFEAFF105044
:10151000EE5E1150ED5AFC0EDBCFE6FFFD0EDBCF89
:10152000E6FF69DFE552E552DF6A0AD0FA0EDBCF4B
:10153000E9FFFB0EDBCFEAFFEE6AED6A010EDF6E1C
:10154000E552E7BEF28EDF5000D0106E050EE15C72
:1015500002E2E16AE552E16E1050E552E5CFDAFFB2
:10156000E7CFD9FF12000501010ED66F1200B9ECCA
:1015700012F03AD8050180510108FBE2E9EC22F0B3
:10158000F8D7A5EC14F0DF6A040EDF5C0DE2DF5043
:1015900005EC13F010C0E6FF11C0E6FF57EC29F090
:1015A000E552E552DF2AF0D7A40EE66E050E81EC77
:1015B00013F0AD0EE66E050E81EC13F0BA0EE66E7A
:1015C000050E81EC13F0C30EE66E050E81EC13F0F0
:1015D0000501A40EB66F050EB76FAD0EB86F050E00
:1015E000B96FE552C2EF12F0D9CFE6FFDACFE6FFCE
:1015F000E1CFD9FFE2CFDAFFE652E6520501CE5144
:10160000000832E2F250E66EF29EC8C5E9FFC9C595
:10161000EAFF060EE926000EEA22EECFDEFFEDCF4E
:10162000DDFFDECFE9FFDDCFEAFF020EE926000E87
:10163000EA22E9CF10F0EACF11F010C0E6FF11C0A6
:10164000E6FFCEEC29F0E552E5520501CF07050192
:10165000CE07E552E7BEF28EDECFE6FFDDCFE6FF36
:101660000BD8E552E552CAD7E552E552E552E5CF2F
:10167000DAFFE7CFD9FF1200B9EC12F0D2EC12F08A
:10168000170E06EC15F0EECFE6FFEFCFE6FFE6EC27
:1016900013F0CBEC14F0E6EC13F0C2EF12F0B7EC61
:1016A00013F0EF50000902E1010E01D0000E000915
:1016B00004E00501D969DA691200B7EC13F0BCEC5B
:1016C00013F0020EB3EC12F0EECFD9F5EDCFDAF550
:1016D0001200A5EC14F0E6524EEC15F01DEC13F0E0
:1016E000E3EC14F0C7EC13F04EEC15F0A4EC12F0A0
:1016F00093EC14F0C2EF12F0D9CFE6FFDACFE6FF99
:10170000E1CFD9FFE2CFDAFFE652E652E652E652E7
:10171000F250E66EF29ECCC5E9FFCDC5EAFF1F0E82
:10172000E926000EEA22E9CF14F0EACF15F0FD0E0B
:10173000DB50040D1450F324E96E1550F420EA6ECA
:10174000EECF10F0EECF11F0EECF12F0EFCF13F09E
:10175000105011101210131033E1CCC5E9FFCDC5A4
:10176000EAFF230EE926000EEA22E9CF10F0EACFC5
:1017700011F0FD0EDB500F011024E96E000E112058
:10178000EA6E010EEF6ED950FA0FE96EFF0EDA2005
:10179000EA6E000ED880EE54000EED5410E2010EF9
:1017A000E66EFA0EDBCFE6FFFB0EDBCFE6FF5EEC6C
:1017B00012F0E552E552E552E9EC22F000D000D0FB
:1017C000E552E7BEF28EF250E66EF29ECCC5E9FF1E
:1017D000CDC5EAFF1F0EE926000EEA22E9CF10F080
:1017E000EACF11F0FD0EDB50040D1050F324E96E2A
:1017F0001150F420EA6EEECFDFFF010EEECFDBFFDB
:10180000020EEECFDBFF030EEECFDBFFD9CFE9FFF9
:10181000DACFEAFFEECF10F0EECF11F0EECF12F0FC
:10182000EFCF13F010501110121013104EE0FC0EF9
:10183000DB501AE0CCC5E9FFCDC5EAFF1F0EE92653
:10184000000EEA22E9CF10F0EACF11F0FD0EDB50D6
:10185000040D1050F324E96E1150F420EA6EEE6A84
:10186000EE6AEE6AEE6A30D0D9CFE9FFDACFEAFF4E
:10187000EECF12F0EECF13F0EECF14F0EFCF15F065
:101880001206000E135A000E145A000E155ACCC53B
:10189000E9FFCDC5EAFF1F0EE926000EEA22E9CFD7
:1018A00010F0EACF11F0FD0EDB50040D1050F324C0
:1018B000E96E1150F420EA6E12C0EEFF13C0EEFF85
:1018C00014C0EEFF15C0EEFF00D0CCC5E9FFCDC5BA
:1018D000EAFF230EE926000EEA22E9CF10F0EACF54
:1018E00011F0FD0EDB500F011024E96E000E1120E7
:1018F000EA6EEF6AE552E7BEF28EDECF06F0DECF8B
:1019000007F0DECF08F0DDCF09F0DD52DD5200D068
:10191000040EE15C02E2E16AE552E16EE552E5CFD8
:10192000DAFFE7CFD9FF1200D9CFE6FFDACFE6FF23
:10193000E1CFD9FFE2CFDAFFE652F250E66EF29E37
:10194000CCC5E9FFCDC5EAFF230EE926000EEA2249
:10195000E9CF10F0EACF11F0FD0EDB500F0110249B
:10196000E96E000E1120EA6EEF50020860E0F90EF9
:10197000DBCF12F0FA0EDBCF13F0FB0EDBCF14F04F
:10198000FC0EDBCF15F0121E131E141E151ECCC547
:10199000E9FFCDC5EAFF1F0EE926000EEA22E9CFD6
:1019A00010F0EACF11F0FD0EDB50040D1050F324BF
:1019B000E96E1150F420EA6E1250EE161350EE1636
:1019C0001450EE161550EE16CCC5E9FFCDC5EAFF52
:1019D000230EE926000EEA22E9CF10F0EACF11F03B
:1019E000FD0EDB500F011024E96E000E1120EA6E8F
:1019F000010EEF6ED950F10FE96EFF0EDA20EA6E9C
:101A0000000ED880EE54000EED5410E2010EE66E8A
:101A1000F10EDBCFE6FFF20EDBCFE6FF5EEC12F05D
:101A2000E552E552E552E9EC22F000D000D0E55253
:101A3000E7BEF28EF250E66EF29ED950F30FE96ED9
:101A4000FF0EDA20EA6EEE50ED102BE0CCC5E9FF78
:101A5000CDC5EAFF1F0EE926000EEA22E9CF14F0F9
:101A6000EACF15F0FD0EDB50040D1450F324E96E9F
:101A70001550F420EA6EEECF10F0EECF11F0EECF5D
:101A800012F0EFCF13F0F30EDBCFE9FFF40EDBCF54
:101A9000EAFF10C0EEFF11C0EEFF12C0EEFF13C050
:101AA000EEFFCCC5E9FFCDC5EAFF230EE926000E07
:101AB000EA22E9CF10F0EACF11F0FD0EDB500F0162
:101AC0001024E96E000E1120EA6EEF50020802E0C9
:101AD000DF6A2FD0F50EDBCF12F0F60EDBCF13F05E
:101AE000F70EDBCF14F0F80EDBCF15F0121E131E2D
:101AF000141E151ECCC5E9FFCDC5EAFF1F0EE92651
:101B0000000EEA22E9CF10F0EACF11F0FD0EDB5013
:101B1000040D1050F324E96E1150F420EA6E1250B7
:101B2000EE161350EE161450EE161550EE16010E6A
:101B3000DF6ECCC5E9FFCDC5EAFF230EE926000E16
:101B4000EA22E9CF10F0EACF11F0FD0EDB500F01D1
:101B50001024E96E000E1120EA6EEF6AE552E7BE2E
:101B6000F28EDF5000D0E552E552E5CFDAFFE7CF45
:101B7000D9FF1200D9CFE6FFDACFE6FFE1CFD9FFD8
:101B8000E2CFDAFF080EE12402E3E168E652E16EFB
:101B9000010EF36E020EF3CFDBFFFC0EDBCFDEFF98
:101BA000DBCFDDFFF250E66EF29ED950F40FE96E06
:101BB000FF0EDA20EA6EEE50ED102BE0DECFE9FFEB
:101BC000DDCFEAFF1F0EE926000EEA22E9CF14F06E
:101BD000EACF15F0FB0EDB50040D1450F324E96E30
:101BE0001550F420EA6EEECF10F0EECF11F0EECFEC
:101BF00012F0EFCF13F0F40EDBCFE9FFF50EDBCFE1
:101C0000EAFF10C0EEFF11C0EEFF12C0EEFF13C0DE
:101C1000EEFFDECFE9FFDDCFEAFF230EE926000E5F
:101C2000EA22E9CF10F0EACF11F0FB0EDB500F01F2
:101C30001024E96E000E1120EA6E030EEFCFDBFFD9
:101C4000DECFE9FFDDCFEAFF230EE926000EEA2210
:101C5000E9CF10F0EACF11F0FB0EDB500F0110249A
:101C6000E96E000E1120EA6E020EEF6EF60EDB50EA
:101C700001E191D0040A66E0070A42E0010A25E08A
:101C8000030A01E089D0DECFE9FFDDCFEAFF1F0EB6
:101C9000E926000EEA22E9CF10F0EACF11F0FB0EA0
:101CA000DB50040D1050F324E96E1150F420EA6E5D
:101CB000F70EDB50EE12F80EDB50EE12F90EDB5091
:101CC000EE12FA0EDB50EE1268D0DECFE9FFDDCF68
:101CD000EAFF1F0EE926000EEA22E9CF10F0EACF54
:101CE00011F0FB0EDB50040D1050F324E96E11507F
:101CF000F420EA6EEE2A000EEE22EE22EE224DD005
:101D0000DECFE9FFDDCFEAFF1F0EE926000EEA2253
:101D1000E9CF10F0EACF11F0FB0EDB50040D1050AC
:101D2000F324E96E1150F420EA6EF70EDBCFEEFFDC
:101D3000F80EDBCFEEFFF90EDBCFEEFFFA0EDBCFB6
:101D4000EEFF2BD0030EDB50020822E0DECFE9FFCE
:101D5000DDCFEAFF1F0EE926000EEA22E9CF10F0E0
:101D6000EACF11F0FB0EDB50040D1050F324E96EA6
:101D70001150F420EA6EF70EDBCFEEFFF80EDBCF4A
:101D8000EEFFF90EDBCFEEFFFA0EDBCFEEFF02D057
:101D9000020EDB6A02D001D000D0030EDB0401E0AA
:101DA00099D1DECFE9FFDDCFEAFF020EE926000E72
:101DB000EA22080EE926000EEA22040EEECFDBFF2F
:101DC000050EEDCFDBFFDECFE9FFDDCFEAFF020E30
:101DD000E926000EEA22040EE926000EEA22EECFE2
:101DE00010F0EFCF11F0DECFE9FFDDCFEAFF020EFA
:101DF000E926000EEA22020EE926000EEA22EE5043
:101E0000EFCFEAFFE96E040EE926000EEA2210C0C9
:101E1000EEFF11C0EDFFDECFE9FFDDCFEAFF020EDE
:101E2000E926000EEA22020EE926000EEA22EECF93
:101E300010F0EFCF11F0DECFE9FFDDCFEAFF020EA9
:101E4000E926000EEA22040EE926000EEA22EE50F0
:101E5000EFCFEAFFE96E020EE926000EEA2210C07B
:101E6000EEFF11C0EDFF040EDBCFE9FF050EDBCF67
:101E7000EAFFEE52EECF10F0EFCF11F0DECFE9FF28
:101E8000DDCFEAFF020EE926000EEA22E9CF12F0CA
:101E9000EACF13F01250101802E1135011181BE191
:101EA000DECFE9FFDDCFEAFF020EE926000EEA22CF
:101EB000040EE926000EEA22EECF10F0EFCF11F06B
:101EC000040EDBCFE9FF050EDBCFEAFFEE5210C0B8
:101ED000EEFF11C0EDFFDECFE9FFDDCFEAFF020E1E
:101EE000E926000EEA22080EE926000EEA22EE6A32
:101EF000ED6A040EDBCFE9FF050EDBCFEAFFEF064C
:101F0000DECFE9FFDDCFEAFF160EE926000EEA225A
:101F1000EFCF10F00501D251D88010540AE2DECF85
:101F2000E9FFDDCFEAFF160EE926000EEA22EFCF29
:101F3000D2F5DECFE9FFDDCFEAFF160EE926000E6F
:101F4000EA22EF50090DF3CFE9FFF4CFEAFF800E4C
:101F5000E926050EEA22EE52060EEECFDBFF070E53
:101F6000EDCFDBFFDECFE9FFDDCFEAFF020EE92692
:101F7000000EEA22020EE926000EEA22060EDBCF50
:101F8000EEFF070EDBCFEDFF060EDBCFE9FF070EFE
:101F9000DBCFEAFF040EE926000EEA22EECF10F0B6
:101FA000EFCF11F0DECFE9FFDDCFEAFF020EE92629
:101FB000000EEA22040EE926000EEA2210C0EEFF0F
:101FC00011C0EDFFDECFE9FFDDCFEAFF020EE9260B
:101FD000000EEA22E9CF10F0EACF11F0060EDBCFB7
:101FE000E9FF070EDBCFEAFF040EE926000EEA2226
:101FF000EE50EFCFEAFFE96E020EE926000EEA226C
:1020000010C0EEFF11C0EDFFDECFE9FFDDCFEAFF2C
:10201000020EE926000EEA22E9CF10F0EACF11F015
:10202000060EDBCFE9FF070EDBCFEAFF040EE92641
:10203000000EEA2210C0EEFF11C0EDFFDECFE9FF77
:10204000DDCFEAFF160EE926000EEA22EF50090D59
:10205000F3CF10F0F4CF11F0800E1026050E1122F0
:10206000DECFE9FFDDCFEAFF020EE926000EEA220D
:10207000080EE926000EEA2210C0EEFF11C0EDFFA7
:10208000DECFE9FFDDCFEAFF160EE926000EEA22D9
:10209000EF50090DF3CFE9FFF4CFEAFF800EE926F8
:1020A000050EEA22EF2ADECFE9FFDDCFEAFF160EAA
:1020B000E926000EEA22EFCF10F0CCC5E9FFCDC52E
:1020C000EAFF160EEB50D880105403E2E9EC22F040
:1020D00000D000D0E552E7BEF28E020EDB5000D0F9
:1020E000106E080EE15C02E2E16AE552E16E10500A
:1020F000E552E5CFDAFFE7CFD9FF12003ADA0B0E4F
:10210000E12402E3E168E652E16E010EF36E030E94
:10211000F3CFDBFFFC0EDBCFDEFFDBCFDDFF040EFA
:10212000DB6AD950F40F8FDA17E04ADAEECF10F0FD
:10213000EECF11F0EECF12F0EFCF13F0F40EDBCFB5
:10214000E9FFF50EDBCFEAFF10C0EEFF11C0EEFF96
:1021500012C0EEFF13C0EEFFAFEC14F0F60EDB5032
:102160002CE0040A16E0070A18E0010A10E0030A4E
:1021700024E126DAF70EDB50EE12F80EDB50EE12F9
:10218000F90EDB50EE12FA0EDB50EE1216D0EDDB3C
:1021900014D0020EDB5002080EE012DAF70EDBCF8D
:1021A000EEFFF80EDBCFEEFFF90EDBCFEEFFFA0EFF
:1021B000DBCFEEFF02D0030EDB6A020EDB0421E16F
:1021C0000501DE510CE10AEC15F004E11350111881
:1021D00001E193DB7FDB01E29BDB10DB01D03ADB2B
:1021E0005FDB0FE2D950F20F2EDA08E0F20EDBCF00
:1021F000E9FFF30EDBCFEAFF010EEF6E0501010EE2
:10220000D66F030EDB50106E0B0EE15C02E2E16A4A
:10221000E552E16E1050B6D1ACD90A0EE12402E3CA
:10222000E168E652E16EFC0EDBCFDEFFDBCFDDFFC7
:10223000030EDB6A94DB99DB020EDB0434E105015B
:10224000DE510CE1F1DB04E11350111801E159DB1F
:1022500049DB51DA01E25CDBE7DA19D0080EBBC5D5
:10226000DBFF090EBCC5DBFF72D9020ECFDB080E07
:10227000DBCFEEFF090EDBCFEDFF080EDBCFE9FF72
:10228000090E7BEC15F01FDBF0DB1DDBF5DB08DB5B
:102290000AE2D950F90FD7D903E084DB010EEF6EC3
:1022A0000501010ED66F0A0EE15C02E2E16AE55219
:1022B000E16E68D1D9CFE6FFDACFE6FFE1CFD9FFF3
:1022C000E2CFDAFFE652E652E652D950FC0FE96E51
:1022D000FF0EDA20EA6EEE50ED1005E1CCC510F0ED
:1022E000CDC511F006D0FC0EDBCF10F0FD0EDBCF1C
:1022F00011F010C0DEFF11C0DDFFF250E66EF29E5D
:10230000DECFE9FFDDCFEAFF230EE926000EEA2249
:10231000E9CF10F0EACF11F0FB0EDB500F011024D3
:10232000E96E000E1120EA6EEF5002081BE1DECFCD
:10233000E9FFDDCFEAFF230EE926000EEA22E9CF0E
:1023400010F0EACF11F0FB0EDB500F011024E96E04
:10235000000E1120EA6EEF6A010EF36E020EF3CF4B
:10236000DBFF02D0020EDB6AE552E7BEF28E020E00
:10237000DB5000D0E552E552E552E552E5CFDAFFF9
:10238000E7CFD9FF1200D9CFE6FFDACFE6FFE1CFE2
:10239000D9FFE2CFDAFF060EE12402E3E168E6525C
:1023A000E16ED950FC0FE96EFF0EDA20EA6EEE50B6
:1023B000ED1005E1CCC510F0CDC511F006D0FC0E36
:1023C000DBCF10F0FD0EDBCF11F010C0DEFF11C02F
:1023D000DDFFF250E66EF29EDECFE9FFDDCFEAFFD1
:1023E0001F0EE926000EEA22E9CF10F0EACF11F025
:1023F000FB0EDB50040D1050F324E96E1150F42055
:10240000EA6E020EEECFDBFF030EEECFDBFF040E13
:10241000EECFDBFF050EEECFDBFFF70EDBCF12F0CA
:10242000F80EDBCF13F0F90EDBCF14F0FA0EDBCF92
:1024300015F0121E131E141E151EDECFE9FFDDCF90
:10244000EAFF1F0EE926000EEA22E9CF10F0EACFDC
:1024500011F0FB0EDB50040D1050F324E96E115007
:10246000F420EA6E1250EE161350EE161450EE16CB
:102470001550EE16E552E7BEF28E020EDBCF10F0DD
:10248000030EDBCF11F0040EDBCF12F0050EDBCF15
:1024900013F010C006F011C007F012C008F013C00E
:1024A00009F000D0060EE15C02E2E16AE552E16E5D
:1024B000E552E5CFDAFFE7CFD9FF120026DAE65280
:1024C000020ED0C5DBFF030ED1C5DBFF3ADACEEC3E
:1024D00029F0E552E5520009FC0EDBCF12F0FD0EAB
:1024E000DBCF13F0020EDB501224106E030EDB5014
:1024F0001320116E10C0DEFFDD6E96D826D9EAD803
:1025000006D907E21EDAB8C5E6FFB9C5E6FF0AD963
:1025100011D017DAB6C5E6FFB7C5E6FF03D9DAD89A
:102520000501D951105CDA51115804E2DECFD9F51A
:10253000DDCFDAF5040EE15C02E2E16AE552E16E1C
:1025400021D0A6D9020ECCD161DAF1EF14F0A0D9D6
:102550000C0EC6D19DD9160EC3D158DAEECF10F0AD
:10256000EFCF11F0120052DAEE50EFCFEAFFE96E32
:102570001200D9CFE6FFDACFE6FFE1CFD9FFE2CFF5
:10258000DAFF1200E552E5CFDAFFE7CFD9FF1200FC
:10259000090DF3CFE9FFF4CFEAFF800EE926050E1F
:1025A000EA221200FC0EDBCFE9FFFD0EDBCFEAFFD3
:1025B00012002CDA7CDAE9CFE6FFEACFE6FF120060
:1025C00067D91F0E23DAFB0EDB50040DE950F3240C
:1025D000E96EEA50F420EA6E1200EE0EDBCFE9FF5E
:1025E000EF0EDBCFEAFF1200DBCFEAFFEE52F1EF96
:1025F00014F04ED9230E0ADAFB0EDB50E924E96E03
:10260000000EEA20EA6E020E1200090DD2D9800EE9
:102610001026050E11221200DBCFEAFFEE52EECF9C
:1026200010F0EFCF11F01200CCC5E9FFCDC5EAFFE5
:10263000120033D9EE6AED6A1200E8D9EECFDEFF60
:10264000EDCFDDFF1200E96EFF0EDA20EA6EEE50EC
:10265000ED1012009CD9EE52EE50EFCFEAFFE96E7A
:1026600012001BD9BA0EEE6E050EED6E0501BA2BE7
:102670001200EACF13F0E95010181200020EDB50DE
:10268000E76E90D9E750C2D9EF501200DECF14F0B8
:10269000DDCF15F0040EDBCF16F0050EDBCF17F003
:1026A0001450165C155017581200EECF12F0EFCFF1
:1026B00013F01250105C135011581200A7D9060ED7
:1026C000A5D9BCEF14F0DBCFE6FFF8DEE552E5520A
:1026D000E5521200DECF10F0DDCF11F01200DBCF9B
:1026E000E6FFFB0EDBCFE6FFFC0EDBCFE6FFFD0EC9
:1026F000DBCFE6FF1200EFCF10F0D251D88010549C
:102700001200E66E57EC29F0E552E5521200020E77
:10271000DBCF12F0030EDBCF13F01250105C13501E
:102720001158120084EC29F0E552E552E552E552C9
:102730001200AED8170ED4D0FA0EDBCF10F0FB0E7D
:10274000DBCF11F0800E11121200020E5FD9DECF26
:10275000EEFFDDCFEDFF1200010EF36E040EF3CF9E
:10276000DBFF1200DECFE6FFDDCFE6FF1200B6C5CD
:10277000E9FFB7C5EAFF1200030EB2D0160EEB5008
:10278000D88010541200DBCFEAFFEF061200106E63
:10279000116A040ED8801056000E1156120078D817
:1027A0009FD0D9CFE9FFDACFEAFFEE50ED1012004B
:1027B000050EDBCF10F0060EDBCF11F01200020E7B
:1027C000EECFDBFF030EEDCFDBFF12009DEC2BF015
:1027D000E552E5521200190E83D018D9090E1200E5
:1027E000E652E652E652120043D928D9AADE38D979
:1027F000A8DE020EB2DEA5DE77EF15F02CD9070EAB
:10280000EECFDBFF080E6FD9070EDBCFEEFF080E11
:10281000DBCFEDFF070EDBCFE9FF080E42D951D920
:1028200024D94FD9F6EF14F016D9060EEECFDBFF00
:10283000070E59D9060EDBCFEEFF070EDBCFEDFFFB
:10284000060EDBCFE9FF070E2CD944D90ED942D9A9
:10285000F6EF14F0090EBBC5DBFF0A0EBCC5DBFFAB
:1028600076DE020EBADFDBCFEEFF0A0EDBCFEDFF26
:1028700023D941D9E6D8F9D8E4D83CEF15F0DED811
:1028800066DEEED864DE020E68DE61DE77EF15F0FC
:10289000DECFE9FFDDCFEAFF1200080E06EF15F0EC
:1028A00059DEEFCF10F0C0DEBEEF13F0B5DE49DE2B
:1028B00039EF13F0F3D806EF15F0A4D80D0EDBCFE7
:1028C000E9FF0E0E21D124D9F2D8080EDBCFE9FFA3
:1028D000090E1AD1DBD81FD956DF3CDE7BEF13F08F
:1028E00006EF15F0D3D81CD94EDFAAEF12F0B2DEF6
:1028F000020E33DECED8F4EF12F003D90CD9F4EF88
:1029000012F0FFD80DD9F4EF12F033DEF0EF13F030
:1029100021DEEFCFD2F512004CDE6AEC29F0E55251
:10292000E552EDEF12F0D6DE10C0F3FF11C0F4FF58
:10293000E552E552120020DF020E15DE060E1DEFF5
:1029400013F072DE020ED9EF12F013DEE65212001F
:1029500030DE9AEC2CF0126E050EE15C120049DEBE
:10296000EFCFDBFF46DEEF6E12002ADEEE2A000E0E
:10297000EE22EE22EE221200EE0EDBCFEEFFEF0E85
:10298000DBCFEDFF1200A6DE0DDE55EF13F081D890
:10299000DBCFEAFF1200FC0EDBCFE6FFFD0EDBCF44
:1029A000E6FF1200F90EDBCFE9FFFA0EDBCFEAFFFC
:1029B0001200F3CF10F0F4CF11F012000B0EDBCFAA
:1029C000E9FF0C0E120030DE160EEB501200030E63
:1029D000DBCFE9FF040E1200020EDBCFE9FF030E8E
:1029E000120010C0EEFF11C0EDFF1200ADDDB2DD30
:1029F000EF500BDEA6DD080EA7DDACDDEF50C8DD25
:102A0000EF2A1200A1DD9DDD57EF15F0E926000E3B
:102A1000EA22120096DD41DF050EEECFDBFF060E47
:102A2000E3DE79D856EF14F08CDD37DF040EEECFFD
:102A3000DBFF050ED9DE74D856EF14F0040EADEFAF
:102A400012F066D834D838D85FD07EDD33DF2FD887
:102A50001FDF040E12007EDDEF509ADDEE521200F1
:102A6000020E81DD040EA4EF12F07DDD020E1200D5
:102A7000EDCFDBFFA1EF12F04BD831EF13F0E552B1
:102A8000E552E5527FD563DD4DEF14F05ADD19EFC5
:102A900013F0010EDBCFE9FF020E1200C5DD0C0EB4
:102AA0001200DBCFEAFFCADF4CDD040E1200E9CFD3
:102AB00010F0EACF11F01200090EDBCFE9FF0A0E89
:102AC0001200A0DF070EDBCFE9FF080EDBCFEAFF25
:102AD000040E120097DF060EDBCFE9FF070EDBCFF7
:102AE000EAFF040E1200C4DF020E06EF15F0040E1A
:102AF000BCDFA4EF12F0DBCFEAFFA0DF28DD040E7D
:102B000012001FDD1EEF15F0DBCFEAFF040E1200EE
:102B10001BDDA7EF12F0050EDBCFE9FF060E12005A
:0A2B2000040EDBCFE9FF050E1200E2
:062B2A00D9CFE6FFDACF6F
:102B3000E6FFE1CFD9FFE2CFDAFFE652E652E652F6
:102B4000010EDF6EFC0EDBCF08F0FD0EDBCF09F0CF
:102B5000DE5208C0DEFF09C0DDFFDD52D950010F93
:102B6000E96E000EDA20EA6EEE50ED1001E13FD181
:102B7000010EDBCFE9FF020EDBCFEAFF1B0EE926D9
:102B8000000EEA22EFCF10F0010E105C01E22FD10F
:102B90000A0E126E010EDBCFE9FF020EDBCFEAFF59
:102BA0001B0EE926000EEA22EFCF13F013C00EF041
:102BB00012C009F095EC2DF009C011F0010EDBCF29
:102BC000E9FF020EDBCFEAFF1C0EE926000EEA2227
:102BD000EF50115C01E20BD1F250E66EF29E010E55
:102BE000DBCFE9FF020EDBCFEAFF1C0EE926000E69
:102BF000EA22EFCF14F0010EDBCFE9FF020EDBCFAC
:102C0000EAFF1B0EE926000EEA22EF501402F350F1
:102C1000126E136A010EDBCFE9FF020EDBCFEAFF73
:102C20001250EE24106E1350EE20116E010EDBCF09
:102C3000E9FF020EDBCFEAFF040EE926000EEA22CE
:102C400010C0EEFF11C0EDFF010EDBCFE9FF020E59
:102C5000DBCFEAFF1A0EE926000EEA22EF6A010E28
:102C6000DBCFE9FF020EDBCFEAFFEECF10F0EFCFB4
:102C700011F0010EDBCFE9FF020EDBCFEAFF020EFF
:102C8000E926000EEA2210C0EEFF11C0EDFF010E92
:102C9000DBCFE9FF020EDBCFEAFF1C0EE926000EB8
:102CA000EA22EFCF14F0010EDBCFE9FF020EDBCFFB
:102CB000EAFF1B0EE926000EEA22EF041402F3508D
:102CC000126E136A010EDBCFE9FF020EDBCFEAFFC3
:102CD0001250EE24106E1350EE20116E010EDBCF59
:102CE000E9FF020EDBCFEAFF040EE926000EEA221E
:102CF000020EE926000EEA2210C0EEFF11C0EDFF21
:102D0000010EDBCFE9FF020EDBCFEAFF1D0EE92645
:102D1000000EEA22EF68010EDBCFE9FF020EDBCFE7
:102D2000EAFF1E0EE926000EEA22EF68FB0EDB50DA
:102D30002EE1010EDBCFE9FF020EDBCFEAFF080E2A
:102D4000E926000EEA22EF5002E1010E01D0000E4A
:102D500000091CE1010EDBCFE9FF020EDBCFEAFF29
:102D6000080EE926000EEA22E9CF10F0EACF11F0B2
:102D700010C0E6FF11C0E6FF07EC09F0E552E5528E
:102D8000000903E0E9EC22F000D000D02CD0010EC5
:102D9000DBCFE9FF020EDBCFEAFF080EE926000ECB
:102DA000EA22E9CF10F0EACF11F010C0E6FF11C01F
:102DB000E6FF57EC29F0E552E552010EDBCFE9FFC3
:102DC000020EDBCFEAFF110EE926000EEA22E9CF60
:102DD00010F0EACF11F010C0E6FF11C0E6FF57EC8B
:102DE00029F0E552E552E552E7BEF28E01D0DF6AE6
:102DF000DF5000D0E552E552E552E552E5CFDAFF6B
:102E0000E7CFD9FF12006BEC21F002E3E168E65254
:102E1000E16EDE6ADD6AFD0EDB5000086CE20A0E30
:102E2000116E096EFD0EDBCF0EF095EC2DF0FC0E51
:102E3000DB50095C60E301EC21F0126E136AEB0ECB
:102E4000D880F354FF0E135456E301EC21F0E66EE4
:102E5000D950020FE96E000EDA20EA6EE552E75013
:102E6000EE6EED6A020EDBCF10F0030EDBCF11F039
:102E70001F0E1026000E112210C0E6FF11C0E6FF43
:102E800034EC2BF0E552E552F3CFDEFFF4CFDDFF5B
:102E9000D9CFE9FFDACFEAFFEE50ED102CE0D9CF21
:102EA000E9FFDACFEAFF040EEECFDBFF050EEDCF30
:102EB000DBFFD950040FE96E000EDA20EA6E1F0E18
:102EC000EE26000EED22DECFE6FFDDCFE6FFFB0EA5
:102ED000DBCFE6FF1CEC21F0FC0EDBCFE6FFFD0EA6
:102EE000DBCFE6FF18D8106E070EE15C02E2E16A64
:102EF000E552E16E1050DECF10F0DDCF11F010C0C2
:102F0000F3FF11C0F4FF060EE15C02E2E16AE55254
:102F1000E16EB9EF20F0ACEC20F0FC0EDB5007E1E5
:102F2000DBEC20F0F70EDBCFEEFFF80E06D0DBEC8B
:102F300020F0FA0EDBCFEEFFFB0EDBCFEDFFDBEC7C
:102F400020F01B0EB5EC20F0FD0EDBCFEFFFDBEC2D
:102F500020F01C0EB5EC20F0FC0EDBCFEFFF010ED5
:102F6000E66EF70EDBCFE6FFF80EDBCFE6FFDDDD2A
:102F70006FEF21F0D9CFE6FFDACFE6FFE1CFD9FF3F
:102F8000E2CFDAFF070EE12402E3E168E652E16EE8
:102F9000DF6AFC0EDBCF08F0FD0EDBCF09F0050E7B
:102FA00008C0DBFF060E09C0DBFFF250E66EF29EA2
:102FB000050EDBCFE9FF060EDBCFEAFF1A0EE9268E
:102FC000000EEA22EFCF10F0050EDBCFE9FF060E70
:102FD000DBCFEAFF1B0EE926000EEA22EF50105C61
:102FE00004E3F70EDB50020856E1F70EDBCFE6FFF5
:102FF000FA0EDBCFE6FFFB0EDBCFE6FF050EDBCFE5
:10300000E6FF060EDBCFE6FFC7EC1EF0106E050EE6
:10301000E15C02E2E16AE552E16E1050E76E010EFA
:10302000E7CFDBFF050EDBCFE9FF060EDBCFEAFFC4
:10303000110EE926000EEA22EF5002E1010E01D046
:10304000000E00091CE1050EDBCFE9FF060EDBCF09
:10305000EAFF110EE926000EEA22E9CF10F0EACFCE
:1030600011F010C0E6FF11C0E6FF07EC09F0E552D1
:10307000E552000903E0E9EC22F000D006D0010E91
:10308000DB5003E0E9EC22F000D0E552E7BEF28E1F
:10309000010EC5D01ED0D950F80FE96EFF0EDA2010
:1030A000EA6EEE50ED1006E1E552E7BEF28E000E3C
:1030B000B6D00FD0DF500DE1D950020FE66E000EF2
:1030C000DA20E66EFBEC09F0E552E552010EDF6E08
:1030D00000D0E552E7BEF28E38EC04F0F250E66E16
:1030E000F29E050EDBCFE9FF060EDBCFEAFF1D0ED9
:1030F000E926000EEA22EF50FF080BE1050EDBCFB8
:10310000E9FF060EDBCFEAFF1D0EE926000EEA22DC
:10311000EF6A050EDBCFE9FF060EDBCFEAFF1E0EDE
:10312000E926000EEA22EF50FF080BE1050EDBCF87
:10313000E9FF060EDBCFEAFF1E0EE926000EEA22AB
:10314000EF6AE552E7BEF28ED950F80FE66EFF0E39
:10315000DA20E66ED950020FE66E000EDA20E66E37
:103160000AEC0AF0E552E552E552E552000948E161
:10317000050EDBCFE6FF060EDBCFE6FF5BEC20F0B3
:10318000E552E55200092FE0F80EDBCFE6FFF90E1D
:10319000DBCFE6FF050EDBCFE9FF060EDBCFEAFF54
:1031A000080EE926000EEA22E9CF10F0EACF11F06E
:1031B00010C0E6FF11C0E6FFB7EC08F0E552E5529B
:1031C000E552E552050EDBCFE6FF060EDBCFE6FF4C
:1031D00061EC1FF0E552E5523BEC04F0000902E11E
:1031E000E9EC22F00CD0050EDBCFE6FF060EDBCFBC
:1031F000E6FF61EC1FF0E552E5523BEC04F00ED027
:10320000050EDBCFE6FF060EDBCFE6FF61EC1FF01D
:10321000E552E5523BEC04F0000E01D0C6D6106E2C
:10322000070EE15C02E2E16AE552E16E1050E55200
:10323000E5CFDAFFE7CFD9FF12006BEC21F002E314
:10324000E168E6524BEC21F0EFCF10F07EEC21F07C
:10325000105C04E3F70EDB5002083CE15FEC21F068
:10326000040EEFCFDBFF8CEC21F0050EEFCFDBFF80
:10327000F70EDBCFE6FFD4EC20F023EC21F0C7EC17
:103280001EF0106E050EE15C02E2E16AE552E16EAD
:103290001050040EDB50FF0816E163EC21F0EF50F4
:1032A00002E1010E01D0000E000911E163EC21F0F2
:1032B000C6EC20F00CE0D950F80FE9EC20F007E064
:1032C00014EC21F003D0040E96EC21F0EF6E010E09
:1032D000DF6E01D0DF6A0FEC21F002E2E16AE55215
:1032E000E16E1050B9EF20F06BEC21F002E3E168E1
:1032F000E6524BEC21F0040EEFCFDBFF7EEC21F029
:10330000F36E040EDBCFF4FFF350F45C2CE25FECC1
:1033100021F0050EEFCFDBFF040EDB287AEC21F065
:103320001BE163EC21F0EF5002E1010E01D0000E31
:10333000000916E163EC21F0C6EC20F011E0D95051
:10334000FA0FE9EC20F00CE0FA0EDBCFE9FFFB0E00
:10335000DBCFEAFF010E03D0050E96EC21F0EF6EF5
:10336000010EDF6E01D0DF6A0FEC21F002E2E16AAC
:10337000E552E16E1050B9EF20F0D9CFE6FFDACF79
:10338000E6FFE1CFD9FFE2CFDAFF070EE12402E347
:10339000E168E652E16EDF6AFC0EDBCF08F0FD0E5D
:1033A000DBCF09F0040E08C0DBFF050E09C0DBFF10
:1033B000F250E66EF29E040EDBCFE9FF050EDBCF86
:1033C000EAFF1A0EE926000EEA22060EEFCFDBFF17
:1033D000060EDB50000855E2FA0EDBCFE6FFFB0ECF
:1033E000DBCFE6FF040EDBCFE6FF050EDBCFE6FF0B
:1033F00032EC1FF0E552E552E552E552060EDB04D1
:10340000E66E040EDBCFE9FF050EDBCFEAFF1A0EF6
:10341000E926000EEA22E552E750EF6E040EDBCFFC
:10342000E9FF050EDBCFEAFF080EE926000EEA22CF
:10343000EF5002E1010E01D0000E00091CE1040E64
:10344000DBCFE9FF050EDBCFEAFF080EE926000E11
:10345000EA22E9CF10F0EACF11F010C0E6FF11C068
:10346000E6FF07EC09F0E552E552000903E0E9EC5C
:1034700022F000D000D0E552E7BEF28E010ED3D08C
:103480001ED0D950F80FE96EFF0EDA20EA6EEE502A
:10349000ED1006E1E552E7BEF28E000EC4D00FD06B
:1034A000DF500DE1D950010FE66E000EDA20E66E16
:1034B000FBEC09F0E552E552010EDF6E00D0E5525B
:1034C000E7BEF28E38EC04F0F250E66EF29E040E87
:1034D000DBCFE9FF050EDBCFEAFF1D0EE926000E6C
:1034E000EA22EF50FF080BE1040EDBCFE9FF050EE7
:1034F000DBCFEAFF1D0EE926000EEA22EF6A040E7A
:10350000DBCFE9FF050EDBCFEAFF1E0EE926000E3A
:10351000EA22EF50FF080BE1040EDBCFE9FF050EB6
:10352000DBCFEAFF1E0EE926000EEA22EF6AE55223
:10353000E7BEF28ED950F80FE66EFF0EDA20E66E87
:10354000D950010FE66E000EDA20E66E0AEC0AF0A2
:10355000E552E552E552E552000949E1040EDBCFA0
:10356000E6FF050EDBCFE6FF2AEC20F0E552E55240
:10357000000930E0F80EDBCFE6FFF90EDBCFE6FF07
:10358000040EDBCFE9FF050EDBCFEAFF110EE926C3
:10359000000EEA22E9CF10F0EACF11F010C0E6FFEA
:1035A00011C0E6FFB7EC08F0E552E552E552E552EE
:1035B000040EDBCFE6FF050EDBCFE6FF61EC1FF06C
:1035C000E552E5523BEC04F0000903E1E9EC22F09E
:1035D00000D00CD0040EDBCFE6FF050EDBCFE6FFFC
:1035E00061EC1FF0E552E5523BEC04F01BD0040EF9
:1035F000DBCFE6FF050EDBCFE6FF61EC1FF0E55207
:10360000E5523BEC04F0040EDBCFE6FF050EDBCF0A
:10361000E6FF2AEC20F0E552E552000903E0000E37
:1036200002D000D0C5D6106E070EE15C02E2E16A5E
:10363000E552E16E1050E552E5CFDAFFE7CFD9FF52
:103640001200D9CFE6FFDACFE6FFE1CFD9FFE2CF14
:10365000DAFF070EE12402E3E168E652E16EDF6A79
:10366000FC0EDBCF08F0FD0EDBCF09F0040E08C026
:10367000DBFF050E09C0DBFFF250E66EF29E040E82
:10368000DBCFE9FF050EDBCFEAFF1A0EE926000EBD
:10369000EA22060EEFCFDBFF060EDB50000843E206
:1036A000060EDB04E66E040EDBCFE9FF050EDBCF72
:1036B000EAFF1A0EE926000EEA22E552E750EF6E05
:1036C000040EDBCFE9FF050EDBCFEAFF080EE9268B
:1036D000000EEA22EF5002E1010E01D0000E0009B7
:1036E0001CE1040EDBCFE9FF050EDBCFEAFF080E7D
:1036F000E926000EEA22E9CF10F0EACF11F010C05F
:10370000E6FF11C0E6FF07EC09F0E552E5520009BB
:1037100003E0E9EC22F000D000D0E552E7BEF28EE3
:10372000010ECFD01ED0D950FA0FE96EFF0EDA206D
:10373000EA6EEE50ED1006E1E552E7BEF28E000EA5
:10374000C0D00FD0DF500DE1D950010FE66E000E52
:10375000DA20E66EFBEC09F0E552E552010EDF6E71
:1037600000D0E552E7BEF28E38EC04F0F250E66E7F
:10377000F29E040EDBCFE9FF050EDBCFEAFF1D0E44
:10378000E926000EEA22EF50FF080BE1040EDBCF22
:10379000E9FF050EDBCFEAFF1D0EE926000EEA2247
:1037A000EF6A040EDBCFE9FF050EDBCFEAFF1E0E4A
:1037B000E926000EEA22EF50FF080BE1040EDBCFF2
:1037C000E9FF050EDBCFEAFF1E0EE926000EEA2216
:1037D000EF6AE552E7BEF28ED950FA0FE66EFF0EA1
:1037E000DA20E66ED950010FE66E000EDA20E66EA2
:1037F0000AEC0AF0E552E552E552E552000947E1CC
:10380000040EDBCFE6FF050EDBCFE6FF2AEC20F04F
:10381000E552E55200092FE0FA0EDBCFE6FFFB0E82
:10382000DBCFE6FF040EDBCFE9FF050EDBCFEAFFBF
:10383000110EE926000EEA22E9CF10F0EACF11F0CE
:1038400010C0E6FF11C0E6FFB7EC08F0E552E55204
:10385000E552E552040EDBCFE6FF050EDBCFE6FFB7
:1038600030DBE552E5523BEC04F0000903E1E9EC02
:1038700022F000D00BD0040EDBCFE6FF050EDBCF2D
:10388000E6FF1FDBE552E5523BEC04F019D0040ED5
:10389000DBCFE6FF050EDBCFE6FF13DBE552E5529B
:1038A0003BEC04F0040EDBCFE6FF050EDBCFE6FFBA
:1038B000D1DBE552E552000903E0000E02D000D052
:1038C000DBD6106E070EE15C02E2E16AE552E16EC2
:1038D0001050E552E5CFDAFFE7CFD9FF1200D9CF7C
:1038E000E6FFDACFE6FFE1CFD9FFE2CFDAFF090E3C
:1038F000E12402E3E168E652E16EDF6AFC0EDBCF11
:1039000008F0FD0EDBCF09F0060E08C0DBFF070E46
:1039100009C0DBFFF250E66EF29E060EDBCFE9FF38
:10392000070EDBCFEAFF1A0EE926000EEA22080E88
:10393000EFCFDBFF080EDB5000086CE2060EDBCF9A
:10394000E9FF070EDBCFEAFF040EE926000EEA22AC
:10395000020EE926000EEA22040EEECFDBFF050E72
:10396000EDCFDBFFFA0EDBCFE6FFFB0EDBCFE6FF92
:10397000060EDBCFE6FF070EDBCFE6FF73DAE5527C
:10398000E552E552E552060EDBCFE9FF070EDBCF2D
:10399000EAFF040EE926000EEA22020EE926000ED6
:1039A000EA22040EDBCFEEFF050EDBCFEDFF060EA5
:1039B000DBCFE9FF070EDBCFEAFF110EE926000E91
:1039C000EA22EF5002E1010E01D0000E00091CE1D5
:1039D000060EDBCFE9FF070EDBCFEAFF110EE9266B
:1039E000000EEA22E9CF10F0EACF11F010C0E6FF96
:1039F00011C0E6FF07EC09F0E552E552000903E0CB
:103A0000E9EC22F000D000D0E552E7BEF28E010EC4
:103A1000CED01ED0D950F80FE96EFF0EDA20EA6E34
:103A2000EE50ED1006E1E552E7BEF28E000EBFD07B
:103A30000FD0DF500DE1D950010FE66E000EDA20F5
:103A4000E66EFBEC09F0E552E552010EDF6E00D0A8
:103A5000E552E7BEF28E38EC04F0F250E66EF29ECC
:103A6000060EDBCFE9FF070EDBCFEAFF1D0EE926CE
:103A7000000EEA22EF50FF080BE1060EDBCFE9FF54
:103A8000070EDBCFEAFF1D0EE926000EEA22EF6AE1
:103A9000060EDBCFE9FF070EDBCFEAFF1E0EE9269D
:103AA000000EEA22EF50FF080BE1060EDBCFE9FF24
:103AB000070EDBCFEAFF1E0EE926000EEA22EF6AB0
:103AC000E552E7BEF28ED950F80FE66EFF0EDA200F
:103AD000E66ED950010FE66E000EDA20E66E0AECB3
:103AE0000AF0E552E552E552E552000946E1060EBC
:103AF000DBCFE6FF070EDBCFE6FFACDAE552E5529F
:103B000000092FE0F80EDBCFE6FFF90EDBCFE6FF72
:103B1000060EDBCFE9FF070EDBCFEAFF110EE92629
:103B2000000EEA22E9CF10F0EACF11F010C0E6FF54
:103B300011C0E6FFB7EC08F0E552E552E552E55258
:103B4000060EDBCFE6FF070EDBCFE6FFBAD9E55264
:103B5000E5523BEC04F0000903E1E9EC22F000D06F
:103B60000BD0060EDBCFE6FF070EDBCFE6FFA9D9B1
:103B7000E552E5523BEC04F019D0060EDBCFE6FF30
:103B8000070EDBCFE6FF9DD9E552E5523BEC04F092
:103B9000060EDBCFE6FF070EDBCFE6FF5BDAE55272
:103BA000E552000903E0000E02D000D0B3D6106E3B
:103BB000090EE15C02E2E16AE552E16E1050E55265
:103BC000E5CFDAFFE7CFD9FF120085DB02E3E1683A
:103BD000E65261DB040EEFCFDBFFDB5000082DE285
:103BE000B4DA1D0EC2DA050EEFCFDBFFDDDA2BDB18
:103BF00089DB040EDB047EDB14E1A7DA080EABDB05
:103C000002E1010E01D0000E000914E19EDA080E57
:103C1000ACDABCDA0FE0D950F80FDBDA0BE004DBEA
:103C200008D0050EDB28E66E90DA1D0E9EDAE5520E
:103C3000E750EF6E010EDF6E01D0DF6AF0DA02E2CC
:103C4000E16AE552E16E105094D245DB02E3E1688F
:103C5000E652E16E94DA040E08C0DBFF050EDADAF4
:103C6000BFDA1A0E78DB000812E23DDBEECFDBFF95
:103C7000030EEDCFDBFF98DADFDA44DB34DBDBCF9A
:103C8000EEFF030EDBCFEDFF010EDF6E01D0DF6A2A
:103C9000C6DA02E2E16AE552E16E10506AD2D9CF8B
:103CA000E6FFDACFE6FFE1CFD9FFE2CFDAFFE65257
:103CB000F250E66EF29EFC0EDBCFE9FFFD0EDBCF8D
:103CC000EAFF1A0EE926000EEA22EFCFDFFFE552E7
:103CD000E7BEF28EDF5000D0E552E552E5CFDAFFC5
:103CE000E7CFD9FF1200D9CFE6FFDACFE6FFE1CF69
:103CF000D9FFE2CFDAFFE652E652E652FC0EDBCF06
:103D000008F0FD0EDBCF09F0DE5208C0DEFF09C06F
:103D1000DDFFDD52F250E66EF29E010EDBCFE9FFD1
:103D2000020EDBCFEAFF1B0EE926000EEA22EFCFE0
:103D300010F0010EDBCFE9FF020EDBCFEAFF1A0E17
:103D4000E926000EEA22EF50105CDF6EE552E7BE76
:103D5000F28EDF5000D0E552E552E552E552E5CF54
:103D6000DAFFE7CFD9FF120081DAEFCFDFFFDF50B4
:103D7000B6D2EDDAFC0EDBCFDEFFDBCFDDFFDECF30
:103D8000E6FFDDCFE6FF9DEC2BF0E552A8D2DFDAAF
:103D9000DF6AD4D91A0EE9D9010EEFCFDBFF73DA4F
:103DA00054E0F90EDB5025E1C7DA91DA20DA02E2BD
:103DB000E16AE552E16E105066DA106E116A87DA38
:103DC0001050EE261150ED2282DAEECF10F0EFCF38
:103DD00011F09EDAEECF12F0EECF13F0EECF14F02A
:103DE0001250105C1350115830E3ABDA70DA39DA44
:103DF0002CD0A2DA4CDAFBD902E2E16AE552E16E9C
:103E000010508EDAEE5E1150ED5A4EDAEECF14F00D
:103E1000EFCF15F01450125C155013580CE233DA42
:103E2000126E136A75DA1250EE5C106E1350EE5873
:103E3000116E2DDA16DAF90EDB50020806E1010EDA
:103E4000DB50000802E2010EDB06010EDB28E66E05
:103E500075D91A0E8AD9E552E750EF6EDF50E55258
:103E6000E55287D179D90FDA2BE05ADAEE261150D4
:103E7000ED221ADA040E79D9EECF14F0EECF15F058
:103E8000EECF16F0EFCF17F000011450125C155072
:103E9000135803E356DAFBD9E4D9F5D9E66EE66A9E
:103EA000F6D9EECFE6FFEFCFE6FF7ED96FEC2CF030
:103EB000106E060EE15C02E2E16AE552E16E10501E
:103EC00058D1D9CFE6FFDACFE6FFE1CFD9FFE2CF75
:103ED000DAFFE652E652F250E66EF29EFC0EDBCFBF
:103EE000E9FFFD0EDBCFEAFF1E0EE926000EEA22F7
:103EF000EFCFDFFFDFCF10F0000EE76E1018E8AE57
:103F000002D0103403D0E750D880105430E2FC0EB9
:103F1000DBCFE9FFFD0EDBCFEAFF110EE926000E35
:103F2000EA22EF5002E1010E01D0000E00091CE16F
:103F3000FC0EDBCFE9FFFD0EDBCFEAFF110EE92619
:103F4000000EEA22E9CF10F0EACF11F010C0E6FF30
:103F500011C0E6FF07EC09F0E552E552000903E065
:103F6000B3EC0AF000D001D002D0DF06C3D7FC0EBC
:103F7000DBCFE9FFFD0EDBCFEAFF1E0EE926000EC8
:103F8000EA22EF68E552E7BEF28EF250E66EF29E4C
:103F9000FC0EDBCFE9FFFD0EDBCFEAFF1D0EE926AD
:103FA000000EEA22010EEFCFDBFF010EDBCF10F097
:103FB000000EE76E1018E8AE02D0103403D0E750C0
:103FC000D880105431E2FC0EDBCFE9FFFD0EDBCFD1
:103FD000EAFF080EE926000EEA22EF5002E1010E88
:103FE00001D0000E00091EE1FC0EDBCFE9FFFD0E43
:103FF000DBCFEAFF080EE926000EEA22E9CF10F037
:10400000EACF11F010C0E6FF11C0E6FF07EC09F09F
:10401000E552E552000903E0B3EC0AF000D0010ECE
:10402000DB0601D001D0C1D7FC0EDBCFE9FFFD0ECE
:10403000DBCFEAFF1D0EE926000EEA22EF68E5520B
:10404000E7BEF28EE552E552E552E5CFDAFFE7CF63
:10405000D9FF1200D9CFE6FFDACFE6FFE1CFD9FFD3
:10406000E2CFDAFFE652F250E66EF29EFC0EDBCFB4
:10407000E9FFFD0EDBCFEAFF1A0EE926000EEA2269
:10408000EF5003E1010EDF6E01D0DF6AE552E7BEBB
:10409000F28EDF5000D0E552E552E5CFDAFFE7CFF0
:1040A000D9FF1200E3D8EF5003E1010EDF6E01D01B
:1040B000DF6ADF5014D1D9CFE6FFDACFE6FFE1CFD8
:1040C000D9FFE2CFDAFFE652F250E66EF29EFC0E26
:1040D000DBCFE9FFFD0EDBCFEAFF1A0EE926000E6B
:1040E000EA22EFCF10F0FC0EDBCFE9FFFD0EDBCFB5
:1040F000EAFF1B0EE926000EEA22EF50105C03E1F6
:10410000010EDF6E01D0DF6AE552E7BEF28EDF50AE
:1041100000D0E552E552E5CFDAFFE7CFD9FF120034
:10412000A5D8EFCF10F04ED81B0E15D9105C03E1C7
:10413000010EDF6E01D0DF6ADF50D1D0FC0EDBCF85
:10414000E9FFFD0EDBCFEAFF1200020EDBCFE9FF35
:10415000030EDBCFEAFF1200D9CFE6FFDACFE6FF8E
:10416000E1CFD9FFE2CFDAFF1200E926000EEA2202
:104170001200E552E5CFDAFFE7CFD9FF1200FC0EBF
:10418000DBCF08F0FD0EDBCF09F01200E9CF10F015
:10419000EACF11F0E9CFE6FFEACFE6FF07EC09F03E
:1041A000E552E55200091200FA0EDBCFE6FFFB0EE6
:1041B000DBCFE6FF1200F70EDBCFE9FFF80EDBCF17
:1041C000EAFF1200010EDBCFE9FF020EDBCFEAFFB0
:1041D0001200E96EFF0EDA20EA6EEE50ED101200CA
:1041E000040EDBCFE9FF050EDBCFEAFF1200EECFB6
:1041F000E6FFEFCFE6FF6FEC2CF0106E060EE15CF1
:104200001200FC0EDBCFE6FFFD0EDB50E552E702AD
:10421000F350120009C0DBFF010EDB6A1200DF5011
:10422000106E060EE15C1200F80EDBCFE9FFF90E0E
:10423000DBCFEAFF010E1200040EDBCFE6FF050E16
:10424000DBCFE6FF1200020EDBCFE6FF030EDBCF73
:10425000E6FF1200E552E750EF6E050EDB50FF0857
:10426000120010C0EEFF11C0EDFF120070D8E65230
:1042700086DFDE5208C0DEFF09C0DDFFDD52A2DFAF
:104280001A0EB5EF20F05ADF1C0EABEF21F040D82C
:10429000020EB5EF20F0E16E72DF020E08C0DBFF08
:1042A000030EB8DF8CEF21F033D8EECF10F0EECF55
:1042B00011F0EECF12F0EFCF13F09EEF20F045DFBC
:1042C0001E0EB5EF20F041DF110EB5EF20F036DF06
:1042D000020EB5EF20F040DF060EE1241200E55299
:1042E000E552E55246D77CDF040E3FDF020E3DDF8C
:1042F000020E1200E66E10D82AEF21F026DF1B0E08
:10430000ABEF21F0AFDDE552E552E552E552120088
:1043100015DF040EB5EF20F018DF1A0EB5EF20F010
:10432000B2DF106E116AB3DF10501200DB28E66EA8
:10433000C6DFE552E7501200A6DFE66EE66AD4EF6C
:1043400020F0FCDEEECF10F0EFCF11F0120004DF12
:0C435000E652E652120009DFEF501200A6
:04435C005DDBE652ED
:10436000E652E652E652E6523CDB110E41DB01E337
:10437000DB2A37DB220E3CDB01E3DB2A32DB330EA8
:1043800037DB01E3DB2AF70EDBCF10F0F80EDBCFD3
:1043900011F0000E56DBDB6A030EDB6A59DB01E32A
:1043A000DB2A67DB2ADBFEE153DB01E3DB2A19DBD7
:1043B000440E1EDB01E3DB2A14DB660E19DB01E38E
:1043C000DB2A0FDBCC0E14DB01E3DB2A0ADBC00E99
:1043D0000FDB01E3DB2A05DB110E0ADB01E3DB2A3D
:1043E00000DB220E05DB01E3DB2AFBDA330E00DB08
:1043F00001E3DB2AF6DA440EFBDA01E3DB2AF1DA29
:10440000550EF6DA01E3DB2AECDA660EF1DA01E3A7
:10441000DB2A2CDB01E3DB2AE4DA880EE9DA01E3AC
:10442000DB2ADFDA990EE4DA01E3DB2ADADAAA0E14
:10443000DFDA01E3DB2AD5DABB0EDADA01E3DB2AC5
:1044400015DB01E3DB2A12DB01E3DB2A040EDB6A66
:10445000DB50130810E3C5DA040EDBCFEFFFFC0ED0
:10446000DBCFE9FFDB2AFD0EDBCFEAFF01E3DB2A2E
:10447000040EDB2AEDD7B5DA130EBADA01E3DB2A34
:10448000F5DA01E3DB2AF90EDBCF10F0FA0EDBCF11
:1044900011F0FB0EDBCF12F0136AD3DA12C0DBFF90
:1044A000030E13C0DBFFD4DA01E3DB2AE2DAA5DA7C
:1044B000FEE1CEDA01E3DB2ADCDA9FDAFEE1C8DADC
:1044C00001E3DB2A8EDA010E93DA01E3DB2AFC0E2C
:1044D000DBCF10F0FD0EDBCF11F010C0F3FF11C0E9
:1044E000F4FF050EE15C02E2E16AE552A3D22ADAAA
:1044F000CCC5E9FFCDC5EAFFEECFE1FFEECFE2FF8D
:10450000E5CFE9FFE5CFE9FFFC6AE950FC5C08E292
:104510000500E550FF6EE550FE6EE550FD6EF5D7E7
:10452000E5CFEAFFE5CFE9FFE5CFEDFFE5CFEDFF12
:10453000E5CFEDFFE5CFEDFFE5CFEDFFE5CFEDFFFB
:10454000E5CFEDFFE5CFEDFFE5CFEDFFE5CFEDFFEB
:10455000E5CFEDFFE5CFEDFFE5CFEDFFE5CFEDFFDB
:10456000E5CFEDFFE5CFEDFFE5CFEDFFE5CFEDFFCB
:10457000E5CFEDFFE5CFEFFFE5CFFAFFE5CFFBFF9E
:10458000E5CFF3FFE5CFF4FFE5CFF6FFE5CFF7FF8B
:10459000E5CFF8FFE5CFF5FFE5CFEAFFE5CFE9FF8F
:1045A000E5CFDAFFE5CFD9FFE5CFE0FFE5CFE8FFC4
:1045B000E8AE06D0E5CFD8FFE5CFE8FF100005D084
:1045C000E5CFD8FFE5CFE8FF1200010E00D01200C2
:1045D0001200E8CFE4FFD8CFE4FFF2CFE8FF0009F4
:1045E000E8CFE4FFF29EE0CFE4FFD9CFE4FFDACFDB
:1045F000E4FFE9CFE4FFEACFE4FFF5CFE4FFF8CF33
:10460000E4FFF7CFE4FFF6CFE4FFF4CFE4FFF3CF0E
:10461000E4FFFBCFE4FFFACFE4FFE96AEA6AEECFFA
:10462000E4FFEECFE4FFEECFE4FFEECFE4FFEECF0A
:10463000E4FFEECFE4FFEECFE4FFEECFE4FFEECFFA
:10464000E4FFEECFE4FFEECFE4FFEECFE4FFEECFEA
:10465000E4FFEECFE4FFEECFE4FFEECFE4FFEECFDA
:10466000E4FFEECFE4FFEECFE4FFEFCFE4FFE9CFCE
:10467000E4FFEACFE4FFFCCFE9FFFC50000808E2CA
:10468000FDCFE4FFFECFE4FFFFCFE4FF0600F5D748
:10469000E9CFE4FFE452CCC5E9FFCDC5EAFFE1CFA5
:1046A000EEFFE2CFEEFF78EC08F0CCC5E9FFCDC518
:1046B000EAFFEECFE1FFEECFE2FFE5CFE9FFE5CF86
:1046C000E9FFFC6AE950FC5C08E20500E550FF6E7A
:1046D000E550FE6EE550FD6EF5D7E5CFEAFFE5CF7C
:1046E000E9FFE5CFEDFFE5CFEDFFE5CFEDFFE5CF4E
:1046F000EDFFE5CFEDFFE5CFEDFFE5CFEDFFE5CF3A
:10470000EDFFE5CFEDFFE5CFEDFFE5CFEDFFE5CF29
:10471000EDFFE5CFEDFFE5CFEDFFE5CFEDFFE5CF19
:10472000EDFFE5CFEDFFE5CFEDFFE5CFEDFFE5CF09
:10473000EFFFE5CFFAFFE5CFFBFFE5CFF3FFE5CFD6
:10474000F4FFE5CFF6FFE5CFF7FFE5CFF8FFE5CFC4
:10475000F5FFE5CFEAFFE5CFE9FFE5CFDAFFE5CFEB
:10476000D9FFE5CFE0FFE5CFE8FFE8AE06D0E5CF23
:10477000D8FFE5CFE8FF100005D0E5CFD8FFE5CFA3
:10478000E8FF12001200E8CFE4FFD8CFE4FFF2CF39
:10479000E8FF8009E8CFE4FFF29EE0CFE4FFD9CF45
:1047A000E4FFDACFE4FFE9CFE4FFEACFE4FFF5CF9F
:1047B000E4FFF8CFE4FFF7CFE4FFF6CFE4FFF4CF58
:1047C000E4FFF3CFE4FFFBCFE4FFFACFE4FFE96AB5
:1047D000EA6AEECFE4FFEECFE4FFEECFE4FFEECFE8
:1047E000E4FFEECFE4FFEECFE4FFEECFE4FFEECF49
:1047F000E4FFEECFE4FFEECFE4FFEECFE4FFEECF39
:10480000E4FFEECFE4FFEECFE4FFEECFE4FFEECF28
:10481000E4FFEECFE4FFEECFE4FFEECFE4FFEFCF17
:10482000E4FFE9CFE4FFEACFE4FFFCCFE9FFFC506F
:10483000000808E2FDCFE4FFFECFE4FFFFCFE4FF76
:104840000600F5D7E9CFE4FFE452CCC5E9FFCDC5BA
:10485000EAFFE1CFEEFFE2CFEEFF9E947BEC07F0A4
:10486000000902E078EC08F0CCC5E9FFCDC5EAFF0D
:10487000EECFE1FFEECFE2FFE5CFE9FFE5CFE9FFC5
:10488000FC6AE950FC5C08E20500E550FF6EE5506B
:10489000FE6EE550FD6EF5D7E5CFEAFFE5CFE9FF07
:1048A000E5CFEDFFE5CFEDFFE5CFEDFFE5CFEDFF88
:1048B000E5CFEDFFE5CFEDFFE5CFEDFFE5CFEDFF78
:1048C000E5CFEDFFE5CFEDFFE5CFEDFFE5CFEDFF68
:1048D000E5CFEDFFE5CFEDFFE5CFEDFFE5CFEDFF58
:1048E000E5CFEDFFE5CFEDFFE5CFEDFFE5CFEFFF46
:1048F000E5CFFAFFE5CFFBFFE5CFF3FFE5CFF4FF10
:10490000E5CFF6FFE5CFF7FFE5CFF8FFE5CFF5FF01
:10491000E5CFEAFFE5CFE9FFE5CFDAFFE5CFD9FF45
:10492000E5CFE0FFE5CFE8FFE8AE06D0E5CFD8FF62
:10493000E5CFE8FF100005D0E5CFD8FFE5CFE8FFD1
:104940001200120069D8090EE12402E3E168E65280
:10495000E16EA00EDE6E0F0EDE6EDE6ADD6ADD52E7
:10496000DD52CF6ACE6A53D8040EEECFDBFF050EC0
:10497000EECFDBFF060EEECFDBFF070EEECFDBFF49
:10498000040EDBCF10F0050E060E070E1050BE6EA3
:10499000D950040FE96E000EDA20EA6E080EE76EB9
:1049A0002CD8FEE1040EDBCF10F0050EDBCF11F0AA
:1049B000060EDBCF12F0070EDBCF13F01050BF6EE8
:1049C000BD80BD82BD94BD869D84F28C8D0EE66E49
:1049D00044EC2DF0E552090EE15C02E2E16AE55299
:1049E00029D0FC0EDBCFE9FFFD0EDBCFEAFF120082
:1049F000EF6EFC0EDB2AFD0E1200D890030EEB3298
:104A0000020EEB32010EEB32EF32E7061200D9CF85
:104A1000E9FFDACFEAFF1200D9CFE6FFDACFE6FFEF
:104A2000E1CFD9FFE2CFDAFF1200EF6AFC0EDB2AFA
:104A3000FD0E1200E16EE552E5CFDAFFE7CFD9FFB8
:104A4000120010C0DFFF010E11C0DBFF020E1200CA
:104A5000DEDFEECF10F0EECF11F0EECF12F01050FF
:104A6000E66EBFDFE552E750F8EF24F0BADF15EF4E
:0A4A700025F0CDDF080EE76E1200FE
:064A7A00D9CFE6FFDACF00
:104A8000E6FFE1CFD9FFE2CFDAFFE652E652E65287
:104A9000E652106A240E116EF40E126E136A10C0E4
:104AA00006F011C007F012C008F013C009F0FA0EAA
:104AB000DBCF0BF0FB0EDBCF0CF0FC0EDBCF0DF0F1
:104AC000FD0EDBCF0EF020EC2DF006C0DEFF07C0A0
:104AD000DEFF08C0DEFF09C0DDFFDD52DD52D9CFA9
:104AE000E9FFDACFEAFF040EE76ED890030EEB324F
:104AF000020EEB32010EEB32EF32E706F6E1D9CFD0
:104B0000E9FFDACFEAFFEE06000EEE5A000EEE5A8B
:104B1000000EEE5AE66A010EE66EF90EDBCFE6FFF6
:104B200003EC17F0E552E552E552F3CFE9F5F4CF87
:104B3000EAF5E66A010EE66EF90EDBCFE6FF03EC5E
:104B400017F0E552E552E552F3CFEBF5F4CFECF573
:104B5000F250E66EF29EAC6AAB6A000EDB50AF6EAE
:104B6000949C948E9F989F9AAC84AC8AAB8EAB88B1
:104B70009D8AE552E7BEF28EF36AF46A00D0040E15
:104B8000E15C02E2E16AE552E16EE552E5CFDAFF6F
:104B9000E7CFD9FF12000ED9C5EF26F0F0D8F80EF6
:104BA000DBCFE6FF00D9FB0EDBCFE6FFE9C5E6FF72
:104BB000EAC5E6FFBDEC19F0106E060EE15C02E2FC
:104BC000E16AE552E16E1050000902E0010E01D0E9
:104BD000000EC5EF26F0D3D8E66AE5D8D950FB0F12
:104BE000E66EFF0EDA20E66EEBC5E6FFECC5E6FFEB
:104BF000BAEC17F0106E070EE15C02E2E16AE552D2
:104C0000E16E1050010802E0000E02D09D88010EF6
:104C1000C5EF26F0CFD8C5EF26F097D800EE00F00C
:104C2000100EE80403E3EECFE4FFFBD700EE10F034
:104C3000080EE80403E3EECFE4FFFBD7C0D8AE5084
:104C4000DF6EABA202D0AB98AB88E66AA4D8E9C508
:104C5000E6FFEAC5E6FF1DEC19F0196E070EE15CF0
:104C600002E2E16AE552E16E1950010EDB5002E00A
:104C7000E9EC22F0E552E55288D8E55200EE17F053
:104C8000080EE80403E3E5CFEDFFFBD700EE0FF0DD
:104C9000100EE80403E3E5CFEDFFFBD73CD055D879
:104CA00000EE00F0100EE80403E3EECFE4FFFBD7C4
:104CB00000EE10F0080EE80403E3EECFE4FFFBD7AC
:104CC0007ED869D8EBC5E6FFECC5E6FFE5EC1DF044
:104CD000186E060EE15C02E2E16AE552E16E1850E0
:104CE000010803E1DF50AD6E01D09D98E552E55219
:104CF0004CD8E55200EE17F0080EE80403E3E5CFC8
:104D0000EDFFFBD700EE0FF0100EE80403E3E5CF54
:104D1000EDFFFBD700D0E5CFFBFFE5CFFAFFE5CFF6
:104D2000F4FFE5CFF3FFE5CFF5FFE5CFF8FFE5CFE3
:104D3000F7FFE5CFF6FFE5CFEAFFE5CFE9FFE55066
:104D4000E5CFE0FFE5CFD8FF1000D8CFE4FFE0CFFC
:104D5000E4FFE46EE9CFE4FFEACFE4FFF6CFE4FF3F
:104D6000F7CFE4FFF8CFE4FFF5CFE4FFF3CFE4FFA4
:104D7000F4CFE4FFFACFE4FFFBCFE4FF12001AD830
:104D8000E1CFD9FFE2CFDAFF1200E552E5CFDAFF3B
:104D9000E7CFD9FF1200D950010FE66E000EDA20DE
:104DA000E66EDAEF26F0F90EDBCFE6FFFA0EDBCF88
:104DB000E6FF1200D9CFE6FFDACFE6FF1200E65297
:0C4DC000DEDFE652E652010EDB6A120054
:044DCC0038D9E66A82
:104DD000020EE66E0A0EE66E03EC17F0E552E5529F
:104DE000E552F3CFF1F5F4CFF2F50501F350F410ED
:104DF00020E017D9D70EE66E5A0EE66E060EE66E66
:104E00004F0EE66E000E24D902E2E16AE552E16E31
:104E1000105007D9CF0EE66E5A0EE66E340EE66ECF
:104E20004E0EE66E000E14D902E2E16AE552E16E22
:104E3000105015D1D9CFE6FFDACFE6FFE1CFD9FF89
:104E4000E2CFDAFFE652E652E652E652DE6ADD6A69
:104E5000020EDB6A030EDB6A030EDBCF10F0030EDB
:104E6000E76E1018E8AE02D0E73402D0E750105CCD
:104E700036E2E66A000EE66EE66AD9CFE6FFDACFE2
:104E8000E6FFFC0EDBCFE9FFFD0EDBCFEAFFEECF46
:104E9000E6FFEFCFE6FFBAEC17F0106E070EE15C0D
:104EA00002E2E16AE552E16E1050010806E0010EEF
:104EB000F36E020EF3CFDBFF0FD0020EDB5008E1E2
:104EC000F250E66EF29E0501F42BE552E7BEF28E3B
:104ED000DF2A010E01E3DB2A030EDB2ABDD7030E16
:104EE000E66EE66AE2EC03F0E552E552B3D7040E53
:104EF000E15C02E2E16AE552E16EE552E5CFDAFFFC
:104F0000E7CFD9FF1200D9CFE6FFDACFE6FFE1CF36
:104F1000D9FFE2CFDAFFE652E652E652E652E65217
:104F2000020EDB6A030EDB6A040EDB6AFC0EDBCFCB
:104F3000E9FFFD0EDBCFEAFFEECFE6FFEFCFE6FFA6
:104F40004FEC1EF0E552E552000947E0000EE66E18
:104F5000E66AD9CFE6FFDACFE6FFFC0EDBCFE9FF4A
:104F6000FD0EDBCFEAFFEECFE6FFEFCFE6FFBDECB5
:104F700019F0106E060EE15C02E2E16AE552E16EA4
:104F80001050010829E1020EDB50DF1804E1030E86
:104F9000DB50DE52DD1810E0010EF36E040EF3CF8D
:104FA000DBFFD9CFE9FFDACFEAFF020EEECFDBFF5E
:104FB000030EEDCFDBFF0BD0040EDB5008E1F25007
:104FC000E66EF29E0501F32BE552E7BEF28E020E6D
:104FD000DB2A030E01E3DB2AA9D7EF0EE66EE668B3
:104FE000E2EC03F0E552E552A1D7050EE15C02E2E6
:104FF000E16AE552E16EE552E5CFDAFFE7CFD9FF8E
:1050000012001DD8E6520501F35102E0F45102E10D
:10501000DF6A02D0010EDF6EF36BF46BDF50E552F6
:105020001ED0000EE66EE66AFD0EDBCFE6FFF10E47
:10503000E66E050EE66E690EE66EE66A1200D9CFE0
:10504000E6FFDACFE6FFE1CFD9FFE2CFDAFF1200C9
:10505000E66E2CEC00F0106E0C0EE15C1200E552D6
:0A506000E5CFDAFFE7CFD9FF120019
:06506A0003D9DE6ADD6AD5
:10507000DECF10F0DDCF11F0D890115004E6010E14
:10508000105C000E11582EE2000EE66EE66AFD0E70
:10509000DBCFE6FFDECF10F0DDCF11F0F50E1026EE
:1050A000050E112210C0E6FF11C0E6FF690EE66E84
:1050B000E66AE50EE66E5A0EE66EE60EE66E500EF7
:1050C000E66E000EE66E2CEC00F0126E0C0EE15C4B
:1050D00002E2E16AE552E16E1250DF2A010EC8E3F6
:1050E000DB2AC6D7DCD0D9CFE6FFDACFE6FFE1CFA7
:1050F000D9FFE2CFDAFF080EE12402E3E168E652CD
:10510000E16E040EDB6A050EDB6AFC0EDBCF08F0F5
:10511000FD0EDBCF09F0060E08C0DBFF070E09C04D
:10512000DBFF7B0EDE6EDE6ADE6ADD6ADD52DD529B
:10513000D9CFE9FFDACFEAFF470EEE26940EEE2232
:10514000030EEE22000EEE22D9CFE9FFDACFEAFFFE
:10515000FD0E0B6E0C680D680E68EECF06F0EECFFC
:1051600007F0EECF08F0EFCF09F0B4EC2CF005C05B
:10517000EDFF04C0EDFF03C0EDFF02C0EFFFD9CF8C
:10518000E9FFDACFEAFF070E0B6E0C6A0D6A0E6AB2
:10519000EECF06F0EECF07F0EECF08F0EFCF09F03C
:1051A000ECEC2CF009C0EDFF08C0EDFF07C0EDFFEF
:1051B00006C0EFFFD9CFE9FFDACFEAFF1B0EEE18EA
:1051C00008E1770EEE1805E1FE0EEE1802E1E86840
:1051D000EE1807E0010EF36E040EF3CFDBFF050EB1
:1051E000DB6AD950040FE96E000EDA20EA6EEE5049
:1051F000ED100EE1F250E66EF29E060EDBCFE9FFF7
:10520000070EDBCFEAFF010EEF6EE552E7BEF28E2E
:1052100088D7080EE15C02E2E16AE552E16EE552F0
:10522000E5CFDAFFE7CFD9FF120023D8E652010E0F
:10523000DF6EDB6A020EDB6A010EDBCF10F0020EBE
:10524000DBCF11F0D890115004E6010E105C000E77
:1052500011580CE219D8EF5001E1DF6A15D8EF6A56
:10526000010EDB2A020EE8E3DB2AE6D7DF50E55227
:1052700016D0D9CFE6FFDACFE6FFE1CFD9FFE2CFF4
:10528000DAFFE652E6521200010EDBCFE9FF020E12
:10529000DBCFEAFFF50EE926050EEA221200E55201
:0E52A000E552E552E5CFDAFFE7CFD9FF120065
:0252AE00B4D872
:1052B00010D9A0D8EE52C4D8DED8EE68ED6809D96E
:1052C000DAD8020EE8D805D9D6D8040EE4D892D898
:1052D000EF6AB0D0A1D8EFD8ADD0F3D8EE52C6D88F
:1052E00094D8020EE1D8040EDCD88FD8040ED3D89F
:1052F0009CD8040ED3D8020E84D8A7D896D8040E12
:10530000BED8E552E55296D087D8E652E652E6522C
:10531000E6527BD8020EEECFDBFF030EEDCFDBFFB4
:10532000D950020FE96E000EDA20EA6EFF0EEE1879
:1053300007E1FF0EED1804E19ED8040EC7D818D07F
:105340009AD8E9CFDEFFEACFDDFF6FD8020EA6D8EC
:1053500083D8020EDBCF12F0030EDBCF13F0105018
:10536000125C1150135804E360D8020EAFD8EDD789
:105370005CD8020E96D849D8020E8DD846D8020EB7
:105380008DD8040EACD8040E8FD8020E78D8040E37
:10539000E15C02E2E16AE552E16E4CD092D8080E7F
:1053A00095D828D8040E7DD825D8020E77D8040EBB
:1053B00072D820D8020E75D81DD8040E6FD8020EF0
:1053C0006AD833D8EE5248D8FC0EDB5010180AE1E8
:1053D000FD0EDB50111806E10DD8040E62D825D859
:1053E000EE522ED868D821D8EF061FD8EF50E552DC
:1053F000E55220D0FC0EDBCFE9FFFD0EDBCFEAFF4C
:105400001200E926000EEA221200FA0EDBCFE9FFB5
:10541000FB0EDBCFEAFF1200D9CFE6FFDACFE6FFC3
:10542000E1CFD9FFE2CFDAFF1200DECFE9FFDDCF17
:10543000EAFF1200E552E5CFDAFFE7CFD9FF12000D
:1054400010C0EEFF11C0EDFF1200FA0EDBCFEEFF31
:10545000FB0EDBCFEDFF1200EECF10F0EFCF11F01F
:105460001200EE50EFCFEAFFE96E1200EECFDEFF42
:10547000EDCFDDFF1200BEDF030E01EF2AF02FD8C3
:10548000080EBFDFFC0EDBCFEEFFFD0EDBCFEDFF26
:10549000B1DFEF2A1200B5DF20EF2AF0B2DF31EFE3
:1054A0002AF0AFDF2CEF2AF0ACDFDECFEEFFDDCF4E
:1054B000EDFF15EF2AF09EDF080EEB6A090EEB6A8E
:1054C0001200AADFE652E652FAEF29F09ADF36EF31
:1054D0002AF0D1DFE9CF10F0EACF11F0120091DF0E
:0654E000B4DF05EF2AF025
:0A54E600A3D8E652DE6ADD6ADECFCD
:1054F00010F0DDCF11F0D890115004E67C0E105C56
:10550000150E115805E2DF2A010EF1E3DB2AEFD771
:10551000E5529FD0926A92908080E5DF92928090CF
:105520008092E1DFBAEC2BF0A2EC2BF0050EE66ED8
:10553000800EE66E250EE66EE66AE66A3DEC25F024
:10554000106E050EE15C02E2E16AE552E16E105078
:1055500087D8580E76D802E2E16AE552E16E105023
:10556000E66A35EC28F0E552020EE66EE6EC26F02F
:10557000E55276D8030EE66E73D8690EE66EE66ADB
:10558000DF0EE66E5A0EE66ED20EE66E550EE66E33
:10559000000EE66E2CEC00F0106E0C0EE15C02E2E8
:1055A000E16AE552E16E10509292808259D8730EF2
:1055B00048D802E2E16AE552E16E105002EC04F0D4
:1055C0004FD8520E3ED802E2E16AE552E16E105029
:1055D00012002DD8E652E652E80EDE6E030EDD6EA6
:1055E000DECFE6FFDDCFE6FFE2EC03F0E552E55269
:1055F0000ED8E76E020EE7CFDBFFDB0403E1640E9B
:10560000DE6EDD6AE66AF6EC2BF0E552E9D70FD8DC
:10561000DF6A15EC29F0010802E0010EDF6E01ECF3
:1056200028F0010802E0010EDF6EDF5012D0D9CF62
:10563000E6FFDACFE6FFE1CFD9FFE2CFDAFFE652AD
:105640001200E66E0DD8EBEC25F0106E050EE15C55
:105650001200E552E552E5CFDAFFE7CFD9FF12009D
:08566000000EE66EE66A12007E
:08566800D9CFE6FFDACFE6FF1F
:10567000E1CFD9FFE2CFDAFFE652E652DE6ADD6A19
:1056800038EC04F00501EF51F01109E1800E106EC5
:10569000010E116E126A136A10C0EFF5F06FD95047
:1056A000FC0FE96EFF0EDA20EA6E000ED880EE5491
:1056B000000EED5435E2FC0EDB50ED250001106EBE
:1056C000FD0EDB500501EE210001116EFF0E105C96
:1056D000030E115825E2FC0EDB500501ED250001FB
:1056E000126EFD0EDB500501EE210001136E050167
:1056F0001250ED5D1350EE5913E2EF51ED25106E8F
:10570000F051EE21116E10C0DEFFDD6EFC0EDBCF1E
:1057100008F0FD0EDBCF09F00850ED270950EE230D
:105720003BEC04F0DECF10F0DDCF11F010C0F3FF42
:1057300011C0F4FFE552E55217D0D9CFE6FFDACF1A
:10574000E6FF12D00501ED6BEE6B1200EDC510F017
:10575000EEC511F0FF0ED8801056030E115610C082
:10576000F3FF11C0F4FF1200E552E5CFDAFFE7CFF7
:04577000D9FF12004B
:0C577400959E959C959A9598839E839C29
:10578000839A8398070EC16E9694848412003ED843
:1057900024E0010A18E0030A0CE0010A26E14BD8D4
:1057A00010BE11681050E8B0838EE8B01ED0839E02
:1057B0001CD041D810BE11681050E8B0838CE8B0FE
:1057C00014D0839C12D037D810BE11681050E8B0A6
:1057D000838AE8B00AD0839A08D02DD810BE116809
:1057E0001050E8B08388E8A083981DD00FD80CE053
:1057F000010A08E0030A04E0010A07E1837E05D0FC
:10580000837C03D0837A01D083780DD0D9CFE6FF93
:10581000DACFE6FFE1CFD9FFE2CFDAFF38EC04F0D0
:10582000FD0EDB5012003BEC04F0E552E5CFDAFF51
:10583000E7CFD9FF1200FC0EDBCF10F0116A120087
:10584000260EF66E000EF76E000EF86E05010900CA
:10585000F550E46F0900F550E56F03E1E46701D00E
:105860003DD00900F550DF6F0900F550E06F0900E9
:10587000F550E16F09000900F550E96E0900F55097
:10588000EA6E090009000900F550E26F0900F550C1
:10589000E36F09000900F6CFE6F5F7CFE7F5F8CF9B
:1058A000E8F5DFC5F6FFE0C5F7FFE1C5F8FF050144
:1058B000E25302E1E35307E00900F550EE6EE20720
:1058C000F8E2E307F9D7E6C5F6FFE7C5F7FFE8C555
:0E58D000F8FF0501E407000EE55BBFD71200EC
:0258DE00D9CF20
:1058E000E6FFDACFE6FFFA0EE3CFD9FFFB0EE3CFF8
:1058F000DAFFFC0EE3CFE9FFFD0EE3CFEAFFE9CFCD
:10590000F3FFEACFF4FFF80EE35003E1F90EE350A2
:1059100008E0F80EE30602E2F90EE306DECFEEFF42
:10592000F2D7FF0EE3CFDAFFE552FF0EE3CFD9FF48
:10593000E5521200FE0EE3CFE9FFFF0EE3CFEAFFD0
:10594000E9CFF3FFEACFF4FFFB0EE35003E1FC0ED7
:10595000E35009E0FB0EE30602E2FC0EE306FD0E57
:08596000E350EE6EF1D71200D6
:0859680006500B02F3CF02F020
:10597000F4CF03F00C02F3500326000EF420046E63
:1059800006500D02F3500426000EF420056E06505A
:105990000E02F350052607500B02F3500326F45075
:1059A0000422000E052207500C02F3500426F45086
:1059B000052207500D02F350052608500B02F35044
:1059C0000426F450052208500C02F3500526095015
:0859D0000B02F3500526120042
:0859D800006AE86A0EAEF9EF67
:1059E0002CF00B6C0C1E0D1E0E1E0C220D220E2216
:1059F000001E09AE04EF2DF0066C071E081E091EDE
:105A0000072208220922001E20EC2DF009BE1BEF00
:105A10002DF000AE000C066C071E081E091EE86A79
:105A2000072208220922026C031E041E051E0322FF
:105A300004220522000C00BE0BEF2DF00188FF0CA4
:105A4000056A046A036A026A200EE76ED890063679
:105A500007360836093602360336043605360B504B
:105A6000025C0C5003580D5004580E50055809E3C1
:105A70000B50025E0C50035A0D50045A0E50055A3A
:085A8000062AE72EE4D712000C
:085A8800D9CFE6FFDACFE6FFFB
