:020000040000FA
:06000000B2EF2BF012002C
:020006001200E6
:080008009EA402D0BDEF23F01D
:100010009EAA02D007EF26F09EA804D09DA802D089
:0600200049EF26F012007A
:0A0026000300BD570000F1050000C3
:1000300001000000B9570000ED05000004000000B9
:0C004000A6570000CC05000013000000D3
:04004C007FEC14F041
:10005000240EE66EE66A7DEC29F0E552E552F3CF18
:10006000DEFFF4CFDDFFCBEC13F01DE0F70EDBCFAE
:10007000E6FFF80EDBCFE6FF7DEC29F0E552E55216
:10008000D3EC14F093EC13F0F3CFEEFF15C0EDFFBB
:1000900093EC13F0EE50ED1006E1ACEC13F0E0EC55
:1000A00013F0DE6ADD6ACBEC13F03EE0000EE66E84
:1000B000E66AACEC13F0F20EDBCFE6FFF30EDBCF1B
:1000C000E6FFF40EDBCFE6FFF50EDBCFE6FFF60E24
:1000D000DBCFE6FFF70EDBCF14F0F80EDBCF15F029
:1000E000166A176A14C0E6FF15C0E6FF16C0E6FFE1
:1000F00017C0E6FFF90EDBCFE6FFFA0E69EC13F04E
:1001000018D8186E120EE15C02E2E16AE552E16E67
:100110001850ACEC13F0DDD8E552E552010EF36E49
:10012000020EF3CFDBFF02D0020EDB68DB5039EFAB
:1001300015F07FEC14F0E7EC12F0170E17EC13F04B
:10014000F50EDBCF16F0F60EDBCF17F0F70EDBCF98
:1001500018F0F80EDBCF19F01606000E175A185AD1
:10016000195AE7EC12F0170E00EC15F01650EE24B9
:10017000146E1750EE20156EE7EC12F01D0E9EEC7B
:1001800012F0D950F90F1DEC13F02AE0020EDB6AD1
:10019000040EF36E020EDBCFF4FFF350F45C1AE2B0
:1001A00038EC13F0E66EE7EC12F0E5EC13F051ECEE
:1001B00015F0020EDB500F01E924E96E000EEA2073
:1001C000EA6EE552E750EF6E38EC13F003E0020EF2
:1001D000DB2ADED7E7EC12F0E5EC13F0030E03D0D8
:1001E000E7EC12F0190E00EC15F0EF6A040EF36E56
:1001F000F20EDBCFF4FFF350F45C05E3030EF36E75
:10020000F20EF3CFDBFFE7EC12F0160E00EC15F068
:10021000F20EDBCFEFFFE7EC12F0020E86EC14F0EB
:100220000C0E86EC14F0020E58EC13F0F20EDB50BC
:10023000C1EC13F0E7EC12F00C0E9EEC12F0E7ECC0
:1002400012F00C0E58EC13F0040EE66EE66AE66A45
:10025000E7EC12F01F0EA2EC14F002E2E16AE552A4
:10026000E16E1650010EE66EE66AE66AE7EC12F001
:10027000230EA2EC14F002E2E16AE552E16E1650A0
:10028000F30EDBCFE6FFF40E69EC13F0ACEC13F0E9
:10029000A8EC21F0166E070EE15C02E2E16AE5527D
:1002A000E16E1650D3EC14F0E7EC12F0F3CFEEFF52
:1002B00015C0EDFFD950F00F1DEC13F008E0F00E63
:1002C000DBCFE9FFF10EDBCFEAFFB6EC14F039EF3C
:1002D00015F0D9CFE6FFDACFE6FFE1CFD9FFE2CFC5
:1002E000DAFFE652E652F250E66EF29E0501CF2B9F
:1002F0000501CC51CD110DE1FC0EDBCFCCF5FD0E8F
:10030000DBCFCDF50501CF0503E1BBEC0AF000D052
:1003100020D00501D3511DE1CCC5E9FFCDC5EAFFD1
:10032000160EEB50146EFC0EDBCFE9FFFD0EDBCF9B
:10033000EAFF160EE926000EEA22EF50D880145488
:1003400007E3FC0EDBCFCCF5FD0EDBCFCDF500D007
:1003500000D00501D82BFC0EDBCFE9FFFD0EDBCF73
:10036000EAFF160EE926000EEA22EFCF14F005018F
:10037000D251D88014540CE2FC0EDBCFE9FFFD0E05
:10038000DBCFEAFF160EE926000EEA22EFCFD2F508
:10039000FC0EDBCFE9FFFD0EDBCFEAFF160EE926F0
:1003A000000EEA22EF50090DF3CFE9FFF4CFEAFF88
:1003B000800EE926050EEA22EE52EECFDEFFEDCFEB
:1003C000DDFFFC0EDBCFE9FFFD0EDBCFEAFF020E07
:1003D000E926000EEA22020EE926000EEA22DECF0E
:1003E000EEFFDDCFEDFFDECFE9FFDDCFEAFF040E4C
:1003F000E926000EEA22EECF14F0EFCF15F0FC0E46
:10040000DBCFE9FFFD0EDBCFEAFF020EE926000E8F
:10041000EA22040EE926000EEA2214C0EEFF15C0FF
:10042000EDFFFC0EDBCFE9FFFD0EDBCFEAFF020E96
:10043000E926000EEA22E9CF14F0EACF15F0DECF6C
:10044000E9FFDDCFEAFF040EE926000EEA22EE50B6
:10045000EFCFEAFFE96E020EE926000EEA2214C091
:10046000EEFF15C0EDFFFC0EDBCFE9FFFD0EDBCF8D
:10047000EAFF020EE926000EEA22E9CF14F0EACFE5
:1004800015F0DECFE9FFDDCFEAFF040EE926000E0E
:10049000EA2214C0EEFF15C0EDFFFC0EDBCFE9FF32
:1004A000FD0EDBCFEAFF160EE926000EEA22EF5022
:1004B000090DF3CF14F0F4CF15F0800E1426050EBD
:1004C0001522FC0EDBCFE9FFFD0EDBCFEAFF020EAB
:1004D000E926000EEA22080EE926000EEA2214C0E0
:1004E000EEFF15C0EDFFFC0EDBCFE9FFFD0EDBCF0D
:1004F000EAFF160EE926000EEA22EF50090DF3CFAF
:10050000E9FFF4CFEAFF800EE926050EEA22EF2A82
:10051000E552E7BEF28E0501D35118E0CCC5E9FFE4
:10052000CDC5EAFF160EEB50146EFC0EDBCFE9FFD3
:10053000FD0EDBCFEAFF160EE926000EEA22EF5091
:10054000145C03E2E3EC22F000D000D0E552E55267
:10055000E552E5CFDAFFE7CFD9FF1200D9CFE6FFAA
:10056000DACFE6FFE1CFD9FFE2CFDAFFE652E6527B
:10057000F250E66EF29ED950FC0FE96EFF0EDA20C3
:10058000EA6EEE50ED1005E1CCC514F0CDC515F0C6
:1005900006D0FC0EDBCF14F0FD0EDBCF15F014C03F
:1005A000DEFF15C0DDFFDECFE9FFDDCFEAFF020E83
:1005B000E926000EEA22E9CF14F0EACF15F014C0C4
:1005C000E6FF15C0E6FF57EC27F0E552E5520009BB
:1005D00001E100D0DECFE9FFDDCFEAFF0C0EE92616
:1005E000000EEA22080EE926000EEA22EE50ED1077
:1005F00015E0DECFE9FFDDCFEAFF0C0EE926000EA5
:10060000EA22E9CF14F0EACF15F014C0E6FF15C0D6
:10061000E6FF57EC27F0E552E55200D00501D82B54
:10062000DECF14F0DDCF15F00501CC51141802E136
:10063000CD5115181DE1DECFE9FFDDCFEAFF020E37
:10064000E926000EEA22E9CF14F0EACF15F014C033
:10065000E6FF15C0E6FFC30EE66E050EE66EF6EC8D
:1006600026F0E552E552E552E5520501CE2B04D0C5
:100670000501CF0749EC0BF0E552E7BEF28EDECF65
:1006800014F0DDCF15F00501CC51141802E1CD5165
:10069000151808E0DECFE6FFDDCFE6FF36EC0BF005
:1006A000E552E5520501D3510EE0DECF14F0DDCF67
:1006B00015F00501CC51141802E1CD51151803E1D4
:1006C000E3EC22F000D0E552E552E552E5CFDAFF47
:1006D000E7CFD9FF1200B3EC12F0060EE12402E3DB
:1006E000E168E652E16E030EDB6ABCD8040ED0C5A9
:1006F000DBFF050ED1C5DBFFFA0EDBCF16F0FB0EDC
:10070000DBCF17F0CCEC12F01650EE24146E17501D
:10071000EE2014C0DEFFDD6E040EDBCF14F0050EFC
:10072000DBCF15F0CCEC12F04FEC13F007E2BDEC90
:1007300014F00FE240EC13F00CE206D0BDEC14F024
:1007400003E340EC13F005E2010EF36E030EF3CF6A
:10075000DBFFCCEC12F0DECFEEFFDDCFEDFF030EC2
:10076000DB5015E0E66ADECF16F0DDCF17F0040EA1
:10077000DB50165C146E050EDB501758156E14C056
:10078000E6FFE66E58EC12F0E552E552E5526DD800
:10079000E76E020EE7CFDBFFDB5002E1E3EC22F075
:1007A000030EDB50146E060EE15C02E2E16AE552D4
:1007B000E16E1450BCEF12F09FEC14F0DF6AD950D8
:1007C000FC0FE96EFF0EDA20EA6E000ED880EE54C0
:1007D000000EED540AE246D8E66AFC0EDBCFE6FFD7
:1007E000FD0E5DEC13F041D8DF6EDF5002E1E3EC6B
:1007F00022F0E552BCEF12F09FEC14F0DB0EE66E37
:10080000050EE66EE66A000EE66EE66A690EE66EB4
:10081000E66A9C0EE66E570EE66E620EE66E150EEA
:10082000E66E000EE66E12DC146E0C0EE15C02E267
:10083000E16AE552E16E1450DF6EDF040BE1F29ED7
:100840000501D969DA69010ED36FD06BD16B71ECF8
:1008500022F00009E552BCEF12F0F29E0501D36BC5
:10086000E2EF22F00501DE2B1200D9CFE6FFDACF4E
:10087000E6FFE1CFD9FFE2CFDAFF0B0EE12402E37E
:10088000E168E652E16EDE6ADD6A020EDB6AF25072
:10089000E66EF29E0501DE070501DE5101E0A5D2FC
:1008A0000501CF51000801E39FD20501BA5102E1D1
:1008B000010E01D0000E000901E054D2BFC5E9FFCE
:1008C000C0C5EAFF060EE926000EEA22EECFDEFFE3
:1008D000EDCFDDFFDECFE9FFDDCFEAFF0C0EE9262D
:1008E000000EEA22080EE926000EEA22030EEECFE1
:1008F000DBFF040EEDCFDBFFDECFE9FFDDCFEAFF4C
:100900000C0EE926000EEA22040EE926000EEA2269
:10091000EECF14F0EFCF15F0DECFE9FFDDCFEAFF29
:100920000C0EE926000EEA22020EE926000EEA224B
:10093000EE50EFCFEAFFE96E040EE926000EEA2240
:1009400014C0EEFF15C0EDFFDECFE9FFDDCFEAFFFB
:100950000C0EE926000EEA22020EE926000EEA221B
:10096000EECF14F0EFCF15F0DECFE9FFDDCFEAFFD9
:100970000C0EE926000EEA22040EE926000EEA22F9
:10098000EE50EFCFEAFFE96E020EE926000EEA22F2
:1009900014C0EEFF15C0EDFF030EDBCFE9FF040E20
:1009A000DBCFEAFFEE52EECF14F0EFCF15F0DECF43
:1009B000E9FFDDCFEAFF0C0EE926000EEA22E9CFBF
:1009C00016F0EACF17F01650141802E11750151858
:1009D0001BE1DECFE9FFDDCFEAFF0C0EE926000EBA
:1009E000EA22040EE926000EEA22EECF14F0EFCF41
:1009F00015F0030EDBCFE9FF040EDBCFEAFFEE526A
:100A000014C0EEFF15C0EDFFDECFE9FFDDCFEAFF3A
:100A10000C0EE926000EEA22080EE926000EEA2254
:100A2000EE6AED6A030EDBCFE9FF040EDBCFEAFFCF
:100A3000EF06DECFE9FFDDCFEAFF020EE926000E6A
:100A4000EA22080EE926000EEA22050EEECFDBFFB1
:100A5000060EEDCFDBFFDECFE9FFDDCFEAFF020EB2
:100A6000E926000EEA22040EE926000EEA22EECF65
:100A700014F0EFCF15F0DECFE9FFDDCFEAFF020E75
:100A8000E926000EEA22020EE926000EEA22EE50C6
:100A9000EFCFEAFFE96E040EE926000EEA2214C049
:100AA000EEFF15C0EDFFDECFE9FFDDCFEAFF020E5E
:100AB000E926000EEA22020EE926000EEA22EECF17
:100AC00014F0EFCF15F0DECFE9FFDDCFEAFF020E25
:100AD000E926000EEA22040EE926000EEA22EE5074
:100AE000EFCFEAFFE96E020EE926000EEA2214C0FB
:100AF000EEFF15C0EDFF050EDBCFE9FF060EDBCFE5
:100B0000EAFFEE52EECF14F0EFCF15F0DECFE9FFA3
:100B1000DDCFEAFF020EE926000EEA22E9CF16F049
:100B2000EACF17F01650141802E1175015181BE100
:100B3000DECFE9FFDDCFEAFF020EE926000EEA2252
:100B4000040EE926000EEA22EECF14F0EFCF15F0E6
:100B5000050EDBCFE9FF060EDBCFEAFFEE5214C035
:100B6000EEFF15C0EDFFDECFE9FFDDCFEAFF020E9D
:100B7000E926000EEA22080EE926000EEA22EE6AB5
:100B8000ED6A050EDBCFE9FF060EDBCFEAFFEF06CD
:100B9000DECFE9FFDDCFEAFF160EE926000EEA22DE
:100BA000EFCF14F00501D251D88014540AE2DECF01
:100BB000E9FFDDCFEAFF160EE926000EEA22EFCFAD
:100BC000D2F5DECFE9FFDDCFEAFF160EE926000EF3
:100BD000EA22EF50090DF3CFE9FFF4CFEAFF800ED0
:100BE000E926050EEA22EE52070EEECFDBFF080ED5
:100BF000EDCFDBFFDECFE9FFDDCFEAFF020EE92616
:100C0000000EEA22020EE926000EEA22070EDBCFD2
:100C1000EEFF080EDBCFEDFF070EDBCFE9FF080E7E
:100C2000DBCFEAFF040EE926000EEA22EECF14F035
:100C3000EFCF15F0DECFE9FFDDCFEAFF020EE926A8
:100C4000000EEA22040EE926000EEA2214C0EEFF8E
:100C500015C0EDFFDECFE9FFDDCFEAFF020EE9268A
:100C6000000EEA22E9CF14F0EACF15F0070EDBCF31
:100C7000E9FF080EDBCFEAFF040EE926000EEA22A8
:100C8000EE50EFCFEAFFE96E020EE926000EEA22EF
:100C900014C0EEFF15C0EDFFDECFE9FFDDCFEAFFA8
:100CA000020EE926000EEA22E9CF14F0EACF15F091
:100CB000070EDBCFE9FF080EDBCFEAFF040EE926C3
:100CC000000EEA2214C0EEFF15C0EDFFDECFE9FFF3
:100CD000DDCFEAFF160EE926000EEA22EF50090DDD
:100CE000F3CF14F0F4CF15F0800E1426050E152264
:100CF000DECFE9FFDDCFEAFF020EE926000EEA2291
:100D0000080EE926000EEA2214C0EEFF15C0EDFF22
:100D1000DECFE9FFDDCFEAFF160EE926000EEA225C
:100D2000EF50090DF3CFE9FFF4CFEAFF800EE9267B
:100D3000050EEA22EF2ADECFE9FFDDCFEAFF160E2D
:100D4000E926000EEA22EFCF14F0CCC5E9FFCDC5AD
:100D5000EAFF160EEB50145C04E30501010ED66F9A
:100D600000D0A3D5D9CFE9FFDACFEAFFEE50ED10DE
:100D700002E049EC0BF0090ED4C5DBFF0A0ED5C525
:100D8000DBFFD950090FE96E000EDA20EA6E000E83
:100D9000D880EE54000EED541CE2A7D8000904E000
:100DA0000501010ED66F00D0090EDB060A0E01E226
:100DB000DB06D950090FE96E000EDA20EA6E000E4C
:100DC000D880EE54000EED54E8E30501D46BD56BEA
:100DD00000D00501D65108E0010EF36E020EF3CFEC
:100DE000DBFFE3EC22F000D000D0E552E7BEF28E4C
:100DF000020EDB5000D0146E0B0EE15C02E2E16AE1
:100E0000E552E16E1450E552E5CFDAFFE7CFD9FFA6
:100E10001200D9CFE6FFDACFE6FFE1CFD9FFE2CF6C
:100E2000DAFFE652E652F250E66EF29ED0C5DEFFE1
:100E3000D1C5DDFFE552E7BEF28EDECF14F0DDCF87
:100E400015F014C0F3FF15C0F4FF00D0E552E552D1
:100E5000E552E5CFDAFFE7CFD9FF12007FEC14F0BF
:100E6000020EDB6AD0C5DEFFD1C5DDFF8DEC14F0CC
:100E7000E552BCEF12F00501CF5112009FEC14F0C7
:100E8000E652D950FC0F1DEC13F005E1CCC514F06F
:100E9000CDC515F006D0FC0EDBCF14F0FD0EDBCF78
:100EA00015F014C0DEFF15C0DDFF42EC14F0E5ECD8
:100EB00013F0E9CFF3FFEACFF4FFE552E552BCEFC0
:100EC00012F09FEC14F0CEDCFC0EDBCF08F0FD0E30
:100ED000DBCF09F008500501D4270950D523C5DC24
:100EE000DF6EDF50E552BCEF12F0B3EC12F00F0EE4
:100EF000E12402E3E168E652E16E040EDB6A0501DB
:100F0000DE5101E0E0D0010E156AD025146ED151FA
:100F10001522050E14C0DBFF060E15C0DBFF050E03
:100F2000DBCFD0F5060EDBCFD1F5D950050FE96E3A
:100F3000000EDA20EA6EEE50ED1012E1070EB6C593
:100F4000DBFF080EB7C5DBFFB8C5B6F5B9C5B7F509
:100F5000070EDBCFB8F5080EDBCFB9F5D72B99DB41
:100F6000D2EC13F00501D951145CDA51155801E2A5
:100F70009CD0B1EC13F0EF50000902E1010E01D05A
:100F8000000E000903E0D969DA698FD0B1EC13F0E3
:100F900095EC14F09BEC12F0D9EC13F0D2EC13F0BA
:100FA00081EC13F007E2020EDBCFD9F5030EDBCFA5
:100FB000DAF57BD09BEC12F0080EE7EC13F0EECFE5
:100FC000DBFF0A0EEEEC13F056EC15F050EC14F0CB
:100FD00009E11750151806E17BEC15F056EC15F0F9
:100FE000EEEC12F040EC15F056EC15F0BDEC13F001
:100FF0003DEC15F0EE50ED1029E03DEC15F00B0E38
:10100000EECFDBFF0C0EEDCFDBFFC9EC13F039ECBC
:1010100014F0D8EC14F006EC13F0C9EC13F033EC38
:1010200013F00BE11750151808E1A1EC12F018ECC1
:1010300015F0D8EC14F0EEEC12F0A1EC12F013EC79
:1010400013F0D8EC14F0DBCFEAFFEF06A4EC12F0BB
:1010500075EC13F002E282EC14F025EC15F00D0EA5
:10106000EECFDBFF0E0E6DEC15F00D0EDBCFEEFFBD
:101070000E0EDBCFEDFF0D0EDBCFE9FF0E0E4BECBE
:1010800015F057EC14F02FEC15F057EC14F0F0ECD1
:1010900014F0A4EC12F0EFCF14F0DDEC14F0145CBB
:1010A00001E267D7A6EC13F064D7DDEC14F0C2ECD4
:1010B00012F0EF50010802E2A6EC13F0D65106E060
:1010C000A6EC13F003D0D42B000ED523040EDB5076
:1010D000146E0F0EE15C02E2E16AE552E16E14501B
:1010E000BCEF12F07FEC14F00501DE5103E0010EBD
:1010F000D66F35D0D66BD2C5DFFFDF50C2EC12F011
:10110000EF5002E1010E01D0000E000902E0DF06FF
:10111000F4D7DF50FFEC12F0010E14C0DBFF020E1B
:1011200015C0DBFF71EC14F043EC15F006EC13F086
:10113000C1EC14F0B6EC13F033EC13F005E11750EA
:10114000151802E171EC14F024EC13F0060E00EC1B
:1011500015F0EECFCCF5EDCFCDF5DFCFD2F539EFF1
:1011600015F0B3EC12F048EC15F0D3EC12F0C5EC2E
:1011700014F08CEC13F0010EE66EFA0EDBCFE6FFF6
:10118000FB0E5DEC13F0BCEF12F09FEC14F0E65296
:1011900096EC13F048EC15F09EEC12F0CCEC12F04B
:1011A000EE52EECFDEFFEDCFDDFF54EC14F09FECFE
:1011B00013F042EC14F018EC15F054EC14F0040E9B
:1011C0001FEC15F02FEC15F01FEC15F09EEC12F053
:1011D00054EC14F047EC14F0FC0EDBCFEEFFFD0EE8
:1011E000DBCFEDFFCCEC12F0EF2A010EE66EF80E2D
:1011F000DBCFE6FFF90E5DEC13F0E552E552BCEFF4
:1012000012F0B3EC12F00B0EE12402E3E168E652B7
:10121000E16ECCEC12F095EC14F03DEC15F0030E01
:10122000EECFDBFF040EEDCFDBFFA1EC12F039ECCB
:1012300014F0E1EC14F006EC13F0A1EC12F033EC36
:1012400013F00BE11750151808E1A1EC12F018EC9F
:1012500015F0E1EC14F0EEEC12F0A1EC12F013EC4E
:1012600013F0E1EC14F0BDEC13F00501DE5110E1D8
:1012700004EC15F005E11750151802E177EC14F0B5
:1012800064EC14F002E282EC14F0F8EC13F002D0FB
:1012900024EC14F04AEC14F009E2010EF36E020E95
:1012A000F3CFDBFF0501010ED66F02D0020EDB6A21
:1012B000020EDB50146E0B0EE15C02E2E16AE552B5
:1012C000E16E1450BCEF12F0B3EC12F0080EE12402
:1012D00002E3E168E652E16E96EC13F0CCEC12F01A
:1012E000EBEC14F0CCEC12F0060E17EC13F0CCEC97
:1012F00012F047EC14F0D9EC13F0CCEC12F018EC2F
:1013000015F0CCEC12F02AEC15F0CCEC12F0020E39
:10131000A7EC12F0CCEC12F071EC15F0E6EC14F046
:1013200006EC13F0FC0EDB5014180CE1FD0EDB5044
:10133000151808E1CCEC12F018EC15F0E6EC14F0FE
:10134000EEEC12F0CCEC12F0080EEB6A090EEB6A30
:10135000E6EC14F0BDEC13F00EEC15F005E11750BF
:10136000151802E17BEC14F06CEC14F0EFCF14F0E4
:101370000501D251D880145402E282EC14F00EEC34
:1013800014F04AEC14F002E2010ED66F080EE15C94
:1013900002E2E16AE552E16EBCEF12F0D9CFE6FF5E
:1013A000DACFE6FFE1CFD9FFE2CFDAFFF250E66E07
:1013B000F29EFC0EDBCFE9FFFD0EDBCFEAFFD7C5C7
:1013C000EFFFFC0EDBCFE9FFFD0EDBCFEAFFEE52B5
:1013D000D0C5EEFFD1C5EDFFE552E7BEF28EE55276
:1013E000E5CFDAFFE7CFD9FF1200B3EC12F0CCEC77
:1013F00012F0D7C5EFFFCCEC12F0EE52D0C5EEFFE5
:10140000D1C5EDFFBCEF12F0D9CFE6FFDACFE6FF92
:10141000E1CFD9FFE2CFDAFFE652E652E652E652DA
:10142000E652F250E66EF29E010ED0C5DBFF020ED0
:10143000D1C5DBFF010EDBCF16F0020EDBCF17F0BC
:10144000FC0EDBCFE9FFFD0EDBCFEAFFEE52EE50E4
:10145000165C146EEE501758156E030E14C0DBFFA9
:10146000040E15C0DBFFFC0EDBCFE9FFFD0EDBCF6A
:10147000EAFFEF500501D75D23E0010EDBCF14F04A
:10148000020EDBCF15F0FC0EDBCFE9FFFD0EDBCF4C
:10149000EAFFEECF16F0EECF17F0EFCF18F0000115
:1014A0001750145C185015580BE3010EDF6EFA0E3E
:1014B000DBCFE9FFFB0EDBCFEAFFEE6AED6A3AD045
:1014C000030EDBCF14F0040EDBCF15F0FA0EDBCFEA
:1014D000E9FFFB0EDBCFEAFFEECF16F0EFCF17F000
:1014E0001650145C175015581BE2030EDBCF14F096
:1014F000040EDBCF15F0FA0EDBCFE9FFFB0EDBCFDE
:10150000EAFF1450EE5E1550ED5AFC0EDBCFE6FFFD
:10151000FD0EDBCFE6FF69DFE552E552DF6A0AD058
:10152000FA0EDBCFE9FFFB0EDBCFEAFFEE6AED6AD6
:10153000010EDF6EE552E7BEF28EDF5000D0146E72
:10154000050EE15C02E2E16AE552E16E1450E552FB
:10155000E5CFDAFFE7CFD9FF12000501010ED66F04
:101560001200B3EC12F03AD8050180510108FBE2F9
:10157000E3EC22F0F8D79FEC14F0DF6A040EDF5C96
:101580000DE2DF50FFEC12F014C0E6FF15C0E6FFDD
:10159000E0EC26F0E552E552DF2AF0D7A40EE66E25
:1015A000050E7BEC13F0AD0EE66E050E7BEC13F032
:1015B000BA0EE66E050E7BEC13F0C30EE66E050E5A
:1015C0007BEC13F00501A40EB66F050EB76FAD0EE0
:1015D000B86F050EB96FE552BCEF12F0D9CFE6FF38
:1015E000DACFE6FFE1CFD9FFE2CFDAFFE652E652EB
:1015F0000501CE51000832E2F250E66EF29EC8C5F7
:10160000E9FFC9C5EAFF060EE926000EEA22EECF81
:10161000DEFFEDCFDDFFDECFE9FFDDCFEAFF020E1B
:10162000E926000EEA22E9CF14F0EACF15F014C043
:10163000E6FF15C0E6FF57EC27F0E552E55205013D
:10164000CF070501CE07E552E7BEF28EDECFE6FFFB
:10165000DDCFE6FF0BD8E552E552CAD7E552E55299
:10166000E552E5CFDAFFE7CFD9FF1200B3EC12F075
:10167000CCEC12F0170E00EC15F0EECFE6FFEFCF3A
:10168000E6FFE0EC13F0C5EC14F0E0EC13F0BCEF77
:1016900012F0B1EC13F0EF50000902E1010E01D09D
:1016A000000E000904E00501D969DA691200B1EC05
:1016B00013F0B6EC13F0020EADEC12F0EECFD9F54C
:1016C000EDCFDAF512009FEC14F0E65248EC15F07D
:1016D00017EC13F0DDEC14F0C1EC13F048EC15F04E
:1016E0009EEC12F08DEC14F0BCEF12F0D9CFE6FFB7
:1016F000DACFE6FFE1CFD9FFE2CFDAFFE652E652DA
:10170000E652E652F250E66EF29ECCC5E9FFCDC538
:10171000EAFF1F0EE926000EEA22E9CF18F0EACF11
:1017200019F0FD0EDB50040D1850F324E96E19502A
:10173000F420EA6EEECF14F0EECF15F0EECF16F0F7
:10174000EFCF17F0145015101610171033E1CCC559
:10175000E9FFCDC5EAFF230EE926000EEA22E9CF14
:1017600014F0EACF15F0FD0EDB500F011424E96EE2
:10177000000E1520EA6E010EEF6ED950FA0FE96ED9
:10178000FF0EDA20EA6E000ED880EE54000EED5403
:1017900010E2010EE66EFA0EDBCFE6FFFB0EDBCFAA
:1017A000E6FF58EC12F0E552E552E552E3EC22F088
:1017B00000D000D0E552E7BEF28EF250E66EF29E07
:1017C000CCC5E9FFCDC5EAFF1F0EE926000EEA22CF
:1017D000E9CF14F0EACF15F0FD0EDB50040D1450E4
:1017E000F324E96E1550F420EA6EEECFDFFF010E10
:1017F000EECFDBFF020EEECFDBFF030EEECFDBFF03
:10180000D9CFE9FFDACFEAFFEECF14F0EECF15F033
:10181000EECF16F0EFCF17F014501510161017106A
:101820004EE0FC0EDB501AE0CCC5E9FFCDC5EAFF67
:101830001F0EE926000EEA22E9CF14F0EACF15F0D8
:10184000FD0EDB50040D1450F324E96E1550F42006
:10185000EA6EEE6AEE6AEE6AEE6A30D0D9CFE9FF40
:10186000DACFEAFFEECF16F0EECF17F0EECF18F09A
:10187000EFCF19F01606000E175A000E185A000E78
:10188000195ACCC5E9FFCDC5EAFF1F0EE926000EA7
:10189000EA22E9CF14F0EACF15F0FD0EDB50040D7B
:1018A0001450F324E96E1550F420EA6E16C0EEFFD2
:1018B00017C0EEFF18C0EEFF19C0EEFF00D0CCC578
:1018C000E9FFCDC5EAFF230EE926000EEA22E9CFA3
:1018D00014F0EACF15F0FD0EDB500F011424E96E71
:1018E000000E1520EA6EEF6AE552E7BEF28EDECFFB
:1018F00006F0DECF07F0DECF08F0DDCF09F0DD52D5
:10190000DD5200D0040EE15C02E2E16AE552E16ED4
:10191000E552E5CFDAFFE7CFD9FF1200D9CFE6FFD6
:10192000DACFE6FFE1CFD9FFE2CFDAFFE652F2509D
:10193000E66EF29ECCC5E9FFCDC5EAFF230EE9268F
:10194000000EEA22E9CF14F0EACF15F0FD0EDB50CD
:101950000F011424E96E000E1520EA6EEF50020804
:1019600060E0F90EDBCF16F0FA0EDBCF17F0FB0EBE
:10197000DBCF18F0FC0EDBCF19F0161E171E181E59
:10198000191ECCC5E9FFCDC5EAFF1F0EE926000EE2
:10199000EA22E9CF14F0EACF15F0FD0EDB50040D7A
:1019A0001450F324E96E1550F420EA6E1650EE162A
:1019B0001750EE161850EE161950EE16CCC5E9FF6A
:1019C000CDC5EAFF230EE926000EEA22E9CF14F086
:1019D000EACF15F0FD0EDB500F011424E96E000E66
:1019E0001520EA6E010EEF6ED950F10FE96EFF0E71
:1019F000DA20EA6E000ED880EE54000EED5410E2AC
:101A0000010EE66EF10EDBCFE6FFF20EDBCFE6FF56
:101A100058EC12F0E552E552E552E3EC22F000D02A
:101A200000D0E552E7BEF28EF250E66EF29ED9503B
:101A3000F30FE96EFF0EDA20EA6EEE50ED102BE0A8
:101A4000CCC5E9FFCDC5EAFF1F0EE926000EEA224C
:101A5000E9CF18F0EACF19F0FD0EDB50040D185055
:101A6000F324E96E1950F420EA6EEECF14F0EECFB5
:101A700015F0EECF16F0EFCF17F0F30EDBCFE9FF46
:101A8000F40EDBCFEAFF14C0EEFF15C0EEFF16C068
:101A9000EEFF17C0EEFFCCC5E9FFCDC5EAFF230E70
:101AA000E926000EEA22E9CF14F0EACF15F0FD0E88
:101AB000DB500F011424E96E000E1520EA6EEF5082
:101AC000020802E0DF6A2FD0F50EDBCF16F0F60E2B
:101AD000DBCF17F0F70EDBCF18F0F80EDBCF19F0E5
:101AE000161E171E181E191ECCC5E9FFCDC5EAFF2C
:101AF0001F0EE926000EEA22E9CF14F0EACF15F016
:101B0000FD0EDB50040D1450F324E96E1550F42043
:101B1000EA6E1650EE161750EE161850EE161950C3
:101B2000EE16010EDF6ECCC5E9FFCDC5EAFF230E30
:101B3000E926000EEA22E9CF14F0EACF15F0FD0EF7
:101B4000DB500F011424E96E000E1520EA6EEF6AD7
:101B5000E552E7BEF28EDF5000D0E552E552E5CF08
:101B6000DAFFE7CFD9FF1200D9CFE6FFDACFE6FFE1
:101B7000E1CFD9FFE2CFDAFF080EE12402E3E1680A
:101B8000E652E16E010EF36E020EF3CFDBFFFC0EA8
:101B9000DBCFDEFFDBCFDDFFF250E66EF29ED950E9
:101BA000F40FE96EFF0EDA20EA6EEE50ED102BE036
:101BB000DECFE9FFDDCFEAFF1F0EE926000EEA22A5
:101BC000E9CF18F0EACF19F0FB0EDB50040D1850E6
:101BD000F324E96E1950F420EA6EEECF14F0EECF44
:101BE00015F0EECF16F0EFCF17F0F40EDBCFE9FFD4
:101BF000F50EDBCFEAFF14C0EEFF15C0EEFF16C0F6
:101C0000EEFF17C0EEFFDECFE9FFDDCFEAFF230EC8
:101C1000E926000EEA22E9CF14F0EACF15F0FB0E18
:101C2000DB500F011424E96E000E1520EA6E030E3E
:101C3000EFCFDBFFDECFE9FFDDCFEAFF230EE926A2
:101C4000000EEA22E9CF14F0EACF15F0FB0EDB50CC
:101C50000F011424E96E000E1520EA6E020EEF6EDD
:101C6000F60EDB5001E191D0040A66E0070A42E07B
:101C7000010A25E0030A01E089D0DECFE9FFDDCFCC
:101C8000EAFF1F0EE926000EEA22E9CF14F0EACFA0
:101C900015F0FB0EDB50040D1450F324E96E1550C3
:101CA000F420EA6EF70EDB50EE12F80EDB50EE1267
:101CB000F90EDB50EE12FA0EDB50EE1268D0DECFDA
:101CC000E9FFDDCFEAFF1F0EE926000EEA22E9CF89
:101CD00014F0EACF15F0FB0EDB50040D1450F32482
:101CE000E96E1550F420EA6EEE2A000EEE22EE2286
:101CF000EE224DD0DECFE9FFDDCFEAFF1F0EE92651
:101D0000000EEA22E9CF14F0EACF15F0FB0EDB500B
:101D1000040D1450F324E96E1550F420EA6EF70E0A
:101D2000DBCFEEFFF80EDBCFEEFFF90EDBCFEEFFE1
:101D3000FA0EDBCFEEFF2BD0030EDB50020822E0C1
:101D4000DECFE9FFDDCFEAFF1F0EE926000EEA2213
:101D5000E9CF14F0EACF15F0FB0EDB50040D145060
:101D6000F324E96E1550F420EA6EF70EDBCFEEFF98
:101D7000F80EDBCFEEFFF90EDBCFEEFFFA0EDBCF76
:101D8000EEFF02D0020EDB6A02D001D000D0030EBB
:101D9000DB0401E099D1DECFE9FFDDCFEAFF020EDF
:101DA000E926000EEA22080EE926000EEA22040EB9
:101DB000EECFDBFF050EEDCFDBFFDECFE9FFDDCFA2
:101DC000EAFF020EE926000EEA22040EE926000EC2
:101DD000EA22EECF14F0EFCF15F0DECFE9FFDDCF32
:101DE000EAFF020EE926000EEA22020EE926000EA4
:101DF000EA22EE50EFCFEAFFE96E040EE926000E6C
:101E0000EA2214C0EEFF15C0EDFFDECFE9FFDDCF03
:101E1000EAFF020EE926000EEA22020EE926000E73
:101E2000EA22EECF14F0EFCF15F0DECFE9FFDDCFE1
:101E3000EAFF020EE926000EEA22040EE926000E51
:101E4000EA22EE50EFCFEAFFE96E020EE926000E1D
:101E5000EA2214C0EEFF15C0EDFF040EDBCFE9FF50
:101E6000050EDBCFEAFFEE52EECF14F0EFCF15F008
:101E7000DECFE9FFDDCFEAFF020EE926000EEA22FF
:101E8000E9CF16F0EACF17F01650141802E11750F8
:101E900015181BE1DECFE9FFDDCFEAFF020EE926D0
:101EA000000EEA22040EE926000EEA22EECF14F01C
:101EB000EFCF15F0040EDBCFE9FF050EDBCFEAFF15
:101EC000EE5214C0EEFF15C0EDFFDECFE9FFDDCF0F
:101ED000EAFF020EE926000EEA22080EE926000EAD
:101EE000EA22EE6AED6A040EDBCFE9FF050EDBCFD6
:101EF000EAFFEF06DECFE9FFDDCFEAFF160EE926A7
:101F0000000EEA22EFCF14F00501D251D88014540C
:101F10000AE2DECFE9FFDDCFEAFF160EE926000E6A
:101F2000EA22EFCFD2F5DECFE9FFDDCFEAFF160ED2
:101F3000E926000EEA22EF50090DF3CFE9FFF4CFB6
:101F4000EAFF800EE926050EEA22EE52060EEECFDB
:101F5000DBFF070EEDCFDBFFDECFE9FFDDCFEAFFD2
:101F6000020EE926000EEA22020EE926000EEA22FF
:101F7000060EDBCFEEFF070EDBCFEDFF060EDBCF4D
:101F8000E9FF070EDBCFEAFF040EE926000EEA2286
:101F9000EECF14F0EFCF15F0DECFE9FFDDCFEAFF93
:101FA000020EE926000EEA22040EE926000EEA22BD
:101FB00014C0EEFF15C0EDFFDECFE9FFDDCFEAFF75
:101FC000020EE926000EEA22E9CF14F0EACF15F05E
:101FD000060EDBCFE9FF070EDBCFEAFF040EE92692
:101FE000000EEA22EE50EFCFEAFFE96E020EE9267C
:101FF000000EEA2214C0EEFF15C0EDFFDECFE9FFB0
:10200000DDCFEAFF020EE926000EEA22E9CF14F046
:10201000EACF15F0060EDBCFE9FF070EDBCFEAFFB4
:10202000040EE926000EEA2214C0EEFF15C0EDFFF3
:10203000DECFE9FFDDCFEAFF160EE926000EEA2229
:10204000EF50090DF3CF14F0F4CF15F0800E1426E5
:10205000050E1522DECFE9FFDDCFEAFF020EE926ED
:10206000000EEA22080EE926000EEA2214C0EEFF56
:1020700015C0EDFFDECFE9FFDDCFEAFF160EE92642
:10208000000EEA22EF50090DF3CFE9FFF4CFEAFF8B
:10209000800EE926050EEA22EF2ADECFE9FFDDCF2A
:1020A000EAFF160EE926000EEA22EFCF14F0CCC5A7
:1020B000E9FFCDC5EAFF160EEB50D880145403E2B9
:1020C000E3EC22F000D000D0E552E7BEF28E020E23
:1020D000DB5000D0146E080EE15C02E2E16AE552CA
:1020E000E16E1450E552E5CFDAFFE7CFD9FF1200D9
:1020F0003ADA0B0EE12402E3E168E652E16E010EEA
:10210000F36E030EF3CFDBFFFC0EDBCFDEFFDBCF86
:10211000DDFF040EDB6AD950F40F8FDA17E04ADADC
:10212000EECF14F0EECF15F0EECF16F0EFCF17F0A4
:10213000F40EDBCFE9FFF50EDBCFEAFF14C0EEFFB4
:1021400015C0EEFF16C0EEFF17C0EEFFA9EC14F0AD
:10215000F60EDB502CE0040A16E0070A18E0010A2C
:1021600010E0030A24E126DAF70EDB50EE12F80E37
:10217000DB50EE12F90EDB50EE12FA0EDB50EE12CF
:1021800016D0EDDB14D0020EDB5002080EE012DA9E
:10219000F70EDBCFEEFFF80EDBCFEEFFF90EDBCF55
:1021A000EEFFFA0EDBCFEEFF02D0030EDB6A020E6B
:1021B000DB0421E10501DE510CE104EC15F004E142
:1021C0001750151801E193DB7FDB01E29BDB10DB8D
:1021D00001D03ADB5FDB0FE2D950F20F2EDA08E0D4
:1021E000F20EDBCFE9FFF30EDBCFEAFF010EEF6E5D
:1021F0000501010ED66F030EDB50146E0B0EE15C71
:1022000002E2E16AE552E16E1450B6D1ACD90A0E91
:10221000E12402E3E168E652E16EFC0EDBCFDEFF73
:10222000DBCFDDFF030EDB6A94DB99DB020EDB0400
:1022300034E10501DE510CE1F1DB04E11750151822
:1022400001E159DB49DB51DA01E25CDBE7DA19D065
:10225000080EBBC5DBFF090EBCC5DBFF72D9020E41
:10226000CFDB080EDBCFEEFF090EDBCFEDFF080E54
:10227000DBCFE9FF090E75EC15F01FDBF0DB1DDB92
:10228000F5DB08DB0AE2D950F90FD7D903E084DB8C
:10229000010EEF6E0501010ED66F0A0EE15C02E23F
:1022A000E16AE552E16E68D1D9CFE6FFDACFE6FF09
:1022B000E1CFD9FFE2CFDAFFE652E652E652D9503B
:1022C000FC0FE96EFF0EDA20EA6EEE50ED1005E12C
:1022D000CCC514F0CDC515F006D0FC0EDBCF14F044
:1022E000FD0EDBCF15F014C0DEFF15C0DDFFF25090
:1022F000E66EF29EDECFE9FFDDCFEAFF230EE92690
:10230000000EEA22E9CF14F0EACF15F0FB0EDB5005
:102310000F011424E96E000E1520EA6EEF5002083A
:102320001BE1DECFE9FFDDCFEAFF230EE926000E39
:10233000EA22E9CF14F0EACF15F0FB0EDB500F01D3
:102340001424E96E000E1520EA6EEF6A010EF36E9A
:10235000020EF3CFDBFF02D0020EDB6AE552E7BECE
:10236000F28E020EDB5000D0E552E552E552E55206
:10237000E5CFDAFFE7CFD9FF1200D9CFE6FFDACFFA
:10238000E6FFE1CFD9FFE2CFDAFF060EE12402E358
:10239000E168E652E16ED950FC0FE96EFF0EDA20DB
:1023A000EA6EEE50ED1005E1CCC514F0CDC515F088
:1023B00006D0FC0EDBCF14F0FD0EDBCF15F014C001
:1023C000DEFF15C0DDFFF250E66EF29EDECFE9FFC4
:1023D000DDCFEAFF1F0EE926000EEA22E9CF14F056
:1023E000EACF15F0FB0EDB50040D1450F324E96E18
:1023F0001550F420EA6E020EEECFDBFF030EEECF97
:10240000DBFF040EEECFDBFF050EEECFDBFFF70E9A
:10241000DBCF16F0F80EDBCF17F0F90EDBCF18F09C
:10242000FA0EDBCF19F0161E171E181E191EDECF6E
:10243000E9FFDDCFEAFF1F0EE926000EEA22E9CF11
:1024400014F0EACF15F0FB0EDB50040D1450F3240A
:10245000E96E1550F420EA6E1650EE161750EE167F
:102460001850EE161950EE16E552E7BEF28E020E27
:10247000DBCF14F0030EDBCF15F0040EDBCF16F02C
:10248000050EDBCF17F014C006F015C007F016C01C
:1024900008F017C009F000D0060EE15C02E2E16A24
:1024A000E552E16EE552E5CFDAFFE7CFD9FF120042
:1024B00026DAE652020ED0C5DBFF030ED1C5DBFFE4
:1024C0003ADA57EC27F0E552E5520009FC0EDBCF73
:1024D00016F0FD0EDBCF17F0020EDB501624146E43
:1024E000030EDB501720156E14C0DEFFDD6E96D88C
:1024F00026D9EAD806D907E21EDAB8C5E6FFB9C57B
:10250000E6FF0AD911D017DAB6C5E6FFB7C5E6FF70
:1025100003D9DAD80501D951145CDA51155804E20F
:10252000DECFD9F5DDCFDAF5040EE15C02E2E16A37
:10253000E552E16E21D0A6D9020ECCD161DAEBEFE3
:1025400014F0A0D90C0EC6D19DD9160EC3D158DAFD
:10255000EECF14F0EFCF15F0120052DAEE50EFCFBD
:10256000EAFFE96E1200D9CFE6FFDACFE6FFE1CF4E
:10257000D9FFE2CFDAFF1200E552E5CFDAFFE7CF6D
:10258000D9FF1200090DF3CFE9FFF4CFEAFF800E67
:10259000E926050EEA221200FC0EDBCFE9FFFD0E54
:1025A000DBCFEAFF12002CDA7CDAE9CFE6FFEACFD4
:1025B000E6FF120067D91F0E23DAFB0EDB50040D75
:1025C000E950F324E96EEA50F420EA6E1200EE0EB0
:1025D000DBCFE9FFEF0EDBCFEAFF1200DBCFEAFF34
:1025E000EE52EBEF14F04ED9230E0ADAFB0EDB505D
:1025F000E924E96E000EEA20EA6E020E1200090DCF
:10260000D2D9800E1426050E15221200DBCFEAFF68
:10261000EE52EECF14F0EFCF15F01200CCC5E9FF6B
:10262000CDC5EAFF120033D9EE6AED6A1200E8D98F
:10263000EECFDEFFEDCFDDFF1200E96EFF0EDA20F8
:10264000EA6EEE50ED1012009CD9EE52EE50EFCF34
:10265000EAFFE96E12001BD9BA0EEE6E050EED6EA2
:102660000501BA2B1200EACF17F0E9501418120036
:10267000020EDB50E76E90D9E750C2D9EF5012003E
:10268000DECF18F0DDCF19F0040EDBCF1AF0050E07
:10269000DBCF1BF018501A5C19501B581200EECFFC
:1026A00016F0EFCF17F01650145C175015581200A3
:1026B000A7D9060EA5D9B6EF14F0DBCFE6FFF8DEFA
:1026C000E552E552E5521200DECF14F0DDCF15F0F1
:1026D0001200DBCFE6FFFB0EDBCFE6FFFC0EDBCF0D
:1026E000E6FFFD0EDBCFE6FF1200EFCF14F0D25174
:1026F000D88014541200E66EE0EC26F0E552E55264
:102700001200020EDBCF16F0030EDBCF17F01650CF
:10271000145C1750155812000DEC27F0E552E552E5
:10272000E552E5521200AED8170ED4D0FA0EDBCF28
:1027300014F0FB0EDBCF15F0800E15121200020E06
:102740005FD9DECFEEFFDDCFEDFF1200010EF36E9D
:10275000040EF3CFDBFF1200DECFE6FFDDCFE6FF96
:102760001200B6C5E9FFB7C5EAFF1200030EB2D0EA
:10277000160EEB50D88014541200DBCFEAFFEF06A0
:102780001200146E156A040ED8801456000E1556E9
:10279000120078D89FD0D9CFE9FFDACFEAFFEE5008
:1027A000ED101200050EDBCF14F0060EDBCF15F096
:1027B0001200020EEECFDBFF030EEDCFDBFF1200A7
:1027C000E6EC29F0E552E5521200190E83D018D933
:1027D000090E1200E652E652E652120043D928D9F9
:1027E000AADE38D9A8DE020EB2DEA5DE71EF15F042
:1027F0002CD9070EEECFDBFF080E6FD9070EDBCF0B
:10280000EEFF080EDBCFEDFF070EDBCFE9FF080E72
:1028100042D951D924D94FD9F0EF14F016D9060E68
:10282000EECFDBFF070E59D9060EDBCFEEFF070E0A
:10283000DBCFEDFF060EDBCFE9FF070E2CD944D925
:102840000ED942D9F0EF14F0090EBBC5DBFF0A0E1A
:10285000BCC5DBFF76DE020EBADFDBCFEEFF0A0E71
:10286000DBCFEDFF23D941D9E6D8F9D8E4D836EF4C
:1028700015F0DED866DEEED864DE020E68DE61DEBC
:1028800071EF15F0DECFE9FFDDCFEAFF1200080E91
:1028900000EF15F059DEEFCF14F0C0DEB8EF13F003
:1028A000B5DE49DE33EF13F0F3D800EF15F0A4D80E
:1028B0000D0EDBCFE9FF0E0E21D124D9F2D8080E80
:1028C000DBCFE9FF090E1AD1DBD81FD956DF3CDE7A
:1028D00075EF13F000EF15F0D3D81CD94EDFA4EF3D
:1028E00012F0B2DE020E33DECED8EEEF12F003D9D4
:1028F0000CD9EEEF12F0FFD80DD9EEEF12F033DE67
:10290000EAEF13F021DEEFCFD2F512004CDEF3EC4C
:1029100026F0E552E552E7EF12F0D6DE14C0F3FFE1
:1029200015C0F4FFE552E552120020DF020E15DE5D
:10293000060E17EF13F072DE020ED3EF12F013DE65
:10294000E652120030DED7EC2AF0166E050EE15C7E
:10295000120049DEEFCFDBFF46DEEF6E12002ADE0B
:10296000EE2A000EEE22EE22EE221200EE0EDBCF59
:10297000EEFFEF0EDBCFEDFF1200A6DE0DDE4FEF18
:1029800013F081D8DBCFEAFF1200FC0EDBCFE6FFAD
:10299000FD0EDBCFE6FF1200F90EDBCFE9FFFA0EEA
:1029A000DBCFEAFF1200F3CF14F0F4CF15F01200E2
:1029B0000B0EDBCFE9FF0C0E120030DE160EEB50D3
:1029C0001200030EDBCFE9FF040E1200020EDBCF74
:1029D000E9FF030E120014C0EEFF15C0EDFF120058
:1029E000ADDDB2DDEF500BDEA6DD080EA7DDACDD00
:1029F000EF50C8DDEF2A1200A1DD9DDD51EF15F08B
:102A0000E926000EEA22120096DD41DF050EEECF28
:102A1000DBFF060EE3DE79D850EF14F08CDD37DFF4
:102A2000040EEECFDBFF050ED9DE74D850EF14F0A4
:102A3000040EA7EF12F066D834D838D85FD07EDD08
:102A400033DF2FD81FDF040E12007EDDEF509ADD3A
:102A5000EE521200020E81DD040E9EEF12F07DDDBB
:102A6000020E1200EDCFDBFF9BEF12F04BD82BEFE5
:102A700013F0E552E552E5527FD563DD47EF14F0E0
:102A80005ADD13EF13F0010EDBCFE9FF020E120047
:102A9000C5DD0C0E1200DBCFEAFFCADF4CDD040EF1
:102AA0001200E9CF14F0EACF15F01200090EDBCFC7
:102AB000E9FF0A0E1200A0DF070EDBCFE9FF080EC8
:102AC000DBCFEAFF040E120097DF060EDBCFE9FF33
:102AD000070EDBCFEAFF040E1200C4DF020E00EF88
:102AE00015F0040EBCDF9EEF12F0DBCFEAFFA0DF93
:102AF00028DD040E12001FDD18EF15F0DBCFEAFF12
:102B0000040E12001BDDA1EF12F0050EDBCFE9FF72
:0E2B1000060E1200040EDBCFE9FF050E1200C8
:022B1E00D9CF0D
:102B2000E6FFDACFE6FFE1CFD9FFE2CFDAFFE652E8
:102B3000E652E652010EDF6EFC0EDBCF08F0FD0E12
:102B4000DBCF09F0DE5208C0DEFF09C0DDFFDD5239
:102B5000D950010FE96E000EDA20EA6EEE50ED104A
:102B600001E13FD1010EDBCFE9FF020EDBCFEAFF2F
:102B70001B0EE926000EEA22EFCF14F0010E145CC2
:102B800001E22FD10A0E166E010EDBCFE9FF020E15
:102B9000DBCFEAFF1B0EE926000EEA22EFCF17F08B
:102BA00017C00EF016C009F0C0EC2BF009C015F0EC
:102BB000010EDBCFE9FF020EDBCFEAFF1C0EE92698
:102BC000000EEA22EF50155C01E20BD1F250E66EE6
:102BD000F29E010EDBCFE9FF020EDBCFEAFF1C0EF7
:102BE000E926000EEA22EFCF18F0010EDBCFE9FF55
:102BF000020EDBCFEAFF1B0EE926000EEA22EF50A1
:102C00001802F350166E176A010EDBCFE9FF020EB1
:102C1000DBCFEAFF1650EE24146E1750EE20156E2F
:102C2000010EDBCFE9FF020EDBCFEAFF040EE9263F
:102C3000000EEA2214C0EEFF15C0EDFF010EDBCF3F
:102C4000E9FF020EDBCFEAFF1A0EE926000EEA22A8
:102C5000EF6A010EDBCFE9FF020EDBCFEAFFEECF1A
:102C600014F0EFCF15F0010EDBCFE9FF020EDBCF42
:102C7000EAFF020EE926000EEA2214C0EEFF15C09C
:102C8000EDFF010EDBCFE9FF020EDBCFEAFF1C0EEA
:102C9000E926000EEA22EFCF18F0010EDBCFE9FFA4
:102CA000020EDBCFEAFF1B0EE926000EEA22EF043C
:102CB0001802F350166E176A010EDBCFE9FF020E01
:102CC000DBCFEAFF1650EE24146E1750EE20156E7F
:102CD000010EDBCFE9FF020EDBCFEAFF040EE9268F
:102CE000000EEA22020EE926000EEA2214C0EEFFD0
:102CF00015C0EDFF010EDBCFE9FF020EDBCFEAFFCF
:102D00001D0EE926000EEA22EF68010EDBCFE9FF77
:102D1000020EDBCFEAFF1E0EE926000EEA22EF6864
:102D2000FB0EDB502EE1010EDBCFE9FF020EDBCF05
:102D3000EAFF080EE926000EEA22EF5002E1010E3A
:102D400001D0000E00091CE1010EDBCFE9FF020EED
:102D5000DBCFEAFF080EE926000EEA22E9CF14F0E5
:102D6000EACF15F014C0E6FF15C0E6FF01EC09F04C
:102D7000E552E552000903E0E3EC22F000D000D078
:102D80002CD0010EDBCFE9FF020EDBCFEAFF080EED
:102D9000E926000EEA22E9CF14F0EACF15F014C0BC
:102DA000E6FF15C0E6FFE0EC26F0E552E552010E25
:102DB000DBCFE9FF020EDBCFEAFF110EE926000EA2
:102DC000EA22E9CF14F0EACF15F014C0E6FF15C0EF
:102DD000E6FFE0EC26F0E552E552E552E7BEF28E62
:102DE00001D0DF6ADF5000D0E552E552E552E552EE
:102DF000E5CFDAFFE7CFD9FF120065EC21F002E35F
:102E0000E168E652E16EDE6ADD6AFD0EDB50000825
:102E10006CE20A0E156E096EFD0EDBCF0EF0C0ECF3
:102E20002BF0FC0EDB50095C60E3FBEC20F0166E2F
:102E3000176AEB0ED880F354FF0E175456E3FBECE1
:102E400020F0E66ED950020FE96E000EDA20EA6E2D
:102E5000E552E750EE6EED6A020EDBCF14F0030E82
:102E6000DBCF15F01F0E1426000E152214C0E6FF4E
:102E700015C0E6FF7DEC29F0E552E552F3CFDEFF09
:102E8000F4CFDDFFD9CFE9FFDACFEAFFEE50ED1046
:102E90002CE0D9CFE9FFDACFEAFF040EEECFDBFF5B
:102EA000050EEDCFDBFFD950040FE96E000EDA20DE
:102EB000EA6E1F0EEE26000EED22DECFE6FFDDCF1E
:102EC000E6FFFB0EDBCFE6FF16EC21F0FC0EDBCFBE
:102ED000E6FFFD0EDBCFE6FF18D8146E070EE15CAF
:102EE00002E2E16AE552E16E1450DECF14F0DDCF6C
:102EF00015F014C0F3FF15C0F4FF060EE15C02E20A
:102F0000E16AE552E16EB3EF20F0A6EC20F0FC0E92
:102F1000DB5007E1D5EC20F0F70EDBCFEEFFF80E2B
:102F200006D0D5EC20F0FA0EDBCFEEFFFB0EDBCFA8
:102F3000EDFFD5EC20F01B0EAFEC20F0FD0EDBCF4B
:102F4000EFFFD5EC20F01C0EAFEC20F0FC0EDBCF39
:102F5000EFFF010EE66EF70EDBCFE6FFF80EDBCFDC
:102F6000E6FFDDDD69EF21F0D9CFE6FFDACFE6FF3E
:102F7000E1CFD9FFE2CFDAFF070EE12402E3E168F7
:102F8000E652E16EDF6AFC0EDBCF08F0FD0EDBCF10
:102F900009F0050E08C0DBFF060E09C0DBFFF2508A
:102FA000E66EF29E050EDBCFE9FF060EDBCFEAFFF1
:102FB0001A0EE926000EEA22EFCF14F0050EDBCF41
:102FC000E9FF060EDBCFEAFF1B0EE926000EEA2220
:102FD000EF50145C04E3F70EDB50020856E1F70EE5
:102FE000DBCFE6FFFA0EDBCFE6FFFB0EDBCFE6FF23
:102FF000050EDBCFE6FF060EDBCFE6FFC1EC1EF0D1
:10300000146E050EE15C02E2E16AE552E16E1450D5
:10301000E76E010EE7CFDBFF050EDBCFE9FF060E03
:10302000DBCFEAFF110EE926000EEA22EF5002E1A3
:10303000010E01D0000E00091CE1050EDBCFE9FFF7
:10304000060EDBCFEAFF110EE926000EEA22E9CFD9
:1030500014F0EACF15F014C0E6FF15C0E6FF01EC4E
:1030600009F0E552E552000903E0E3EC22F000D05C
:1030700006D0010EDB5003E0E3EC22F000D0E55275
:10308000E7BEF28E010EC5D01ED0D950F80FE96E02
:10309000FF0EDA20EA6EEE50ED1006E1E552E7BED3
:1030A000F28E000EB6D00FD0DF500DE1D950020FD6
:1030B000E66E000EDA20E66EF5EC09F0E552E55218
:1030C000010EDF6E00D0E552E7BEF28E32EC04F066
:1030D000F250E66EF29E050EDBCFE9FF060EDBCF67
:1030E000EAFF1D0EE926000EEA22EF50FF080BE171
:1030F000050EDBCFE9FF060EDBCFEAFF1D0EE9264A
:10310000000EEA22EF6A050EDBCFE9FF060EDBCFE9
:10311000EAFF1E0EE926000EEA22EF50FF080BE13F
:10312000050EDBCFE9FF060EDBCFEAFF1E0EE92618
:10313000000EEA22EF6AE552E7BEF28ED950F80F90
:10314000E66EFF0EDA20E66ED950020FE66E000E34
:10315000DA20E66E04EC0AF0E552E552E552E5525B
:10316000000948E1050EDBCFE6FF060EDBCFE6FFE8
:1031700055EC20F0E552E55200092FE0F80EDBCFC8
:10318000E6FFF90EDBCFE6FF050EDBCFE9FF060E0B
:10319000DBCFEAFF080EE926000EEA22E9CF14F0A1
:1031A000EACF15F014C0E6FF15C0E6FFB1EC08F059
:1031B000E552E552E552E552050EDBCFE6FF060E7D
:1031C000DBCFE6FF5BEC1FF0E552E55235EC04F097
:1031D000000902E1E3EC22F00CD0050EDBCFE6FFA4
:1031E000060EDBCFE6FF5BEC1FF0E552E55235EC57
:1031F00004F00ED0050EDBCFE6FF060EDBCFE6FFB8
:103200005BEC1FF0E552E55235EC04F0000E01D006
:10321000C6D6146E070EE15C02E2E16AE552E16E89
:103220001450E552E5CFDAFFE7CFD9FF120065EC85
:1032300021F002E3E168E65245EC21F0EFCF14F013
:1032400078EC21F0145C04E3F70EDB5002083CE15B
:1032500059EC21F0040EEFCFDBFF86EC21F0050ED8
:10326000EFCFDBFFF70EDBCFE6FFCEEC20F01DEC5F
:1032700021F0C1EC1EF0146E050EE15C02E2E16A81
:10328000E552E16E1450040EDB50FF0816E15DECD0
:1032900021F0EF5002E1010E01D0000E000911E112
:1032A0005DEC21F0C0EC20F00CE0D950F80FE3EC1D
:1032B00020F007E00EEC21F003D0040E90EC21F09A
:1032C000EF6E010EDF6E01D0DF6A09EC21F002E241
:1032D000E16AE552E16E1450B3EF20F065EC21F0A5
:1032E00002E3E168E65245EC21F0040EEFCFDBFF8C
:1032F00078EC21F0F36E040EDBCFF4FFF350F45CB6
:103300002CE259EC21F0050EEFCFDBFF040EDB2899
:1033100074EC21F01BE15DEC21F0EF5002E1010EB5
:1033200001D0000E000916E15DEC21F0C0EC20F0A8
:1033300011E0D950FA0FE3EC20F00CE0FA0EDBCFED
:10334000E9FFFB0EDBCFEAFF010E03D0050E90EC88
:1033500021F0EF6E010EDF6E01D0DF6A09EC21F083
:1033600002E2E16AE552E16E1450B3EF20F0D9CFEA
:10337000E6FFDACFE6FFE1CFD9FFE2CFDAFF070EB3
:10338000E12402E3E168E652E16EDF6AFC0EDBCF86
:1033900008F0FD0EDBCF09F0040E08C0DBFF050EC0
:1033A00009C0DBFFF250E66EF29E040EDBCFE9FFB0
:1033B000050EDBCFEAFF1A0EE926000EEA22060E02
:1033C000EFCFDBFF060EDB50000855E2FA0EDBCF35
:1033D000E6FFFB0EDBCFE6FF040EDBCFE6FF050EBC
:1033E000DBCFE6FF2CEC1FF0E552E552E552E5524B
:1033F000060EDB04E66E040EDBCFE9FF050EDBCF25
:10340000EAFF1A0EE926000EEA22E552E750EF6EB7
:10341000040EDBCFE9FF050EDBCFEAFF080EE9263D
:10342000000EEA22EF5002E1010E01D0000E000969
:103430001CE1040EDBCFE9FF050EDBCFEAFF080E2F
:10344000E926000EEA22E9CF14F0EACF15F014C005
:10345000E6FF15C0E6FF01EC09F0E552E552000970
:1034600003E0E3EC22F000D000D0E552E7BEF28E9C
:10347000010ED3D01ED0D950F80FE96EFF0EDA201E
:10348000EA6EEE50ED1006E1E552E7BEF28E000E58
:10349000C4D00FD0DF500DE1D950010FE66E000E01
:1034A000DA20E66EF5EC09F0E552E552010EDF6E2A
:1034B00000D0E552E7BEF28E32EC04F0F250E66E38
:1034C000F29E040EDBCFE9FF050EDBCFEAFF1D0EF7
:1034D000E926000EEA22EF50FF080BE1040EDBCFD5
:1034E000E9FF050EDBCFEAFF1D0EE926000EEA22FA
:1034F000EF6A040EDBCFE9FF050EDBCFEAFF1E0EFD
:10350000E926000EEA22EF50FF080BE1040EDBCFA4
:10351000E9FF050EDBCFEAFF1E0EE926000EEA22C8
:10352000EF6AE552E7BEF28ED950F80FE66EFF0E55
:10353000DA20E66ED950010FE66E000EDA20E66E54
:1035400004EC0AF0E552E552E552E552000949E182
:10355000040EDBCFE6FF050EDBCFE6FF24EC20F008
:10356000E552E552000930E0F80EDBCFE6FFF90E38
:10357000DBCFE6FF040EDBCFE9FF050EDBCFEAFF72
:10358000110EE926000EEA22E9CF14F0EACF15F079
:1035900014C0E6FF15C0E6FFB1EC08F0E552E552B5
:1035A000E552E552040EDBCFE6FF050EDBCFE6FF6A
:1035B0005BEC1FF0E552E55235EC04F0000903E145
:1035C000E3EC22F000D00CD0040EDBCFE6FF050EBA
:1035D000DBCFE6FF5BEC1FF0E552E55235EC04F083
:1035E0001BD0040EDBCFE6FF050EDBCFE6FF5BEC66
:1035F0001FF0E552E55235EC04F0040EDBCFE6FF98
:10360000050EDBCFE6FF24EC20F0E552E552000981
:1036100003E0000E02D000D0C5D6146E070EE15CA8
:1036200002E2E16AE552E16E1450E552E5CFDAFFBD
:10363000E7CFD9FF1200D9CFE6FFDACFE6FFE1CF1F
:10364000D9FFE2CFDAFF070EE12402E3E168E65298
:10365000E16EDF6AFC0EDBCF08F0FD0EDBCF09F078
:10366000040E08C0DBFF050E09C0DBFFF250E66E5A
:10367000F29E040EDBCFE9FF050EDBCFEAFF1A0E48
:10368000E926000EEA22060EEFCFDBFF060EDB5026
:10369000000843E2060EDB04E66E040EDBCFE9FF12
:1036A000050EDBCFEAFF1A0EE926000EEA22E552EC
:1036B000E750EF6E040EDBCFE9FF050EDBCFEAFF2C
:1036C000080EE926000EEA22EF5002E1010E01D0B9
:1036D000000E00091CE1040EDBCFE9FF050EDBCF75
:1036E000EAFF080EE926000EEA22E9CF14F0EACF3D
:1036F00015F014C0E6FF15C0E6FF01EC09F0E55235
:10370000E552000903E0E3EC22F000D000D0E552DE
:10371000E7BEF28E010ECFD01ED0D950FA0FE96E5F
:10372000FF0EDA20EA6EEE50ED1006E1E552E7BE3C
:10373000F28E000EC0D00FD0DF500DE1D950010F36
:10374000E66E000EDA20E66EF5EC09F0E552E55281
:10375000010EDF6E00D0E552E7BEF28E32EC04F0CF
:10376000F250E66EF29E040EDBCFE9FF050EDBCFD2
:10377000EAFF1D0EE926000EEA22EF50FF080BE1DA
:10378000040EDBCFE9FF050EDBCFEAFF1D0EE926B5
:10379000000EEA22EF6A040EDBCFE9FF050EDBCF55
:1037A000EAFF1E0EE926000EEA22EF50FF080BE1A9
:1037B000040EDBCFE9FF050EDBCFEAFF1E0EE92684
:1037C000000EEA22EF6AE552E7BEF28ED950FA0FF8
:1037D000E66EFF0EDA20E66ED950010FE66E000E9F
:1037E000DA20E66E04EC0AF0E552E552E552E552C5
:1037F000000947E1040EDBCFE6FF050EDBCFE6FF55
:1038000024EC20F0E552E55200092FE0FA0EDBCF60
:10381000E6FFFB0EDBCFE6FF040EDBCFE9FF050E74
:10382000DBCFEAFF110EE926000EEA22E9CF14F001
:10383000EACF15F014C0E6FF15C0E6FFB1EC08F0C2
:10384000E552E552E552E552040EDBCFE6FF050EE8
:10385000DBCFE6FF30DBE552E55235EC04F0000942
:1038600003E1E3EC22F000D00BD0040EDBCFE6FF47
:10387000050EDBCFE6FF1FDBE552E55235EC04F029
:1038800019D0040EDBCFE6FF050EDBCFE6FF13DB1E
:10389000E552E55235EC04F0040EDBCFE6FF050EF1
:1038A000DBCFE6FFD1DBE552E552000903E0000E75
:1038B00002D000D0DBD6146E070EE15C02E2E16AB2
:1038C000E552E16E1450E552E5CFDAFFE7CFD9FFBC
:1038D0001200D9CFE6FFDACFE6FFE1CFD9FFE2CF82
:1038E000DAFF090EE12402E3E168E652E16EDF6AE5
:1038F000FC0EDBCF08F0FD0EDBCF09F0060E08C092
:10390000DBFF070E09C0DBFFF250E66EF29E060EEB
:10391000DBCFE9FF070EDBCFEAFF1A0EE926000E28
:10392000EA22080EEFCFDBFF080EDB5000086CE246
:10393000060EDBCFE9FF070EDBCFEAFF040EE92618
:10394000000EEA22020EE926000EEA22040EEECF55
:10395000DBFF050EEDCFDBFFFA0EDBCFE6FFFB0E44
:10396000DBCFE6FF060EDBCFE6FF070EDBCFE6FF81
:1039700073DAE552E552E552E552060EDBCFE9FF78
:10398000070EDBCFEAFF040EE926000EEA22020E44
:10399000E926000EEA22040EDBCFEEFF050EDBCF98
:1039A000EDFF060EDBCFE9FF070EDBCFEAFF110EBE
:1039B000E926000EEA22EF5002E1010E01D0000ECE
:1039C00000091CE1060EDBCFE9FF070EDBCFEAFFA3
:1039D000110EE926000EEA22E9CF14F0EACF15F025
:1039E00014C0E6FF15C0E6FF01EC09F0E552E55210
:1039F000000903E0E3EC22F000D000D0E552E7BE7E
:103A0000F28E010ECED01ED0D950F80FE96EFF0E07
:103A1000DA20EA6EEE50ED1006E1E552E7BEF28ED6
:103A2000000EBFD00FD0DF500DE1D950010FE66E70
:103A3000000EDA20E66EF5EC09F0E552E552010ED3
:103A4000DF6E00D0E552E7BEF28E32EC04F0F250A9
:103A5000E66EF29E060EDBCFE9FF070EDBCFEAFF34
:103A60001D0EE926000EEA22EF50FF080BE1060EBC
:103A7000DBCFE9FF070EDBCFEAFF1D0EE926000EC4
:103A8000EA22EF6A060EDBCFE9FF070EDBCFEAFF83
:103A90001E0EE926000EEA22EF50FF080BE1060E8B
:103AA000DBCFE9FF070EDBCFEAFF1E0EE926000E93
:103AB000EA22EF6AE552E7BEF28ED950F80FE66EC1
:103AC000FF0EDA20E66ED950010FE66E000EDA2006
:103AD000E66E04EC0AF0E552E552E552E5520009C3
:103AE00046E1060EDBCFE6FF070EDBCFE6FFACDAE2
:103AF000E552E55200092FE0F80EDBCFE6FFF90EA4
:103B0000DBCFE6FF060EDBCFE9FF070EDBCFEAFFD8
:103B1000110EE926000EEA22E9CF14F0EACF15F0E3
:103B200014C0E6FF15C0E6FFB1EC08F0E552E5521F
:103B3000E552E552060EDBCFE6FF070EDBCFE6FFD0
:103B4000BAD9E552E55235EC04F0000903E1E3ECA3
:103B500022F000D00BD0060EDBCFE6FF070EDBCF46
:103B6000E6FFA9D9E552E55235EC04F019D0060E6E
:103B7000DBCFE6FF070EDBCFE6FF9DD9E552E5522E
:103B800035EC04F0060EDBCFE6FF070EDBCFE6FFD9
:103B90005BDAE552E552000903E0000E02D000D0E6
:103BA000B3D6146E090EE15C02E2E16AE552E16E01
:103BB0001450E552E5CFDAFFE7CFD9FF120085DBDD
:103BC00002E3E168E65261DB040EEFCFDBFFDB507E
:103BD00000082DE2B4DA1D0EC2DA050EEFCFDBFFCE
:103BE000DDDA2BDB89DB040EDB047EDB14E1A7DAF4
:103BF000080EABDB02E1010E01D0000E000914E15A
:103C00009EDA080EACDABCDA0FE0D950F80FDBDA36
:103C10000BE004DB08D0050EDB28E66E90DA1D0E03
:103C20009EDAE552E750EF6E010EDF6E01D0DF6ADB
:103C3000F0DA02E2E16AE552E16E145094D245DB1B
:103C400002E3E168E652E16E94DA040E08C0DBFF9D
:103C5000050EDADABFDA1A0E78DB000812E23DDB75
:103C6000EECFDBFF030EEDCFDBFF98DADFDA44DBCC
:103C700034DBDBCFEEFF030EDBCFEDFF010EDF6E9B
:103C800001D0DF6AC6DA02E2E16AE552E16E145061
:103C90006AD2D9CFE6FFDACFE6FFE1CFD9FFE2CF94
:103CA000DAFFE652F250E66EF29EFC0EDBCFE9FF41
:103CB000FD0EDBCFEAFF1A0EE926000EEA22EFCF57
:103CC000DFFFE552E7BEF28EDF5000D0E552E5524D
:103CD000E5CFDAFFE7CFD9FF1200D9CFE6FFDACF81
:103CE000E6FFE1CFD9FFE2CFDAFFE652E652E65235
:103CF000FC0EDBCF08F0FD0EDBCF09F0DE5208C072
:103D0000DEFF09C0DDFFDD52F250E66EF29E010ECD
:103D1000DBCFE9FF020EDBCFEAFF1B0EE926000E28
:103D2000EA22EFCF14F0010EDBCFE9FF020EDBCF6A
:103D3000EAFF1A0EE926000EEA22EF50145CDF6E4D
:103D4000E552E7BEF28EDF5000D0E552E552E55273
:103D5000E552E5CFDAFFE7CFD9FF120081DAEFCFE6
:103D6000DFFFDF50B6D2EDDAFC0EDBCFDEFFDBCFBC
:103D7000DDFFDECFE6FFDDCFE6FFE6EC29F0E55222
:103D8000A8D2DFDADF6AD4D91A0EE9D9010EEFCF53
:103D9000DBFF73DA54E0F90EDB5025E1C7DA91DA84
:103DA00020DA02E2E16AE552E16E145066DA146E3E
:103DB000156A87DA1450EE261550ED2282DAEECF1E
:103DC00014F0EFCF15F09EDAEECF16F0EECF17F02D
:103DD000EECF18F01650145C1750155830E3ABDADC
:103DE00070DA39DA2CD0A2DA4CDAFBD902E2E16AD5
:103DF000E552E16E14508EDAEE5E1550ED5A4EDA51
:103E0000EECF18F0EFCF19F01850165C1950175874
:103E10000CE233DA166E176A75DA1650EE5C146E21
:103E20001750EE58156E2DDA16DAF90EDB5002082F
:103E300006E1010EDB50000802E2010EDB06010E76
:103E4000DB28E66E75D91A0E8AD9E552E750EF6E77
:103E5000DF50E552E55287D179D90FDA2BE05ADAF3
:103E6000EE261550ED221ADA040E79D9EECF18F0AD
:103E7000EECF19F0EECF1AF0EFCF1BF00001185083
:103E8000165C1950175803E356DAFBD9E4D9F5D973
:103E9000E66EE66AF6D9EECFE6FFEFCFE6FF7ED913
:103EA000ACEC2AF0146E060EE15C02E2E16AE55227
:103EB000E16E145058D1D9CFE6FFDACFE6FFE1CF5B
:103EC000D9FFE2CFDAFFE652E652F250E66EF29EFA
:103ED000FC0EDBCFE9FFFD0EDBCFEAFF1E0EE9266D
:103EE000000EEA22EFCFDFFFDFCF14F0000EE76E07
:103EF0001418E8AE02D0143403D0E750D88014541C
:103F000030E2FC0EDBCFE9FFFD0EDBCFEAFF110E46
:103F1000E926000EEA22EF5002E1010E01D0000E68
:103F200000091CE1FC0EDBCFE9FFFD0EDBCFEAFF51
:103F3000110EE926000EEA22E9CF14F0EACF15F0BF
:103F400014C0E6FF15C0E6FF01EC09F0E552E552AA
:103F5000000903E0ADEC0AF000D001D002D0DF068A
:103F6000C3D7FC0EDBCFE9FFFD0EDBCFEAFF1E0E51
:103F7000E926000EEA22EF68E552E7BEF28EF25023
:103F8000E66EF29EFC0EDBCFE9FFFD0EDBCFEAFF13
:103F90001D0EE926000EEA22010EEFCFDBFF010E17
:103FA000DBCF14F0000EE76E1418E8AE02D0143424
:103FB00003D0E750D880145431E2FC0EDBCFE9FF88
:103FC000FD0EDBCFEAFF080EE926000EEA22EF50D5
:103FD00002E1010E01D0000E00091EE1FC0EDBCF54
:103FE000E9FFFD0EDBCFEAFF080EE926000EEA220C
:103FF000E9CF14F0EACF15F014C0E6FF15C0E6FFD4
:1040000001EC09F0E552E552000903E0ADEC0AF0DD
:1040100000D0010EDB0601D001D0C1D7FC0EDBCFF2
:10402000E9FFFD0EDBCFEAFF1D0EE926000EEA22B6
:10403000EF68E552E7BEF28EE552E552E552E5CF74
:10404000DAFFE7CFD9FF1200D9CFE6FFDACFE6FFDC
:10405000E1CFD9FFE2CFDAFFE652F250E66EF29EF0
:10406000FC0EDBCFE9FFFD0EDBCFEAFF1A0EE926DF
:10407000000EEA22EF5003E1010EDF6E01D0DF6A8D
:10408000E552E7BEF28EDF5000D0E552E552E5CFB3
:10409000DAFFE7CFD9FF1200E3D8EF5003E1010EBA
:1040A000DF6E01D0DF6ADF5014D1D9CFE6FFDACF5F
:1040B000E6FFE1CFD9FFE2CFDAFFE652F250E66E3B
:1040C000F29EFC0EDBCFE9FFFD0EDBCFEAFF1A0EFE
:1040D000E926000EEA22EFCF14F0FC0EDBCFE9FF59
:1040E000FD0EDBCFEAFF1B0EE926000EEA22EF50A1
:1040F000145C03E1010EDF6E01D0DF6AE552E7BE1A
:10410000F28EDF5000D0E552E552E5CFDAFFE7CF7F
:10411000D9FF1200A5D8EFCF14F04ED81B0E15D939
:10412000145C03E1010EDF6E01D0DF6ADF50D1D0F5
:10413000FC0EDBCFE9FFFD0EDBCFEAFF1200020E23
:10414000DBCFE9FF030EDBCFEAFF1200D9CFE6FF9A
:10415000DACFE6FFE1CFD9FFE2CFDAFF1200E9269E
:10416000000EEA221200E552E5CFDAFFE7CFD9FFD1
:104170001200FC0EDBCF08F0FD0EDBCF09F01200C1
:10418000E9CF14F0EACF15F0E9CFE6FFEACFE6FF7A
:1041900001EC09F0E552E55200091200FA0EDBCFFE
:1041A000E6FFFB0EDBCFE6FF1200F70EDBCFE9FFE9
:1041B000F80EDBCFEAFF1200010EDBCFE9FF020EA3
:1041C000DBCFEAFF1200E96EFF0EDA20EA6EEE5056
:1041D000ED101200040EDBCFE9FF050EDBCFEAFF86
:1041E0001200EECFE6FFEFCFE6FFACEC2AF0146E44
:1041F000060EE15C1200FC0EDBCFE6FFFD0EDB508D
:10420000E552E702F350120009C0DBFF010EDB6A42
:104210001200DF50146E060EE15C1200F80EDBCFC8
:10422000E9FFF90EDBCFEAFF010E1200040EDBCF2F
:10423000E6FF050EDBCFE6FF1200020EDBCFE6FF46
:10424000030EDBCFE6FF1200E552E750EF6E050EDE
:10425000DB50FF08120014C0EEFF15C0EDFF120086
:1042600070D8E65286DFDE5208C0DEFF09C0DDFFEF
:10427000DD52A2DF1A0EAFEF20F05ADF1C0EA5EFC1
:1042800021F040D8020EAFEF20F0E16E72DF020E97
:1042900008C0DBFF030EB8DF86EF21F033D8EECF86
:1042A00014F0EECF15F0EECF16F0EFCF17F098EF39
:1042B00020F045DF1E0EAFEF20F041DF110EAFEF13
:1042C00020F036DF020EAFEF20F040DF060EE124D3
:1042D0001200E552E552E55246D77CDF040E3FDF7F
:1042E000020E3DDF020E1200E66E10D824EF21F020
:1042F00026DF1B0EA5EF21F0AFDDE552E552E552BA
:10430000E552120015DF040EAFEF20F018DF1A0E91
:10431000AFEF20F0B2DF146E156AB3DF1450120055
:10432000DB28E66EC6DFE552E7501200A6DFE66E38
:10433000E66ACEEF20F0FCDEEECF14F0EFCF15F002
:10434000120004DFE652E652120009DFEF501200BD
:104350005DDBE652E652E652E652E6523CDB110ED7
:1043600041DB01E3DB2A37DB220E3CDB01E3DB2A06
:1043700032DB330E37DB01E3DB2AF70EDBCF14F041
:10438000F80EDBCF15F0000E56DBDB6A030EDB6A9E
:1043900059DB01E3DB2A67DB2ADBFEE153DB01E3C8
:1043A000DB2A19DB440E1EDB01E3DB2A14DB660E7D
:1043B00019DB01E3DB2A0FDBCC0E14DB01E3DB2A84
:1043C0000ADBC00E0FDB01E3DB2A05DB110E0ADB83
:1043D00001E3DB2A00DB220E05DB01E3DB2AFBDA4B
:1043E000330E00DB01E3DB2AF6DA440EFBDA01E3ED
:1043F000DB2AF1DA550EF6DA01E3DB2AECDA660E97
:10440000F1DA01E3DB2A2CDB01E3DB2AE4DA880EB4
:10441000E9DA01E3DB2ADFDA990EE4DA01E3DB2AE9
:10442000DADAAA0EDFDA01E3DB2AD5DABB0EDADA52
:1044300001E3DB2A15DB01E3DB2A12DB01E3DB2AE4
:10444000040EDB6ADB50130810E3C5DA040EDBCF81
:10445000EFFFFC0EDBCFE9FFDB2AFD0EDBCFEAFF2F
:1044600001E3DB2A040EDB2AEDD7B5DA130EBADA44
:1044700001E3DB2AF5DA01E3DB2AF90EDBCF14F0E6
:10448000FA0EDBCF15F0FB0EDBCF16F0176AD3DA8E
:1044900016C0DBFF030E17C0DBFFD4DA01E3DB2A13
:1044A000E2DAA5DAFEE1CEDA01E3DB2ADCDA9FDA32
:1044B000FEE1C8DA01E3DB2A8EDA010E93DA01E3CA
:1044C000DB2AFC0EDBCF14F0FD0EDBCF15F014C0A1
:1044D000F3FF15C0F4FF050EE15C02E2E16AE5526C
:1044E000A3D22ADACCC5E9FFCDC5EAFFEECFE1FFC2
:1044F000EECFE2FFE5CFE9FFE5CFE9FFFC6AE95047
:10450000FC5C08E20500E550FF6EE550FE6EE550EC
:10451000FD6EF5D7E5CFEAFFE5CFE9FFE5CFEDFF8B
:10452000E5CFEDFFE5CFEDFFE5CFEDFFE5CFEDFF0B
:10453000E5CFEDFFE5CFEDFFE5CFEDFFE5CFEDFFFB
:10454000E5CFEDFFE5CFEDFFE5CFEDFFE5CFEDFFEB
:10455000E5CFEDFFE5CFEDFFE5CFEDFFE5CFEDFFDB
:10456000E5CFEDFFE5CFEDFFE5CFEFFFE5CFFAFFBC
:10457000E5CFFBFFE5CFF3FFE5CFF4FFE5CFF6FF97
:10458000E5CFF7FFE5CFF8FFE5CFF5FFE5CFEAFF91
:10459000E5CFE9FFE5CFDAFFE5CFD9FFE5CFE0FFD3
:1045A000E5CFE8FFE8AE06D0E5CFD8FFE5CFE8FFDE
:1045B000100005D0E5CFD8FFE5CFE8FF1200010ECF
:1045C00000D012001200E8CFE4FFD8CFE4FFF2CF12
:1045D000E8FF0009E8CFE4FFF29EE0CFE4FFD9CF87
:1045E000E4FFDACFE4FFE9CFE4FFEACFE4FFF5CF61
:1045F000E4FFF8CFE4FFF7CFE4FFF6CFE4FFF4CF1A
:10460000E4FFF3CFE4FFFBCFE4FFFACFE4FFE96A76
:10461000EA6AEECFE4FFEECFE4FFEECFE4FFEECFA9
:10462000E4FFEECFE4FFEECFE4FFEECFE4FFEECF0A
:10463000E4FFEECFE4FFEECFE4FFEECFE4FFEECFFA
:10464000E4FFEECFE4FFEECFE4FFEECFE4FFEECFEA
:10465000E4FFEECFE4FFEECFE4FFEECFE4FFEFCFD9
:10466000E4FFE9CFE4FFEACFE4FFFCCFE9FFFC5031
:10467000000808E2FDCFE4FFFECFE4FFFFCFE4FF38
:104680000600F5D7E9CFE4FFE452CCC5E9FFCDC57C
:10469000EAFFE1CFEEFFE2CFEEFF72EC08F0CCC50F
:1046A000E9FFCDC5EAFFEECFE1FFEECFE2FFE5CFB8
:1046B000E9FFE5CFE9FFFC6AE950FC5C08E2050090
:1046C000E550FF6EE550FE6EE550FD6EF5D7E5CF87
:1046D000EAFFE5CFE9FFE5CFEDFFE5CFEDFFE5CF61
:1046E000EDFFE5CFEDFFE5CFEDFFE5CFEDFFE5CF4A
:1046F000EDFFE5CFEDFFE5CFEDFFE5CFEDFFE5CF3A
:10470000EDFFE5CFEDFFE5CFEDFFE5CFEDFFE5CF29
:10471000EDFFE5CFEDFFE5CFEDFFE5CFEDFFE5CF19
:10472000EDFFE5CFEFFFE5CFFAFFE5CFFBFFE5CFEC
:10473000F3FFE5CFF4FFE5CFF6FFE5CFF7FFE5CFD9
:10474000F8FFE5CFF5FFE5CFEAFFE5CFE9FFE5CFDD
:10475000DAFFE5CFD9FFE5CFE0FFE5CFE8FFE8AE30
:1047600006D0E5CFD8FFE5CFE8FF100005D0E5CFB4
:10477000D8FFE5CFE8FF12001200E8CFE4FFD8CF62
:10478000E4FFF2CFE8FF8009E8CFE4FFF29EE0CF3C
:10479000E4FFD9CFE4FFDACFE4FFE9CFE4FFEACFCB
:1047A000E4FFF5CFE4FFF8CFE4FFF7CFE4FFF6CF67
:1047B000E4FFF4CFE4FFF3CFE4FFFBCFE4FFFACF55
:1047C000E4FFE96AEA6AEECFE4FFEECFE4FFEECF62
:1047D000E4FFEECFE4FFEECFE4FFEECFE4FFEECF59
:1047E000E4FFEECFE4FFEECFE4FFEECFE4FFEECF49
:1047F000E4FFEECFE4FFEECFE4FFEECFE4FFEECF39
:10480000E4FFEECFE4FFEECFE4FFEECFE4FFEECF28
:10481000E4FFEFCFE4FFE9CFE4FFEACFE4FFFCCF12
:10482000E9FFFC50000808E2FDCFE4FFFECFE4FF03
:10483000FFCFE4FF0600F5D7E9CFE4FFE452CCC593
:10484000E9FFCDC5EAFFE1CFEEFFE2CFEEFF9E9498
:1048500075EC07F0000902E072EC08F0CCC5E9FF46
:10486000CDC5EAFFEECFE1FFEECFE2FFE5CFE9FFF6
:10487000E5CFE9FFFC6AE950FC5C08E20500E55081
:10488000FF6EE550FE6EE550FD6EF5D7E5CFEAFF11
:10489000E5CFE9FFE5CFEDFFE5CFEDFFE5CFEDFF9C
:1048A000E5CFEDFFE5CFEDFFE5CFEDFFE5CFEDFF88
:1048B000E5CFEDFFE5CFEDFFE5CFEDFFE5CFEDFF78
:1048C000E5CFEDFFE5CFEDFFE5CFEDFFE5CFEDFF68
:1048D000E5CFEDFFE5CFEDFFE5CFEDFFE5CFEDFF58
:1048E000E5CFEFFFE5CFFAFFE5CFFBFFE5CFF3FF25
:1048F000E5CFF4FFE5CFF6FFE5CFF7FFE5CFF8FF13
:10490000E5CFF5FFE5CFEAFFE5CFE9FFE5CFDAFF39
:10491000E5CFD9FFE5CFE0FFE5CFE8FFE8AE06D071
:10492000E5CFD8FFE5CFE8FF100005D0E5CFD8FFF1
:10493000E5CFE8FF1200120069D8090EE12402E376
:10494000E168E652E16E100EDE6E270EDE6EDE6A64
:10495000DD6ADD52DD52CF6ACE6A53D8040EEECF47
:10496000DBFF050EEECFDBFF060EEECFDBFF070E03
:10497000EECFDBFF040EDBCF14F0050E060E070EA4
:104980001450BE6ED950040FE96E000EDA20EA6EA4
:10499000080EE76E2CD8FEE1040EDBCF14F0050EF6
:1049A000DBCF15F0060EDBCF16F0070EDBCF17F0CE
:1049B0001450BF6EBD80BD82BD94BD869D84F28CB7
:1049C0008D0EE66E4DEC2BF0E552090EE15C02E235
:1049D000E16AE55229D0FC0EDBCFE9FFFD0EDBCF0B
:1049E000EAFF1200EF6EFC0EDB2AFD0E1200D890DB
:1049F000030EEB32020EEB32010EEB32EF32E70622
:104A00001200D9CFE9FFDACFEAFF1200D9CFE6FFD3
:104A1000DACFE6FFE1CFD9FFE2CFDAFF1200EF6A8B
:104A2000FC0EDB2AFD0E1200E16EE552E5CFDAFF47
:104A3000E7CFD9FF120014C0DFFF010E15C0DBFF66
:104A4000020E1200DEDFEECF14F0EECF15F0EECF47
:104A500016F01450E66EBFDFE552E750F2EF24F097
:0E4A6000BADF0FEF25F0CDDF080EE76E120073
:024A6E00D9CF9E
:104A7000E6FFDACFE6FFE1CFD9FFE2CFDAFFE65279
:104A8000E652E652E652146A090E156E3D0E166E97
:104A9000176A14C006F015C007F016C008F017C05A
:104AA00009F0FA0EDBCF0BF0FB0EDBCF0CF0FC0EA7
:104AB000DBCF0DF0FD0EDBCF0EF029EC2BF006C0A6
:104AC000DEFF07C0DEFF08C0DEFF09C0DDFFDD52EC
:104AD000DD52D9CFE9FFDACFEAFF040EE76ED890B6
:104AE000030EEB32020EEB32010EEB32EF32E70631
:104AF000F6E1D9CFE9FFDACFEAFFEE06000EEE5A73
:104B0000000EEE5A000EEE5AE66A010EE66EF90E3F
:104B1000DBCFE6FFFDEC16F0E552E552E552F3CFB0
:104B2000E9F5F4CFEAF5E66A010EE66EF90EDBCFA1
:104B3000E6FFFDEC16F0E552E552E552F3CFEBF55A
:104B4000F4CFECF5F250E66EF29EAC6AAB6A000E62
:104B5000DB50AF6E949C948E9F989F9AAC84AC8AE5
:104B6000AB8EAB889D8AE552E7BEF28EF36AF46A9B
:104B700000D0040EE15C02E2E16AE552E16EE5522A
:104B8000E5CFDAFFE7CFD9FF12000ED9BFEF26F04D
:104B9000F0D8F80EDBCFE6FF00D9FB0EDBCFE6FF47
:104BA000E9C5E6FFEAC5E6FFB7EC19F0146E060E9C
:104BB000E15C02E2E16AE552E16E1450000902E0B4
:104BC000010E01D0000EBFEF26F0D3D8E66AE5D87B
:104BD000D950FB0FE66EFF0EDA20E66EEBC5E6FF5E
:104BE000ECC5E6FFB4EC17F0146E070EE15C02E2D0
:104BF000E16AE552E16E1450010802E0000E02D0B5
:104C00009D88010EBFEF26F0CFD8BFEF26F097D8D2
:104C100000EE00F0140EE80403E3EECFE4FFFBD750
:104C200000EE14F0080EE80403E3EECFE4FFFBD738
:104C3000C0D8AE50DF6EABA202D0AB98AB88E66AAC
:104C4000A4D8E9C5E6FFEAC5E6FF17EC19F01D6E2A
:104C5000070EE15C02E2E16AE552E16E1D50010ED1
:104C6000DB5002E0E3EC22F0E552E55288D8E55251
:104C700000EE1BF0080EE80403E3E5CFEDFFFBD7E1
:104C800000EE13F0140EE80403E3E5CFEDFFFBD7CD
:104C90003CD055D800EE00F0140EE80403E3EECF4C
:104CA000E4FFFBD700EE14F0080EE80403E3EECFB8
:104CB000E4FFFBD77ED869D8EBC5E6FFECC5E6FF7D
:104CC000DFEC1DF01C6E060EE15C02E2E16AE552CB
:104CD000E16E1C50010803E1DF50AD6E01D09D98DC
:104CE000E552E5524CD8E55200EE1BF0080EE80400
:104CF00003E3E5CFEDFFFBD700EE13F0140EE8045D
:104D000003E3E5CFEDFFFBD700D0E5CFFBFFE5CF19
:104D1000FAFFE5CFF4FFE5CFF3FFE5CFF5FFE5CFF1
:104D2000F8FFE5CFF7FFE5CFF6FFE5CFEAFFE5CFE8
:104D3000E9FFE550E5CFE0FFE5CFD8FF1000D8CF81
:104D4000E4FFE0CFE4FFE46EE9CFE4FFEACFE4FF65
:104D5000F6CFE4FFF7CFE4FFF8CFE4FFF5CFE4FFB1
:104D6000F3CFE4FFF4CFE4FFFACFE4FFFBCFE4FF9F
:104D700012001AD8E1CFD9FFE2CFDAFF1200E552D4
:104D8000E5CFDAFFE7CFD9FF1200D950010FE66E69
:104D9000000EDA20E66ED4EF26F0F90EDBCFE6FF48
:104DA000FA0EDBCFE6FF1200D9CFE6FFDACFE6FF3F
:104DB0001200E652DEDFE652E652010EDB6A120016
:104DC000B4D810D9A0D8EE52C4D8DED8EE68ED68B9
:104DD00009D9DAD8020EE8D805D9D6D8040EE4D815
:104DE00092D8EF6AB0D0A1D8EFD8ADD0F3D8EE52B8
:104DF000C6D894D8020EE1D8040EDCD88FD8040EA1
:104E0000D3D89CD8040ED3D8020E84D8A7D896D86D
:104E1000040EBED8E552E55296D087D8E652E65247
:104E2000E652E6527BD8020EEECFDBFF030EEDCF4B
:104E3000DBFFD950020FE96E000EDA20EA6EFF0E9A
:104E4000EE1807E1FF0EED1804E19ED8040EC7D856
:104E500018D09AD8E9CFDEFFEACFDDFF6FD8020E77
:104E6000A6D883D8020EDBCF16F0030EDBCF17F0E7
:104E70001450165C1550175804E360D8020EAFD8D2
:104E8000EDD75CD8020E96D849D8020E8DD846D8F8
:104E9000020E8DD8040EACD8040E8FD8020E78D82E
:104EA000040EE15C02E2E16AE552E16E4CD092D878
:104EB000080E95D828D8040E7DD825D8020E77D8AC
:104EC000040E72D820D8020E75D81DD8040E6FD8E3
:104ED000020E6AD833D8EE5248D8FC0EDB501418B4
:104EE0000AE1FD0EDB50151806E10DD8040E62D85C
:104EF00025D8EE522ED868D821D8EF061FD8EF500B
:104F0000E552E55220D0FC0EDBCFE9FFFD0EDBCFF2
:104F1000EAFF1200E926000EEA221200FA0EDBCFA9
:104F2000E9FFFB0EDBCFEAFF1200D9CFE6FFDACFB5
:104F3000E6FFE1CFD9FFE2CFDAFF1200DECFE9FFD3
:104F4000DDCFEAFF1200E552E5CFDAFFE7CFD9FF68
:104F5000120014C0EEFF15C0EDFF1200FA0EDBCFF9
:104F6000EEFFFB0EDBCFEDFF1200EECF14F0EFCF24
:104F700015F01200EE50EFCFEAFFE96E1200EECF0F
:104F8000DEFFEDCFDDFF1200BEDF030E8AEF27F05C
:104F90002FD8080EBFDFFC0EDBCFEEFFFD0EDBCF00
:104FA000EDFFB1DFEF2A1200B5DFA9EF27F0B2DF86
:104FB000BAEF27F0AFDFB5EF27F0ACDFDECFEEFFC3
:104FC000DDCFEDFF9EEF27F09EDF080EEB6A090EA6
:104FD000EB6A1200AADFE652E65283EF27F09ADF6F
:104FE000BFEF27F0D1DFE9CF14F0EACF15F01200C0
:084FF00091DFB4DF8EEF27F022
:084FF800D9CFE6FFDACFE6FF96
:10500000E1CFD9FFE2CFDAFFE652DF6ADFCF14F05B
:10501000030EE76E1418E8AE02D0E73402D0E75072
:10502000145C22E2000EE66EE66AFD0EDBCFE6FFC0
:10503000000EE66EE66A690EE66EE66AA10EE66EA0
:10504000570EE66E760EE66E500EE66E000EE66EBB
:1050500026EC00F0146E0C0EE15C02E2E16AE5520F
:10506000E16E1450DF2AD2D7E552E552E5CFDAFFE0
:10507000E7CFD9FF1200D9CFE6FFDACFE6FFE1CFC5
:10508000D9FFE2CFDAFFE652E652E652E652E652A6
:10509000F250E66EF29E040EF1C5DBFF0501F12B26
:1050A000E552E7BEF28E040EDB50166E176A4D0E07
:1050B000086E010E096E16C00DF017C00EF06EECF2
:1050C0002BF006C014F007C015F04D0E1426010E8B
:1050D000152214C0DEFF15C0DDFFD9CFE9FFDACFFE
:1050E000EAFF0A0E0D6E0E6AEECF08F0EDCF09F062
:1050F0008CEC2BF008C0EEFF09C0EDFFD9CFE9FF23
:10510000DACFEAFF010E0F0B06E0EC52D890ED3239
:10511000EF32E806FAE109EC07F0020EF3CFDBFF0D
:10512000030EF4CFDBFFDECFE6FFDDCFE6FFD95085
:10513000020FE66E000EDA20E66E6BEC03F0E5522D
:10514000E552E552E552040EDBCFE6FF33EC2AF0E0
:10515000E552DECFE6FFDDCFE6FFD950020FE66E67
:10516000000EDA20E66E6BEC03F0E552E552E552F4
:10517000E552040EDBCFE6FF33EC2AF0E552D3D73D
:10518000050EE15C02E2E16AE552E16EE552E5CF2F
:08519000DAFFE7CFD9FF12009E
:0851980095D8DE6ADD6ADECF66
:1051A00014F0DDCF15F0D890155004E67C0E145C99
:1051B000150E155805E2DF2A010EF1E3DB2AEFD7C1
:1051C000E552E552E552E5CFDAFFE7CFD9FF12000D
:1051D000120078D8E652E652D20EDE6E040EDE6E73
:1051E000DE6ADD6ADD52DD5278D8630E0B6E0C6A22
:1051F00053D8360EEE1807E1DD0EEE1804E1010E6D
:10520000EE1801E1EE5001E054D867D8940E0B6E11
:10521000260E0C6E41D8380EEE1808E1E70EEE1897
:1052200005E1E90EEE1802E1470EEE1801E041D863
:1052300054D80F0E0B6E0C6A55D829EC2BF009C010
:10524000EDFF08C0EDFF07C0EDFF06C0EFFF45D83A
:10525000AE0EEE1808E1530EEE1805E1CB0EEE1877
:1052600002E1040EEE1801E024D837D8EE2A030E2E
:10527000EE220E0EEE22000EEE222FD8AF0EEE180A
:1052800008E1560EEE1805E1D90EEE1802E1040E03
:10529000EE18A2E00ED8A0D725D8F1EC2AF005C070
:1052A000EDFF04C0EDFF03C0EDFF02C0EFFF6DEFA7
:1052B00029F0010EE66E030EE66E04EC2AF0E552CC
:1052C000E5521200D9CFE6FFDACFE6FFE1CFD9FFF2
:1052D000E2CFDAFFE652E6521200D9CFE9FFDACF89
:1052E000EAFF12000D6A0E6AEECF06F0EECF07F06D
:0A52F000EECF08F0EFCF09F0120036
:0652FA00D9CFE6FFDACF78
:10530000E6FFE1CFD9FFE2CFDAFFE652E652DE6AEE
:10531000DD6A32EC04F00501EF51F01109E1800E75
:10532000146E010E156E166A176A14C0EFF5F06F51
:10533000D950FC0FE96EFF0EDA20EA6E000ED8801D
:10534000EE54000EED5435E2FC0EDB50ED2500016D
:10535000146EFD0EDB500501EE210001156EFF0EEF
:10536000145C030E155825E2FC0EDB500501ED25FB
:105370000001166EFD0EDB500501EE210001176ED7
:1053800005011650ED5D1750EE5913E2EF51ED2572
:10539000146EF051EE21156E14C0DEFFDD6EFC0EB2
:1053A000DBCF08F0FD0EDBCF09F00850ED270950E8
:1053B000EE2335EC04F0DECF14F0DDCF15F014C091
:1053C000F3FF15C0F4FFE552E55217D0D9CFE6FF41
:1053D000DACFE6FF12D00501ED6BEE6B1200EDC5E2
:1053E00014F0EEC515F0FF0ED8801456030E1556B6
:1053F00014C0F3FF15C0F4FF1200E552E5CFDAFF49
:06540000E7CFD9FF120006
:0A54060012003ED824E0010A18E06D
:10541000030A0CE0010A26E14BD814BE15681450AB
:10542000E8B0838EE8B01ED0839E1CD041D814BE55
:1054300015681450E8B0838CE8B014D0839C12D067
:1054400037D814BE15681450E8B0838AE8B00AD083
:10545000839A08D02DD814BE15681450E8B08388FC
:10546000E8A083981DD00FD80CE0010A08E0030AD9
:1054700004E0010A07E1837E05D0837C03D08072BB
:1054800001D080700DD0D9CFE6FFDACFE6FFE1CFB3
:10549000D9FFE2CFDAFF32EC04F0FD0EDB50120050
:1054A00035EC04F0E552E5CFDAFFE7CFD9FF120083
:0A54B000FC0EDBCF14F0156A1200A9
:0654BA00260EF66E000E46
:1054C000F76E000EF86E05010900F550E46F090053
:1054D000F550E56F03E1E46701D03DD00900F550D8
:1054E000DF6F0900F550E06F0900F550E16F09002A
:1054F0000900F550E96E0900F550EA6E090009004F
:105500000900F550E26F0900F550E36F090009004A
:10551000F6CFE6F5F7CFE7F5F8CFE8F5DFC5F6FF0C
:10552000E0C5F7FFE1C5F8FF0501E25302E1E353EF
:1055300007E00900F550EE6EE207F8E2E307F9D75D
:10554000E6C5F6FFE7C5F7FFE8C5F8FF0501E40784
:08555000000EE55BBFD712005D
:08555800D9CFE6FFDACFE6FF30
:10556000FA0EE3CFD9FFFB0EE3CFDAFFFC0EE3CF59
:10557000E9FFFD0EE3CFEAFFE9CFF3FFEACFF4FF47
:10558000F80EE35003E1F90EE35008E0F80EE306ED
:1055900002E2F90EE306DECFEEFFF2D7FF0EE3CF15
:1055A000DAFFE552FF0EE3CFD9FFE5521200FE0EFF
:1055B000E3CFE9FFFF0EE3CFEAFFE9CFF3FFEACF46
:1055C000F4FFFB0EE35003E1FC0EE35009E0FB0E99
:1055D000E30602E2FC0EE306FD0EE350EE6EF1D7A9
:0255E0001200B7
:0E55E20006500B02F3CF02F0F4CF03F00C02E0
:1055F000F3500326000EF420046E06500D02F35003
:105600000426000EF420056E06500E02F350052607
:1056100007500B02F3500326F4500422000E05221B
:1056200007500C02F3500426F450052207500D02D7
:10563000F350052608500B02F3500426F4500522BF
:1056400008500C02F350052609500B02F3500526B2
:02565000120046
:0E565200056A046A036A026A200EE76ED890A9
:10566000063607360836093602360336043605365E
:105670000B50025C0C5003580D5004580E50055846
:1056800009E30B50025E0C50035A0D50045A0E50A1
:0A569000055A062AE72EE4D712009F
:06569A00D9CFE6FFDACFD4
:1056A000E6FFE1CFD9FFE2CFDAFFFD0EDB507E0B44
:1056B000CD6EFD0EDBAC02D0CD8E01D0CD9ECF6A7B
:1056C000CE6A9E90DBAE02D09D8001D09D90CD80B1
:0C56D000E552E5CFDAFFE7CFD9FF12006A
:0456DC0008C012F000
:1056E00008500D02F4CF07F0F3CF06F009500E0278
:1056F000F4CF09F0F3CF08F00D02F3500726F45071
:105700000822E86A092212500E02F3500726F450CC
:085710000822E86A0922000CDE
:08571800056A046A100EE76E39
:10572000D89008360936043605360D50045C0E5004
:10573000055805E30D50045E0E50055A082AE72E61
:04574000F0D712008C
:0C574400800EF36E00EE00F00F0E01D896
:105750001200EA6002D0EE6AFCD7F350E960120052
:04576000EE6AFCD71A
:0C57640010EE80F020EE80F0F86A019C4E
:105770005DEC2AF003EC00F0E8EC28F0FBD7120017
:10578000056A080EE76ED890093605360E50055C9E
:0C57900002E3056E092AE72EF7D712008D
:04579C0049444C45EB
:0657A000004C45447800B6
:0A57A60000000000000000000000F9
:0957B000000000000000000300ED
:0457B90000000000EC
:0157BD0000EB
:020000040030CA
:0100010002FC
:010002001CE1
:010003001EDE
:00000001FF
